{
	"smart_contract/rent_contract/rent_contract.sol": {
		"NFTRentLight": {
			"abi": [
				{
					"inputs": [],
					"name": "checkAccess",
					"outputs": [
						{
							"internalType": "uint256",
							"name": "",
							"type": "uint256"
						}
					],
					"stateMutability": "view",
					"type": "function"
				},
				{
					"inputs": [],
					"name": "endRental",
					"outputs": [],
					"stateMutability": "nonpayable",
					"type": "function"
				},
				{
					"inputs": [],
					"name": "getUserStartTime",
					"outputs": [
						{
							"internalType": "uint256",
							"name": "",
							"type": "uint256"
						}
					],
					"stateMutability": "view",
					"type": "function"
				},
				{
					"inputs": [
						{
							"internalType": "uint256",
							"name": "gameId",
							"type": "uint256"
						}
					],
					"name": "rentGame",
					"outputs": [],
					"stateMutability": "nonpayable",
					"type": "function"
				},
				{
					"inputs": [
						{
							"internalType": "address",
							"name": "",
							"type": "address"
						}
					],
					"name": "rentals",
					"outputs": [
						{
							"internalType": "uint256",
							"name": "gameId",
							"type": "uint256"
						},
						{
							"internalType": "uint256",
							"name": "startTime",
							"type": "uint256"
						},
						{
							"internalType": "bool",
							"name": "active",
							"type": "bool"
						}
					],
					"stateMutability": "view",
					"type": "function"
				}
			],
			"devdoc": {
				"kind": "dev",
				"methods": {},
				"version": 1
			},
			"userdoc": {
				"kind": "user",
				"methods": {},
				"version": 1
			},
			"storageLayout": {
				"storage": [
					{
						"astId": 13,
						"contract": "smart_contract/rent_contract/rent_contract.sol:NFTRentLight",
						"label": "rentals",
						"offset": 0,
						"slot": "0",
						"type": "t_mapping(t_address,t_struct(Rental)8_storage)"
					}
				],
				"types": {
					"t_address": {
						"encoding": "inplace",
						"label": "address",
						"numberOfBytes": "20"
					},
					"t_bool": {
						"encoding": "inplace",
						"label": "bool",
						"numberOfBytes": "1"
					},
					"t_mapping(t_address,t_struct(Rental)8_storage)": {
						"encoding": "mapping",
						"key": "t_address",
						"label": "mapping(address => struct NFTRentLight.Rental)",
						"numberOfBytes": "32",
						"value": "t_struct(Rental)8_storage"
					},
					"t_struct(Rental)8_storage": {
						"encoding": "inplace",
						"label": "struct NFTRentLight.Rental",
						"members": [
							{
								"astId": 3,
								"contract": "smart_contract/rent_contract/rent_contract.sol:NFTRentLight",
								"label": "gameId",
								"offset": 0,
								"slot": "0",
								"type": "t_uint256"
							},
							{
								"astId": 5,
								"contract": "smart_contract/rent_contract/rent_contract.sol:NFTRentLight",
								"label": "startTime",
								"offset": 0,
								"slot": "1",
								"type": "t_uint256"
							},
							{
								"astId": 7,
								"contract": "smart_contract/rent_contract/rent_contract.sol:NFTRentLight",
								"label": "active",
								"offset": 0,
								"slot": "2",
								"type": "t_bool"
							}
						],
						"numberOfBytes": "96"
					},
					"t_uint256": {
						"encoding": "inplace",
						"label": "uint256",
						"numberOfBytes": "32"
					}
				}
			},
			"evm": {
				"assembly": "// RO data = 0/0 bytes\n// RW data = 16/65568 bytes\n// Stack size = 16384 bytes\n\n// Instructions = 3589\n// Code size = 11023 bytes\n\n      : @0 (gas: 2)\n     0: i32 a2 = a0 >> 0x10\n     3: jump @6 if a2 != 0\n      : @1 (gas: 2)\n     6: a2 = 0x10001\n    11: jump @6 if a1 >=u a2\n      : @2 (gas: 4)\n    14: a1 = a1 + a0\n    17: i32 a1 = a1 + 0x1f\n    20: a1 = a1 & 0xffffffffffffffe0\n    23: jump @7 if a1 >=u 65537\n      : @3 (gas: 2)\n    29: a3 = i32 [0x20010]\n    34: jump @5 if a3 >=u a1\n      : @4 (gas: 4)\n    37: u32 [0x20010] = a1\n    42: a1 = 0x20020\n    47: a0 = a0 + a1\n    50: ret\n      : @5 (gas: 3)\n    52: a1 = 0x20020\n    57: a0 = a0 + a1\n    60: ret\n      : @6 (gas: 1)\n    62: trap\n      : @7 (gas: 1)\n    63: trap\n      : @8 [@dyn 1] (gas: 100)\n    64: a1 = u8 [a0 + 0x1]\n    67: a2 = u8 [a0]\n    69: a3 = u8 [a0 + 0x2]\n    72: a4 = u8 [a0 + 0x3]\n    75: a1 = a1 << 0x8\n    78: a1 = a1 | a2\n    81: a3 = a3 << 0x10\n    84: a4 = a4 << 0x18\n    87: a3 = a3 | a4\n    90: a1 = a1 | a3\n    93: a2 = u8 [a0 + 0x5]\n    96: a3 = u8 [a0 + 0x4]\n    99: a4 = u8 [a0 + 0x6]\n   102: a5 = u8 [a0 + 0x7]\n   105: a2 = a2 << 0x8\n   108: a2 = a2 | a3\n   111: a4 = a4 << 0x10\n   114: a5 = a5 << 0x18\n   117: a4 = a4 | a5\n   120: a2 = a2 | a4\n   123: a2 = a2 << 0x20\n   126: t0 = a2 | a1\n   129: a2 = u8 [a0 + 0x9]\n   132: a3 = u8 [a0 + 0x8]\n   135: a4 = u8 [a0 + 0xa]\n   138: a5 = u8 [a0 + 0xb]\n   141: a2 = a2 << 0x8\n   144: a2 = a2 | a3\n   147: a4 = a4 << 0x10\n   150: a5 = a5 << 0x18\n   153: a4 = a4 | a5\n   156: a2 = a2 | a4\n   159: a3 = u8 [a0 + 0xd]\n   162: a4 = u8 [a0 + 0xc]\n   165: a5 = u8 [a0 + 0xe]\n   168: a1 = u8 [a0 + 0xf]\n   171: a3 = a3 << 0x8\n   174: a3 = a3 | a4\n   177: a5 = a5 << 0x10\n   180: a1 = a1 << 0x18\n   183: a1 = a1 | a5\n   186: a1 = a1 | a3\n   189: a1 = a1 << 0x20\n   192: t1 = a1 | a2\n   195: a1 = u8 [a0 + 0x11]\n   198: a3 = u8 [a0 + 0x10]\n   201: a4 = u8 [a0 + 0x12]\n   204: a5 = u8 [a0 + 0x13]\n   207: a1 = a1 << 0x8\n   210: a1 = a1 | a3\n   213: a4 = a4 << 0x10\n   216: a5 = a5 << 0x18\n   219: a4 = a4 | a5\n   222: a1 = a1 | a4\n   225: a3 = u8 [a0 + 0x15]\n   228: a4 = u8 [a0 + 0x14]\n   231: a5 = u8 [a0 + 0x16]\n   234: a2 = u8 [a0 + 0x17]\n   237: a3 = a3 << 0x8\n   240: a3 = a3 | a4\n   243: a5 = a5 << 0x10\n   246: a2 = a2 << 0x18\n   249: a2 = a2 | a5\n   252: a2 = a2 | a3\n   255: a2 = a2 << 0x20\n   258: a3 = a2 | a1\n   261: a1 = u8 [a0 + 0x19]\n   264: a2 = u8 [a0 + 0x18]\n   267: a4 = u8 [a0 + 0x1a]\n   270: a5 = u8 [a0 + 0x1b]\n   273: a1 = a1 << 0x8\n   276: a1 = a1 | a2\n   279: a4 = a4 << 0x10\n   282: a5 = a5 << 0x18\n   285: a4 = a4 | a5\n   288: a1 = a1 | a4\n   291: a2 = u8 [a0 + 0x1d]\n   294: a4 = u8 [a0 + 0x1c]\n   297: a5 = u8 [a0 + 0x1e]\n   300: a0 = u8 [a0 + 0x1f]\n   303: a2 = a2 << 0x8\n   306: a2 = a2 | a4\n   309: a5 = a5 << 0x10\n   312: a0 = a0 << 0x18\n   315: a0 = a0 | a5\n   318: a0 = a0 | a2\n   321: a0 = a0 << 0x20\n   324: a0 = a0 | a1\n   327: a0 = reverse a0\n   329: a1 = reverse a3\n   331: a2 = reverse t1\n   333: a3 = reverse t0\n   335: u64 [s0 + 0x18] = a3\n   338: u64 [s0 + 0x10] = a2\n   341: u64 [s0 + 0x8] = a1\n   344: u64 [s0] = a0\n   346: ra = u64 [sp + 0x8]\n   349: s0 = u64 [sp]\n   351: sp = sp + 0x10\n   354: ret\n      : @9 (gas: 13)\n   356: sp = sp + 0xffffffffffffffd8\n   359: u64 [sp + 0x20] = ra\n   362: u64 [sp + 0x18] = s0\n   365: u64 [sp + 0x10] = s1\n   368: a2 = u64 [a1]\n   370: u64 [sp + 0x8] = a2\n   373: a2 = u64 [a1 + 0x8]\n   376: u64 [sp] = a2\n   378: s0 = u64 [a1 + 0x10]\n   381: s1 = u64 [a1 + 0x18]\n   384: i32 a0 = a0 + 0\n   386: a1 = 0x20\n   389: ra = 4, jump @0\n      : @10 [@dyn 2] (gas: 71)\n   394: a1 = reverse s1\n   396: a2 = reverse s0\n   398: a3 = u64 [sp]\n   400: a3 = reverse a3\n   402: a4 = u64 [sp + 0x8]\n   405: a4 = reverse a4\n   407: u8 [a0 + 0x18] = a4\n   410: u8 [a0 + 0x10] = a3\n   413: u8 [a0 + 0x8] = a2\n   416: u8 [a0] = a1\n   418: a5 = a4 >> 0x38\n   421: u8 [a0 + 0x1f] = a5\n   424: a5 = a4 >> 0x30\n   427: u8 [a0 + 0x1e] = a5\n   430: a5 = a4 >> 0x28\n   433: u8 [a0 + 0x1d] = a5\n   436: a5 = a4 >> 0x20\n   439: u8 [a0 + 0x1c] = a5\n   442: a5 = a4 >> 0x18\n   445: u8 [a0 + 0x1b] = a5\n   448: a5 = a4 >> 0x10\n   451: u8 [a0 + 0x1a] = a5\n   454: a4 = a4 >> 0x8\n   457: u8 [a0 + 0x19] = a4\n   460: a4 = a3 >> 0x38\n   463: u8 [a0 + 0x17] = a4\n   466: a4 = a3 >> 0x30\n   469: u8 [a0 + 0x16] = a4\n   472: a4 = a3 >> 0x28\n   475: u8 [a0 + 0x15] = a4\n   478: a4 = a3 >> 0x20\n   481: u8 [a0 + 0x14] = a4\n   484: a4 = a3 >> 0x18\n   487: u8 [a0 + 0x13] = a4\n   490: a4 = a3 >> 0x10\n   493: u8 [a0 + 0x12] = a4\n   496: a3 = a3 >> 0x8\n   499: u8 [a0 + 0x11] = a3\n   502: a3 = a2 >> 0x38\n   505: u8 [a0 + 0xf] = a3\n   508: a3 = a2 >> 0x30\n   511: u8 [a0 + 0xe] = a3\n   514: a3 = a2 >> 0x28\n   517: u8 [a0 + 0xd] = a3\n   520: a3 = a2 >> 0x20\n   523: u8 [a0 + 0xc] = a3\n   526: a3 = a2 >> 0x18\n   529: u8 [a0 + 0xb] = a3\n   532: a3 = a2 >> 0x10\n   535: u8 [a0 + 0xa] = a3\n   538: a2 = a2 >> 0x8\n   541: u8 [a0 + 0x9] = a2\n   544: a2 = a1 >> 0x38\n   547: u8 [a0 + 0x7] = a2\n   550: a2 = a1 >> 0x30\n   553: u8 [a0 + 0x6] = a2\n   556: a2 = a1 >> 0x28\n   559: u8 [a0 + 0x5] = a2\n   562: a2 = a1 >> 0x20\n   565: u8 [a0 + 0x4] = a2\n   568: a2 = a1 >> 0x18\n   571: u8 [a0 + 0x3] = a2\n   574: a2 = a1 >> 0x10\n   577: u8 [a0 + 0x2] = a2\n   580: a1 = a1 >> 0x8\n   583: u8 [a0 + 0x1] = a1\n   586: ra = u64 [sp + 0x20]\n   589: s0 = u64 [sp + 0x18]\n   592: s1 = u64 [sp + 0x10]\n   595: sp = sp + 0x28\n   598: ret\n      : @11 (gas: 40)\n   600: sp = sp + 0xffffffffffffffa0\n   603: u64 [sp + 0x58] = ra\n   606: u64 [sp + 0x50] = s0\n   609: u64 [sp + 0x48] = s1\n   612: s0 = sp + 0x60\n   615: sp = sp & 0xffffffffffffffe0\n   618: s1 = a0\n   620: a0 = u64 [a2 + 0x18]\n   623: a3 = u64 [a2 + 0x10]\n   626: a4 = u64 [a2 + 0x8]\n   629: a2 = u64 [a2]\n   631: u64 [sp + 0x18] = a0\n   634: u64 [sp + 0x10] = a3\n   637: u64 [sp + 0x8] = a4\n   640: u64 [sp] = a2\n   642: u64 [sp + 56] = 0\n   645: u64 [sp + 48] = 0\n   648: u64 [sp + 40] = 0\n   651: u64 [sp + 32] = 0\n   654: u32 [sp + 64] = 0x20\n   658: a0 = 0\n   660: i32 a1 = sp + 0\n   662: i32 a3 = sp + 0x20\n   665: i32 a4 = sp + 0x40\n   668: a2 = 0xffffffffffffffff\n   671: ecalli 4 // 'get_storage'\n   673: a0 = u64 [sp + 0x38]\n   676: a1 = u64 [sp + 0x30]\n   679: a2 = u64 [sp + 0x28]\n   682: a3 = u64 [sp + 0x20]\n   685: u64 [s1 + 0x18] = a0\n   688: u64 [s1 + 0x10] = a1\n   691: u64 [s1 + 0x8] = a2\n   694: u64 [s1] = a3\n   696: sp = s0 + 0xffffffffffffffa0\n   699: ra = u64 [sp + 0x58]\n   702: s0 = u64 [sp + 0x50]\n   705: s1 = u64 [sp + 0x48]\n   708: sp = sp + 0x60\n   711: ret\n      : @12 (gas: 32)\n   713: sp = sp + 0xffffffffffffffa0\n   716: u64 [sp + 0x58] = ra\n   719: u64 [sp + 0x50] = s0\n   722: s0 = sp + 0x60\n   725: sp = sp & 0xffffffffffffffe0\n   728: t0 = u64 [a2]\n   730: t1 = u64 [a2 + 0x8]\n   733: t2 = u64 [a2 + 0x10]\n   736: a2 = u64 [a2 + 0x18]\n   739: a3 = u64 [a1 + 0x18]\n   742: a4 = u64 [a1 + 0x10]\n   745: a5 = u64 [a1 + 0x8]\n   748: a1 = u64 [a1]\n   750: u64 [sp + 0x18] = a3\n   753: u64 [sp + 0x10] = a4\n   756: u64 [sp + 0x8] = a5\n   759: u64 [sp] = a1\n   761: u64 [sp + 0x38] = a2\n   764: u64 [sp + 0x30] = t2\n   767: u64 [sp + 0x28] = t1\n   770: u64 [sp + 0x20] = t0\n   773: a0 = 0\n   775: i32 a1 = sp + 0\n   777: i32 a3 = sp + 0x20\n   780: a2 = 0xffffffffffffffff\n   783: a4 = 0x20\n   786: ecalli 9 // 'set_storage'\n   788: sp = s0 + 0xffffffffffffffa0\n   791: ra = u64 [sp + 0x58]\n   794: s0 = u64 [sp + 0x50]\n   797: sp = sp + 0x60\n   800: ret\n      : @13 (gas: 6)\n   802: sp = sp + 0xfffffffffffffff0\n   805: u64 [sp + 0x8] = ra\n   808: u64 [sp] = s0\n   810: s0 = a0 & 0x1\n   813: ecalli 2 // 'call_data_size'\n   815: fallthrough\n      : @14 (gas: 2)\n   816: u32 [0x20014] = a0\n   821: jump @16 if s0 == 0\n      : @15 (gas: 1)\n   824: ra = 6, jump @17\n      : @16 [@dyn 3] (gas: 1)\n   828: ra = 8, jump @28\n      : @17 [@dyn 4] (gas: 8)\n   833: sp = sp + 0xffffffffffffffc0\n   836: u64 [sp + 0x38] = ra\n   839: u64 [sp + 0x30] = s0\n   842: s0 = sp + 0x40\n   845: sp = sp & 0xffffffffffffffe0\n   848: a0 = 0x40\n   851: a1 = 0x20\n   854: ra = 10, jump @0\n      : @18 [@dyn 5] (gas: 39)\n   859: u8 [a0 + 31] = 0x80\n   864: u8 [a0 + 30] = 0\n   867: u8 [a0 + 29] = 0\n   870: u8 [a0 + 28] = 0\n   873: u8 [a0 + 27] = 0\n   876: u8 [a0 + 26] = 0\n   879: u8 [a0 + 25] = 0\n   882: u8 [a0 + 24] = 0\n   885: u8 [a0 + 23] = 0\n   888: u8 [a0 + 22] = 0\n   891: u8 [a0 + 21] = 0\n   894: u8 [a0 + 20] = 0\n   897: u8 [a0 + 19] = 0\n   900: u8 [a0 + 18] = 0\n   903: u8 [a0 + 17] = 0\n   906: u8 [a0 + 16] = 0\n   909: u8 [a0 + 15] = 0\n   912: u8 [a0 + 14] = 0\n   915: u8 [a0 + 13] = 0\n   918: u8 [a0 + 12] = 0\n   921: u8 [a0 + 11] = 0\n   924: u8 [a0 + 10] = 0\n   927: u8 [a0 + 9] = 0\n   930: u8 [a0 + 8] = 0\n   933: u8 [a0 + 7] = 0\n   936: u8 [a0 + 6] = 0\n   939: u8 [a0 + 5] = 0\n   942: u8 [a0 + 4] = 0\n   945: u8 [a0 + 3] = 0\n   948: u8 [a0 + 2] = 0\n   951: u8 [a0 + 1] = 0\n   954: u8 [a0 + 0] = 0\n   956: u64 [sp + 24] = 0\n   959: u64 [sp + 0] = 0\n   961: u64 [sp + 8] = 0\n   964: u64 [sp + 16] = 0\n   967: i32 a0 = sp + 0\n   969: ecalli 10 // 'value_transferred'\n   971: fallthrough\n      : @19 (gas: 8)\n   972: a0 = u64 [sp + 0x10]\n   975: a1 = u64 [sp + 0x18]\n   978: a2 = u64 [sp + 0x8]\n   981: a3 = u64 [sp]\n   983: a1 = a1 | a2\n   986: a0 = a0 | a3\n   989: a0 = a0 | a1\n   992: jump @22 if a0 == 0\n      : @20 (gas: 3)\n   995: a0 = 0\n   997: a1 = 0\n   999: ra = 12, jump @0\n      : @21 [@dyn 6] (gas: 5)\n  1004: i32 a1 = a0 + 0\n  1006: a0 = 0x1\n  1009: a2 = 0\n  1011: ecalli 7 // 'seal_return'\n  1013: fallthrough\n      : @22 (gas: 3)\n  1014: a0 = 0x80\n  1018: a1 = 0\n  1020: ra = 14, jump @0\n      : @23 [@dyn 7] (gas: 5)\n  1025: i32 a0 = a0 + 0\n  1027: a1 = 0\n  1029: a2 = 0\n  1031: ecalli 0 // 'call_data_copy'\n  1032: fallthrough\n      : @24 (gas: 2)\n  1033: a1 = i32 [0x20018]\n  1038: jump @26 if a1 == 0\n      : @25 (gas: 4)\n  1041: a0 = 0x30020\n  1046: i32 a0 = a0 + 0\n  1048: ecalli 8 // 'set_immutable_data'\n  1050: fallthrough\n      : @26 (gas: 3)\n  1051: a0 = 0x80\n  1055: a1 = 0\n  1057: ra = 16, jump @0\n      : @27 [@dyn 8] (gas: 6)\n  1062: i32 a1 = a0 + 0\n  1064: a0 = 0\n  1066: a2 = 0\n  1068: ra = 0x12\n  1071: ecalli 7 // 'seal_return'\n  1073: fallthrough\n      : @28 [@dyn 9] (gas: 10)\n  1074: sp = sp + 0xfffffffffffffb80\n  1078: u64 [sp + 0x478] = ra\n  1082: u64 [sp + 0x470] = s0\n  1086: u64 [sp + 0x468] = s1\n  1090: s0 = sp + 0x480\n  1094: sp = sp & 0xffffffffffffffe0\n  1097: s1 = sp\n  1099: a0 = 0x40\n  1102: a1 = 0x20\n  1105: ra = 20, jump @0\n      : @29 [@dyn 10] (gas: 36)\n  1110: u8 [a0 + 31] = 0x80\n  1115: u8 [a0 + 30] = 0\n  1118: u8 [a0 + 29] = 0\n  1121: u8 [a0 + 28] = 0\n  1124: u8 [a0 + 27] = 0\n  1127: u8 [a0 + 26] = 0\n  1130: u8 [a0 + 25] = 0\n  1133: u8 [a0 + 24] = 0\n  1136: u8 [a0 + 23] = 0\n  1139: u8 [a0 + 22] = 0\n  1142: u8 [a0 + 21] = 0\n  1145: u8 [a0 + 20] = 0\n  1148: u8 [a0 + 19] = 0\n  1151: u8 [a0 + 18] = 0\n  1154: u8 [a0 + 17] = 0\n  1157: u8 [a0 + 16] = 0\n  1160: u8 [a0 + 15] = 0\n  1163: u8 [a0 + 14] = 0\n  1166: u8 [a0 + 13] = 0\n  1169: u8 [a0 + 12] = 0\n  1172: u8 [a0 + 11] = 0\n  1175: u8 [a0 + 10] = 0\n  1178: u8 [a0 + 9] = 0\n  1181: u8 [a0 + 8] = 0\n  1184: u8 [a0 + 7] = 0\n  1187: u8 [a0 + 3] = 0\n  1190: a1 = 0x20014\n  1195: u8 [a0 + 2] = 0\n  1198: u8 [a0 + 1] = 0\n  1201: u8 [a0 + 0] = 0\n  1203: u64 [s1 + 0x78] = a1\n  1206: a1 = i32 [0x20014]\n  1211: u8 [a0 + 6] = 0\n  1214: u8 [a0 + 5] = 0\n  1217: u8 [a0 + 4] = 0\n  1220: jump @31 if a1 >=u 4\n      : @30 (gas: 1)\n  1224: jump @116\n      : @31 (gas: 4)\n  1227: i32 a0 = s1 + 0x2e0\n  1231: a1 = 0\n  1233: ecalli 1 // 'call_data_load'\n  1235: fallthrough\n      : @32 (gas: 2)\n  1236: a0 = i32 [s1 + 0x2fc]\n  1240: jump @43 if a0 >s 4078111089\n      : @33 (gas: 1)\n  1248: jump @72 if a0 != 3583923498\n      : @34 (gas: 11)\n  1256: a0 = sp + 0xffffffffffffffe0\n  1259: a0 = a0 & 0xffffffffffffffe0\n  1262: u64 [s1 + 0x70] = a0\n  1265: sp = a0\n  1267: u64 [a0 + 24] = 0\n  1270: u64 [a0 + 16] = 0\n  1273: u64 [a0 + 8] = 0\n  1276: u64 [a0 + 0] = 0\n  1278: i32 a0 = a0 + 0\n  1280: ecalli 10 // 'value_transferred'\n  1282: fallthrough\n      : @35 (gas: 9)\n  1283: a3 = u64 [s1 + 0x70]\n  1286: a0 = u64 [a3 + 0x10]\n  1289: a1 = u64 [a3 + 0x18]\n  1292: a2 = u64 [a3 + 0x8]\n  1295: a3 = u64 [a3]\n  1297: a1 = a1 | a2\n  1300: a0 = a0 | a3\n  1303: a0 = a0 | a1\n  1306: jump @37 if a0 == 0\n      : @36 (gas: 1)\n  1309: jump @116\n      : @37 (gas: 3)\n  1312: a0 = u64 [s1 + 0x78]\n  1315: a0 = i32 [a0]\n  1317: jump @39 if a0 >u 3\n      : @38 (gas: 1)\n  1321: jump @116\n      : @39 (gas: 20)\n  1324: i32 a0 = s1 + 0x360\n  1328: ecalli 3 // 'caller'\n  1330: a0 = u64 [s1 + 0x368]\n  1334: a1 = i32 [s1 + 0x370]\n  1338: a3 = u64 [s1 + 0x360]\n  1342: u64 [s1 + 0x70] = a3\n  1345: a0 = reverse a0\n  1347: a2 = a0 << 0x20\n  1350: a1 = reverse a1\n  1352: a1 = a1 >> 0x20\n  1355: a1 = a1 | a2\n  1358: u64 [s1 + 0x78] = a1\n  1361: a0 = a0 >> 0x20\n  1364: a1 = reverse a3\n  1366: a1 = a1 << 0x20\n  1369: a0 = a0 | a1\n  1372: u64 [s1 + 0x68] = a0\n  1375: a1 = 0x20\n  1378: a0 = 0\n  1380: ra = 22, jump @0\n      : @40 [@dyn 11] (gas: 57)\n  1385: a1 = u64 [s1 + 0x68]\n  1388: a1 = reverse a1\n  1390: a2 = u64 [s1 + 0x78]\n  1393: a2 = reverse a2\n  1395: a4 = u64 [s1 + 0x70]\n  1398: a3 = a4 >> 0x18\n  1401: u8 [a0 + 0xf] = a3\n  1404: a3 = a4 >> 0x10\n  1407: u8 [a0 + 0xe] = a3\n  1410: a3 = a4 >> 0x8\n  1413: u8 [a0 + 0xd] = a3\n  1416: u8 [a0 + 0xc] = a4\n  1419: u8 [a0 + 11] = 0\n  1422: u8 [a0 + 10] = 0\n  1425: u8 [a0 + 9] = 0\n  1428: u8 [a0 + 8] = 0\n  1431: u8 [a0 + 7] = 0\n  1434: u8 [a0 + 6] = 0\n  1437: u8 [a0 + 5] = 0\n  1440: u8 [a0 + 4] = 0\n  1443: u8 [a0 + 3] = 0\n  1446: u8 [a0 + 2] = 0\n  1449: u8 [a0 + 1] = 0\n  1452: u8 [a0 + 0] = 0\n  1454: u8 [a0 + 0x18] = a2\n  1457: u8 [a0 + 0x10] = a1\n  1460: a3 = a2 >> 0x38\n  1463: u8 [a0 + 0x1f] = a3\n  1466: a3 = a2 >> 0x30\n  1469: u8 [a0 + 0x1e] = a3\n  1472: a3 = a2 >> 0x28\n  1475: u8 [a0 + 0x1d] = a3\n  1478: a3 = a2 >> 0x20\n  1481: u8 [a0 + 0x1c] = a3\n  1484: a3 = a2 >> 0x18\n  1487: u8 [a0 + 0x1b] = a3\n  1490: a3 = a2 >> 0x10\n  1493: u8 [a0 + 0x1a] = a3\n  1496: a2 = a2 >> 0x8\n  1499: u8 [a0 + 0x19] = a2\n  1502: a2 = a1 >> 0x38\n  1505: u8 [a0 + 0x17] = a2\n  1508: a2 = a1 >> 0x30\n  1511: u8 [a0 + 0x16] = a2\n  1514: a2 = a1 >> 0x28\n  1517: u8 [a0 + 0x15] = a2\n  1520: a2 = a1 >> 0x20\n  1523: u8 [a0 + 0x14] = a2\n  1526: a2 = a1 >> 0x18\n  1529: u8 [a0 + 0x13] = a2\n  1532: a2 = a1 >> 0x10\n  1535: u8 [a0 + 0x12] = a2\n  1538: a1 = a1 >> 0x8\n  1541: u8 [a0 + 0x11] = a1\n  1544: a0 = 0x20\n  1547: a1 = 0x20\n  1550: ra = 24, jump @0\n      : @41 [@dyn 12] (gas: 35)\n  1555: u8 [a0 + 31] = 0\n  1558: u8 [a0 + 30] = 0\n  1561: u8 [a0 + 29] = 0\n  1564: u8 [a0 + 28] = 0\n  1567: u8 [a0 + 27] = 0\n  1570: u8 [a0 + 26] = 0\n  1573: u8 [a0 + 25] = 0\n  1576: u8 [a0 + 24] = 0\n  1579: u8 [a0 + 23] = 0\n  1582: u8 [a0 + 22] = 0\n  1585: u8 [a0 + 21] = 0\n  1588: u8 [a0 + 20] = 0\n  1591: u8 [a0 + 19] = 0\n  1594: u8 [a0 + 18] = 0\n  1597: u8 [a0 + 17] = 0\n  1600: u8 [a0 + 16] = 0\n  1603: u8 [a0 + 15] = 0\n  1606: u8 [a0 + 14] = 0\n  1609: u8 [a0 + 13] = 0\n  1612: u8 [a0 + 12] = 0\n  1615: u8 [a0 + 11] = 0\n  1618: u8 [a0 + 10] = 0\n  1621: u8 [a0 + 9] = 0\n  1624: u8 [a0 + 8] = 0\n  1627: u8 [a0 + 7] = 0\n  1630: u8 [a0 + 6] = 0\n  1633: u8 [a0 + 5] = 0\n  1636: u8 [a0 + 4] = 0\n  1639: u8 [a0 + 3] = 0\n  1642: u8 [a0 + 2] = 0\n  1645: u8 [a0 + 1] = 0\n  1648: u8 [a0 + 0] = 0\n  1650: a1 = 0x40\n  1653: a0 = 0\n  1655: ra = 26, jump @0\n      : @42 [@dyn 13] (gas: 48)\n  1660: a1 = sp + 0xffffffffffffffe0\n  1663: a1 = a1 & 0xffffffffffffffe0\n  1666: u64 [s1 + 0x78] = a1\n  1669: sp = a1\n  1671: i32 a0 = a0 + 0\n  1673: i32 a2 = a1 + 0\n  1675: a1 = 0x40\n  1678: ecalli 5 // 'hash_keccak_256'\n  1680: a3 = u64 [s1 + 0x78]\n  1683: a0 = u64 [a3]\n  1685: a1 = u64 [a3 + 0x8]\n  1688: a2 = u64 [a3 + 0x10]\n  1691: a3 = u64 [a3 + 0x18]\n  1694: a0 = reverse a0\n  1696: a1 = reverse a1\n  1698: a2 = reverse a2\n  1700: a3 = reverse a3\n  1702: a3 = a3 + 0x1\n  1705: a4 = a3 <u 0x1\n  1708: a2 = a2 + a4\n  1711: a4 = a3 | a2\n  1714: a4 = a4 <u 0x1\n  1717: a4 = a4 + a1\n  1720: a1 = a4 <u a1\n  1723: a0 = a0 + a1\n  1726: u64 [s1 + 0x420] = a3\n  1730: u64 [s1 + 0x428] = a2\n  1734: u64 [s1 + 0x430] = a4\n  1738: u64 [s1 + 0x438] = a0\n  1742: u64 [s1 + 1112] = 0\n  1746: u64 [s1 + 1104] = 0\n  1750: u64 [s1 + 1096] = 0\n  1754: u64 [s1 + 1088] = 0\n  1758: u32 [s1 + 1024] = 0x20\n  1763: i32 a1 = s1 + 0x420\n  1767: i32 a3 = s1 + 0x440\n  1771: i32 a4 = s1 + 0x400\n  1775: a2 = 0xffffffffffffffff\n  1778: a0 = 0\n  1780: ecalli 4 // 'get_storage'\n  1782: a0 = u64 [s1 + 0x458]\n  1786: u64 [s1 + 0x60] = a0\n  1789: a0 = u64 [s1 + 0x450]\n  1793: u64 [s1 + 0x68] = a0\n  1796: a0 = u64 [s1 + 0x448]\n  1800: u64 [s1 + 0x70] = a0\n  1803: a0 = u64 [s1 + 0x440]\n  1807: jump @78\n      : @43 (gas: 1)\n  1810: jump @81 if a0 != 4078111090\n      : @44 (gas: 11)\n  1818: a0 = sp + 0xffffffffffffffe0\n  1821: a0 = a0 & 0xffffffffffffffe0\n  1824: u64 [s1 + 0x70] = a0\n  1827: sp = a0\n  1829: u64 [a0 + 24] = 0\n  1832: u64 [a0 + 16] = 0\n  1835: u64 [a0 + 8] = 0\n  1838: u64 [a0 + 0] = 0\n  1840: i32 a0 = a0 + 0\n  1842: ecalli 10 // 'value_transferred'\n  1844: fallthrough\n      : @45 (gas: 9)\n  1845: a3 = u64 [s1 + 0x70]\n  1848: a0 = u64 [a3 + 0x10]\n  1851: a1 = u64 [a3 + 0x18]\n  1854: a2 = u64 [a3 + 0x8]\n  1857: a3 = u64 [a3]\n  1859: a1 = a1 | a2\n  1862: a0 = a0 | a3\n  1865: a0 = a0 | a1\n  1868: jump @47 if a0 == 0\n      : @46 (gas: 1)\n  1871: jump @116\n      : @47 (gas: 3)\n  1874: a0 = u64 [s1 + 0x78]\n  1877: a0 = i32 [a0]\n  1879: jump @49 if a0 >u 35\n      : @48 (gas: 1)\n  1883: jump @116\n      : @49 (gas: 20)\n  1886: i32 a0 = s1 + 0x380\n  1890: ecalli 3 // 'caller'\n  1892: a0 = u64 [s1 + 0x388]\n  1896: a1 = i32 [s1 + 0x390]\n  1900: a3 = u64 [s1 + 0x380]\n  1904: u64 [s1 + 0x70] = a3\n  1907: a0 = reverse a0\n  1909: a2 = a0 << 0x20\n  1912: a1 = reverse a1\n  1914: a1 = a1 >> 0x20\n  1917: a1 = a1 | a2\n  1920: u64 [s1 + 0x78] = a1\n  1923: a0 = a0 >> 0x20\n  1926: a1 = reverse a3\n  1928: a1 = a1 << 0x20\n  1931: a0 = a0 | a1\n  1934: u64 [s1 + 0x68] = a0\n  1937: a1 = 0x20\n  1940: a0 = 0\n  1942: ra = 28, jump @0\n      : @50 [@dyn 14] (gas: 57)\n  1947: a1 = u64 [s1 + 0x68]\n  1950: a1 = reverse a1\n  1952: a2 = u64 [s1 + 0x78]\n  1955: a2 = reverse a2\n  1957: a4 = u64 [s1 + 0x70]\n  1960: a3 = a4 >> 0x18\n  1963: u8 [a0 + 0xf] = a3\n  1966: a3 = a4 >> 0x10\n  1969: u8 [a0 + 0xe] = a3\n  1972: a3 = a4 >> 0x8\n  1975: u8 [a0 + 0xd] = a3\n  1978: u8 [a0 + 0xc] = a4\n  1981: u8 [a0 + 11] = 0\n  1984: u8 [a0 + 10] = 0\n  1987: u8 [a0 + 9] = 0\n  1990: u8 [a0 + 8] = 0\n  1993: u8 [a0 + 7] = 0\n  1996: u8 [a0 + 6] = 0\n  1999: u8 [a0 + 5] = 0\n  2002: u8 [a0 + 4] = 0\n  2005: u8 [a0 + 3] = 0\n  2008: u8 [a0 + 2] = 0\n  2011: u8 [a0 + 1] = 0\n  2014: u8 [a0 + 0] = 0\n  2016: u8 [a0 + 0x18] = a2\n  2019: u8 [a0 + 0x10] = a1\n  2022: a3 = a2 >> 0x38\n  2025: u8 [a0 + 0x1f] = a3\n  2028: a3 = a2 >> 0x30\n  2031: u8 [a0 + 0x1e] = a3\n  2034: a3 = a2 >> 0x28\n  2037: u8 [a0 + 0x1d] = a3\n  2040: a3 = a2 >> 0x20\n  2043: u8 [a0 + 0x1c] = a3\n  2046: a3 = a2 >> 0x18\n  2049: u8 [a0 + 0x1b] = a3\n  2052: a3 = a2 >> 0x10\n  2055: u8 [a0 + 0x1a] = a3\n  2058: a2 = a2 >> 0x8\n  2061: u8 [a0 + 0x19] = a2\n  2064: a2 = a1 >> 0x38\n  2067: u8 [a0 + 0x17] = a2\n  2070: a2 = a1 >> 0x30\n  2073: u8 [a0 + 0x16] = a2\n  2076: a2 = a1 >> 0x28\n  2079: u8 [a0 + 0x15] = a2\n  2082: a2 = a1 >> 0x20\n  2085: u8 [a0 + 0x14] = a2\n  2088: a2 = a1 >> 0x18\n  2091: u8 [a0 + 0x13] = a2\n  2094: a2 = a1 >> 0x10\n  2097: u8 [a0 + 0x12] = a2\n  2100: a1 = a1 >> 0x8\n  2103: u8 [a0 + 0x11] = a1\n  2106: a0 = 0x20\n  2109: a1 = 0x20\n  2112: ra = 30, jump @0\n      : @51 [@dyn 15] (gas: 35)\n  2117: u8 [a0 + 31] = 0\n  2120: u8 [a0 + 30] = 0\n  2123: u8 [a0 + 29] = 0\n  2126: u8 [a0 + 28] = 0\n  2129: u8 [a0 + 27] = 0\n  2132: u8 [a0 + 26] = 0\n  2135: u8 [a0 + 25] = 0\n  2138: u8 [a0 + 24] = 0\n  2141: u8 [a0 + 23] = 0\n  2144: u8 [a0 + 22] = 0\n  2147: u8 [a0 + 21] = 0\n  2150: u8 [a0 + 20] = 0\n  2153: u8 [a0 + 19] = 0\n  2156: u8 [a0 + 18] = 0\n  2159: u8 [a0 + 17] = 0\n  2162: u8 [a0 + 16] = 0\n  2165: u8 [a0 + 15] = 0\n  2168: u8 [a0 + 14] = 0\n  2171: u8 [a0 + 13] = 0\n  2174: u8 [a0 + 12] = 0\n  2177: u8 [a0 + 11] = 0\n  2180: u8 [a0 + 10] = 0\n  2183: u8 [a0 + 9] = 0\n  2186: u8 [a0 + 8] = 0\n  2189: u8 [a0 + 7] = 0\n  2192: u8 [a0 + 6] = 0\n  2195: u8 [a0 + 5] = 0\n  2198: u8 [a0 + 4] = 0\n  2201: u8 [a0 + 3] = 0\n  2204: u8 [a0 + 2] = 0\n  2207: u8 [a0 + 1] = 0\n  2210: u8 [a0 + 0] = 0\n  2212: a1 = 0x40\n  2215: a0 = 0\n  2217: ra = 32, jump @0\n      : @52 [@dyn 16] (gas: 41)\n  2222: a1 = sp + 0xffffffffffffffe0\n  2225: a1 = a1 & 0xffffffffffffffe0\n  2228: u64 [s1 + 0x78] = a1\n  2231: sp = a1\n  2233: i32 a0 = a0 + 0\n  2235: i32 a2 = a1 + 0\n  2237: a1 = 0x40\n  2240: ecalli 5 // 'hash_keccak_256'\n  2242: a3 = u64 [s1 + 0x78]\n  2245: a0 = u64 [a3]\n  2247: a1 = u64 [a3 + 0x8]\n  2250: a2 = u64 [a3 + 0x10]\n  2253: a3 = u64 [a3 + 0x18]\n  2256: a0 = reverse a0\n  2258: a1 = reverse a1\n  2260: a2 = reverse a2\n  2262: a3 = reverse a3\n  2264: a4 = a3 + 0x2\n  2267: a3 = a4 <u a3\n  2270: a5 = a2 + a3\n  2273: a2 = a5 <u a2\n  2276: a2 = a3 if a3 == 0\n  2279: a2 = a2 + a1\n  2282: a1 = a2 <u a1\n  2285: a0 = a0 + a1\n  2288: u64 [s1 + 0x420] = a4\n  2292: u64 [s1 + 0x428] = a5\n  2296: u64 [s1 + 0x430] = a2\n  2300: u64 [s1 + 0x438] = a0\n  2304: u64 [s1 + 1112] = 0\n  2308: u64 [s1 + 1104] = 0\n  2312: u64 [s1 + 1096] = 0\n  2316: u64 [s1 + 1088] = 0\n  2320: u32 [s1 + 1024] = 0x20\n  2325: i32 a1 = s1 + 0x420\n  2329: i32 a3 = s1 + 0x440\n  2333: i32 a4 = s1 + 0x400\n  2337: a2 = 0xffffffffffffffff\n  2340: a0 = 0\n  2342: ecalli 4 // 'get_storage'\n  2344: fallthrough\n      : @53 (gas: 2)\n  2345: a0 = u8 [s1 + 0x440]\n  2349: jump @55 if a0 == 0\n      : @54 (gas: 1)\n  2352: jump @99\n      : @55 (gas: 2)\n  2355: a0 = s1 + 0x2c0\n  2359: ra = 34, jump @137\n      : @56 [@dyn 17] (gas: 12)\n  2364: a0 = u64 [s1 + 0x2d8]\n  2368: u64 [s1 + 0x68] = a0\n  2371: a0 = u64 [s1 + 0x2d0]\n  2375: u64 [s1 + 0x60] = a0\n  2378: a0 = u64 [s1 + 0x2c8]\n  2382: u64 [s1 + 0x70] = a0\n  2385: a0 = u64 [s1 + 0x2c0]\n  2389: u64 [s1 + 0x78] = a0\n  2392: i32 a0 = s1 + 0x3a0\n  2396: a1 = 0x4\n  2399: ecalli 1 // 'call_data_load'\n  2401: fallthrough\n      : @57 (gas: 12)\n  2402: a0 = u64 [s1 + 0x68]\n  2405: a1 = u64 [s1 + 0x70]\n  2408: a0 = a0 | a1\n  2411: a2 = u64 [s1 + 0x60]\n  2414: a1 = u64 [s1 + 0x78]\n  2417: a1 = a1 | a2\n  2420: a1 = a1 | a0\n  2423: a1 = a1 >> 0x20\n  2426: a0 = a0 | a2\n  2429: a0 = a0 << 0x20\n  2432: a0 = a0 | a1\n  2435: jump @80 if a0 != 0\n      : @58 (gas: 12)\n  2439: a0 = u64 [s1 + 0x3a0]\n  2443: u64 [s1 + 0x58] = a0\n  2446: a0 = u64 [s1 + 0x3a8]\n  2450: u64 [s1 + 0x50] = a0\n  2453: a0 = u64 [s1 + 0x3b0]\n  2457: u64 [s1 + 0x48] = a0\n  2460: a0 = u64 [s1 + 0x3b8]\n  2464: u64 [s1 + 0x40] = a0\n  2467: a0 = i32 [s1 + 0x78]\n  2470: a1 = 0x20\n  2473: u64 [s1 + 0x38] = a0\n  2476: ra = 36, jump @0\n      : @59 [@dyn 18] (gas: 71)\n  2481: a1 = u64 [s1 + 0x40]\n  2484: a1 = reverse a1\n  2486: a2 = u64 [s1 + 0x48]\n  2489: a2 = reverse a2\n  2491: a3 = u64 [s1 + 0x50]\n  2494: a3 = reverse a3\n  2496: a4 = u64 [s1 + 0x58]\n  2499: a4 = reverse a4\n  2501: a5 = a4 >> 0x38\n  2504: u8 [a0 + 0x1f] = a5\n  2507: a5 = a4 >> 0x30\n  2510: u8 [a0 + 0x1e] = a5\n  2513: a5 = a4 >> 0x28\n  2516: u8 [a0 + 0x1d] = a5\n  2519: a5 = a4 >> 0x20\n  2522: u8 [a0 + 0x1c] = a5\n  2525: a5 = a4 >> 0x18\n  2528: u8 [a0 + 0x1b] = a5\n  2531: a5 = a4 >> 0x10\n  2534: u8 [a0 + 0x1a] = a5\n  2537: a5 = a4 >> 0x8\n  2540: u8 [a0 + 0x19] = a5\n  2543: u8 [a0 + 0x18] = a4\n  2546: a4 = a3 >> 0x38\n  2549: u8 [a0 + 0x17] = a4\n  2552: a4 = a3 >> 0x30\n  2555: u8 [a0 + 0x16] = a4\n  2558: a4 = a3 >> 0x28\n  2561: u8 [a0 + 0x15] = a4\n  2564: a4 = a3 >> 0x20\n  2567: u8 [a0 + 0x14] = a4\n  2570: a4 = a3 >> 0x18\n  2573: u8 [a0 + 0x13] = a4\n  2576: a4 = a3 >> 0x10\n  2579: u8 [a0 + 0x12] = a4\n  2582: a4 = a3 >> 0x8\n  2585: u8 [a0 + 0x11] = a4\n  2588: u8 [a0 + 0x10] = a3\n  2591: a3 = a2 >> 0x38\n  2594: u8 [a0 + 0xf] = a3\n  2597: a3 = a2 >> 0x30\n  2600: u8 [a0 + 0xe] = a3\n  2603: a3 = a2 >> 0x28\n  2606: u8 [a0 + 0xd] = a3\n  2609: a3 = a2 >> 0x20\n  2612: u8 [a0 + 0xc] = a3\n  2615: a3 = a2 >> 0x18\n  2618: u8 [a0 + 0xb] = a3\n  2621: a3 = a2 >> 0x10\n  2624: u8 [a0 + 0xa] = a3\n  2627: a3 = a2 >> 0x8\n  2630: u8 [a0 + 0x9] = a3\n  2633: u8 [a0 + 0x8] = a2\n  2636: a2 = a1 >> 0x38\n  2639: u8 [a0 + 0x7] = a2\n  2642: a2 = a1 >> 0x30\n  2645: u8 [a0 + 0x6] = a2\n  2648: a2 = a1 >> 0x28\n  2651: u8 [a0 + 0x5] = a2\n  2654: a2 = a1 >> 0x20\n  2657: u8 [a0 + 0x4] = a2\n  2660: a2 = a1 >> 0x18\n  2663: u8 [a0 + 0x3] = a2\n  2666: a2 = a1 >> 0x10\n  2669: u8 [a0 + 0x2] = a2\n  2672: a2 = a1 >> 0x8\n  2675: u8 [a0 + 0x1] = a2\n  2678: u8 [a0] = a1\n  2680: i32 a0 = s1 + 0x3c0\n  2684: ecalli 6 // 'now'\n  2686: fallthrough\n      : @60 (gas: 11)\n  2687: a0 = u64 [s1 + 0x68]\n  2690: a1 = u64 [s1 + 0x60]\n  2693: a2 = a1 | a0\n  2696: a3 = 0x100000000\n  2706: a0 = 0xffffffe0\n  2716: a1 = u64 [s1 + 0x78]\n  2719: a0 = a1 <u a0\n  2722: a1 = u64 [s1 + 0x70]\n  2725: a0 = 0 if a1 != 0\n  2727: a0 = 0 if a2 != 0\n  2729: jump @80 if a0 == 0\n      : @61 (gas: 15)\n  2733: a0 = u64 [s1 + 0x3c0]\n  2737: u64 [s1 + 0x58] = a0\n  2740: a0 = u64 [s1 + 0x3c8]\n  2744: u64 [s1 + 0x50] = a0\n  2747: a0 = u64 [s1 + 0x3d0]\n  2751: u64 [s1 + 0x48] = a0\n  2754: a0 = u64 [s1 + 0x3d8]\n  2758: u64 [s1 + 0x40] = a0\n  2761: a0 = u64 [s1 + 0x38]\n  2764: i32 a0 = a0 + 0x20\n  2767: a1 = 0x20\n  2770: u64 [s1 + 0x30] = a0\n  2773: u64 [s1 + 0x68] = a2\n  2776: u64 [s1 + 0x60] = a3\n  2779: ra = 38, jump @0\n      : @62 [@dyn 19] (gas: 77)\n  2784: a1 = u64 [s1 + 0x40]\n  2787: a1 = reverse a1\n  2789: a2 = u64 [s1 + 0x48]\n  2792: a2 = reverse a2\n  2794: a3 = u64 [s1 + 0x50]\n  2797: a3 = reverse a3\n  2799: a4 = u64 [s1 + 0x58]\n  2802: a4 = reverse a4\n  2804: a5 = a4 >> 0x38\n  2807: u8 [a0 + 0x1f] = a5\n  2810: a5 = a4 >> 0x30\n  2813: u8 [a0 + 0x1e] = a5\n  2816: a5 = a4 >> 0x28\n  2819: u8 [a0 + 0x1d] = a5\n  2822: a5 = a4 >> 0x20\n  2825: u8 [a0 + 0x1c] = a5\n  2828: a5 = a4 >> 0x18\n  2831: u8 [a0 + 0x1b] = a5\n  2834: a5 = a4 >> 0x10\n  2837: u8 [a0 + 0x1a] = a5\n  2840: a5 = a4 >> 0x8\n  2843: u8 [a0 + 0x19] = a5\n  2846: u8 [a0 + 0x18] = a4\n  2849: a4 = a3 >> 0x38\n  2852: u8 [a0 + 0x17] = a4\n  2855: a4 = a3 >> 0x30\n  2858: u8 [a0 + 0x16] = a4\n  2861: a4 = a3 >> 0x28\n  2864: u8 [a0 + 0x15] = a4\n  2867: a4 = a3 >> 0x20\n  2870: u8 [a0 + 0x14] = a4\n  2873: a4 = a3 >> 0x18\n  2876: u8 [a0 + 0x13] = a4\n  2879: a4 = a3 >> 0x10\n  2882: u8 [a0 + 0x12] = a4\n  2885: a4 = a3 >> 0x8\n  2888: u8 [a0 + 0x11] = a4\n  2891: u8 [a0 + 0x10] = a3\n  2894: a3 = a2 >> 0x38\n  2897: u8 [a0 + 0xf] = a3\n  2900: a3 = a2 >> 0x30\n  2903: u8 [a0 + 0xe] = a3\n  2906: a3 = a2 >> 0x28\n  2909: u8 [a0 + 0xd] = a3\n  2912: a3 = a2 >> 0x20\n  2915: u8 [a0 + 0xc] = a3\n  2918: a3 = a2 >> 0x18\n  2921: u8 [a0 + 0xb] = a3\n  2924: a3 = a2 >> 0x10\n  2927: u8 [a0 + 0xa] = a3\n  2930: a3 = a2 >> 0x8\n  2933: u8 [a0 + 0x9] = a3\n  2936: u8 [a0 + 0x8] = a2\n  2939: a2 = a1 >> 0x38\n  2942: u8 [a0 + 0x7] = a2\n  2945: a2 = a1 >> 0x30\n  2948: u8 [a0 + 0x6] = a2\n  2951: a2 = a1 >> 0x28\n  2954: u8 [a0 + 0x5] = a2\n  2957: a2 = a1 >> 0x20\n  2960: u8 [a0 + 0x4] = a2\n  2963: a2 = a1 >> 0x18\n  2966: u8 [a0 + 0x3] = a2\n  2969: a2 = a1 >> 0x10\n  2972: u8 [a0 + 0x2] = a2\n  2975: a2 = a1 >> 0x8\n  2978: u8 [a0 + 0x1] = a2\n  2981: a2 = u64 [s1 + 0x60]\n  2984: a2 = a2 + 0xffffffffffffffc0\n  2987: a3 = u64 [s1 + 0x78]\n  2990: a2 = a3 <u a2\n  2993: a3 = u64 [s1 + 0x70]\n  2996: a2 = 0 if a3 != 0\n  2998: a3 = u64 [s1 + 0x68]\n  3001: a2 = 0 if a3 != 0\n  3003: u8 [a0] = a1\n  3005: jump @80 if a2 == 0\n      : @63 (gas: 5)\n  3009: a0 = u64 [s1 + 0x38]\n  3012: i32 a0 = a0 + 0x40\n  3015: u64 [s1 + 0x50] = a0\n  3018: a1 = 0x20\n  3021: ra = 40, jump @0\n      : @64 [@dyn 20] (gas: 52)\n  3026: u8 [a0 + 31] = 0x1\n  3030: u8 [a0 + 30] = 0\n  3033: u8 [a0 + 29] = 0\n  3036: u8 [a0 + 28] = 0\n  3039: u8 [a0 + 27] = 0\n  3042: u8 [a0 + 26] = 0\n  3045: u8 [a0 + 25] = 0\n  3048: u8 [a0 + 24] = 0\n  3051: u8 [a0 + 23] = 0\n  3054: u8 [a0 + 22] = 0\n  3057: u8 [a0 + 21] = 0\n  3060: u8 [a0 + 20] = 0\n  3063: u8 [a0 + 19] = 0\n  3066: u8 [a0 + 18] = 0\n  3069: u8 [a0 + 17] = 0\n  3072: u8 [a0 + 16] = 0\n  3075: u8 [a0 + 15] = 0\n  3078: u8 [a0 + 14] = 0\n  3081: u8 [a0 + 13] = 0\n  3084: u8 [a0 + 12] = 0\n  3087: u8 [a0 + 11] = 0\n  3090: u8 [a0 + 10] = 0\n  3093: u8 [a0 + 9] = 0\n  3096: u8 [a0 + 8] = 0\n  3099: u8 [a0 + 7] = 0\n  3102: u8 [a0 + 6] = 0\n  3105: u8 [a0 + 5] = 0\n  3108: u8 [a0 + 4] = 0\n  3111: u8 [a0 + 3] = 0\n  3114: u8 [a0 + 2] = 0\n  3117: u8 [a0 + 1] = 0\n  3120: u8 [a0 + 0] = 0\n  3122: i32 a0 = s1 + 0x3e0\n  3126: ecalli 3 // 'caller'\n  3128: a0 = u64 [s1 + 0x3e8]\n  3132: a1 = i32 [s1 + 0x3f0]\n  3136: a3 = u64 [s1 + 0x3e0]\n  3140: u64 [s1 + 0x70] = a3\n  3143: a0 = reverse a0\n  3145: a2 = a0 << 0x20\n  3148: a1 = reverse a1\n  3150: a1 = a1 >> 0x20\n  3153: a1 = a1 | a2\n  3156: u64 [s1 + 0x78] = a1\n  3159: a0 = a0 >> 0x20\n  3162: a1 = reverse a3\n  3164: a1 = a1 << 0x20\n  3167: a0 = a0 | a1\n  3170: u64 [s1 + 0x68] = a0\n  3173: a1 = 0x20\n  3176: a0 = 0\n  3178: ra = 42, jump @0\n      : @65 [@dyn 21] (gas: 57)\n  3183: a1 = u64 [s1 + 0x68]\n  3186: a1 = reverse a1\n  3188: a2 = u64 [s1 + 0x78]\n  3191: a2 = reverse a2\n  3193: a4 = u64 [s1 + 0x70]\n  3196: a3 = a4 >> 0x18\n  3199: u8 [a0 + 0xf] = a3\n  3202: a3 = a4 >> 0x10\n  3205: u8 [a0 + 0xe] = a3\n  3208: a3 = a4 >> 0x8\n  3211: u8 [a0 + 0xd] = a3\n  3214: u8 [a0 + 0xc] = a4\n  3217: u8 [a0 + 11] = 0\n  3220: u8 [a0 + 10] = 0\n  3223: u8 [a0 + 9] = 0\n  3226: u8 [a0 + 8] = 0\n  3229: u8 [a0 + 7] = 0\n  3232: u8 [a0 + 6] = 0\n  3235: u8 [a0 + 5] = 0\n  3238: u8 [a0 + 4] = 0\n  3241: u8 [a0 + 3] = 0\n  3244: u8 [a0 + 2] = 0\n  3247: u8 [a0 + 1] = 0\n  3250: u8 [a0 + 0] = 0\n  3252: u8 [a0 + 0x18] = a2\n  3255: u8 [a0 + 0x10] = a1\n  3258: a3 = a2 >> 0x38\n  3261: u8 [a0 + 0x1f] = a3\n  3264: a3 = a2 >> 0x30\n  3267: u8 [a0 + 0x1e] = a3\n  3270: a3 = a2 >> 0x28\n  3273: u8 [a0 + 0x1d] = a3\n  3276: a3 = a2 >> 0x20\n  3279: u8 [a0 + 0x1c] = a3\n  3282: a3 = a2 >> 0x18\n  3285: u8 [a0 + 0x1b] = a3\n  3288: a3 = a2 >> 0x10\n  3291: u8 [a0 + 0x1a] = a3\n  3294: a2 = a2 >> 0x8\n  3297: u8 [a0 + 0x19] = a2\n  3300: a2 = a1 >> 0x38\n  3303: u8 [a0 + 0x17] = a2\n  3306: a2 = a1 >> 0x30\n  3309: u8 [a0 + 0x16] = a2\n  3312: a2 = a1 >> 0x28\n  3315: u8 [a0 + 0x15] = a2\n  3318: a2 = a1 >> 0x20\n  3321: u8 [a0 + 0x14] = a2\n  3324: a2 = a1 >> 0x18\n  3327: u8 [a0 + 0x13] = a2\n  3330: a2 = a1 >> 0x10\n  3333: u8 [a0 + 0x12] = a2\n  3336: a1 = a1 >> 0x8\n  3339: u8 [a0 + 0x11] = a1\n  3342: a0 = 0x20\n  3345: a1 = 0x20\n  3348: ra = 44, jump @0\n      : @66 [@dyn 22] (gas: 35)\n  3353: u8 [a0 + 31] = 0\n  3356: u8 [a0 + 30] = 0\n  3359: u8 [a0 + 29] = 0\n  3362: u8 [a0 + 28] = 0\n  3365: u8 [a0 + 27] = 0\n  3368: u8 [a0 + 26] = 0\n  3371: u8 [a0 + 25] = 0\n  3374: u8 [a0 + 24] = 0\n  3377: u8 [a0 + 23] = 0\n  3380: u8 [a0 + 22] = 0\n  3383: u8 [a0 + 21] = 0\n  3386: u8 [a0 + 20] = 0\n  3389: u8 [a0 + 19] = 0\n  3392: u8 [a0 + 18] = 0\n  3395: u8 [a0 + 17] = 0\n  3398: u8 [a0 + 16] = 0\n  3401: u8 [a0 + 15] = 0\n  3404: u8 [a0 + 14] = 0\n  3407: u8 [a0 + 13] = 0\n  3410: u8 [a0 + 12] = 0\n  3413: u8 [a0 + 11] = 0\n  3416: u8 [a0 + 10] = 0\n  3419: u8 [a0 + 9] = 0\n  3422: u8 [a0 + 8] = 0\n  3425: u8 [a0 + 7] = 0\n  3428: u8 [a0 + 6] = 0\n  3431: u8 [a0 + 5] = 0\n  3434: u8 [a0 + 4] = 0\n  3437: u8 [a0 + 3] = 0\n  3440: u8 [a0 + 2] = 0\n  3443: u8 [a0 + 1] = 0\n  3446: u8 [a0 + 0] = 0\n  3448: a1 = 0x40\n  3451: a0 = 0\n  3453: ra = 46, jump @0\n      : @67 [@dyn 23] (gas: 24)\n  3458: a1 = sp + 0xffffffffffffffe0\n  3461: a1 = a1 & 0xffffffffffffffe0\n  3464: u64 [s1 + 0x78] = a1\n  3467: sp = a1\n  3469: i32 a0 = a0 + 0\n  3471: i32 a2 = a1 + 0\n  3473: a1 = 0x40\n  3476: ecalli 5 // 'hash_keccak_256'\n  3478: a3 = u64 [s1 + 0x78]\n  3481: a0 = u64 [a3 + 0x18]\n  3484: a1 = u64 [a3 + 0x10]\n  3487: a2 = u64 [a3 + 0x8]\n  3490: a3 = u64 [a3]\n  3492: a0 = reverse a0\n  3494: u64 [s1 + 0x68] = a0\n  3497: a0 = reverse a1\n  3499: u64 [s1 + 0x70] = a0\n  3502: a0 = reverse a2\n  3504: u64 [s1 + 0x60] = a0\n  3507: a0 = reverse a3\n  3509: u64 [s1 + 0x78] = a0\n  3512: a1 = 0x20\n  3515: a0 = u64 [s1 + 0x38]\n  3518: ra = 48, jump @0\n      : @68 [@dyn 24] (gas: 113)\n  3523: a1 = u8 [a0 + 0x1]\n  3526: a2 = u8 [a0]\n  3528: a3 = u8 [a0 + 0x2]\n  3531: a4 = u8 [a0 + 0x3]\n  3534: a1 = a1 << 0x8\n  3537: a1 = a1 | a2\n  3540: a3 = a3 << 0x10\n  3543: a4 = a4 << 0x18\n  3546: a3 = a3 | a4\n  3549: a1 = a1 | a3\n  3552: a2 = u8 [a0 + 0x5]\n  3555: a3 = u8 [a0 + 0x4]\n  3558: a4 = u8 [a0 + 0x6]\n  3561: a5 = u8 [a0 + 0x7]\n  3564: a2 = a2 << 0x8\n  3567: a2 = a2 | a3\n  3570: a4 = a4 << 0x10\n  3573: a5 = a5 << 0x18\n  3576: a4 = a4 | a5\n  3579: a2 = a2 | a4\n  3582: a2 = a2 << 0x20\n  3585: t0 = a2 | a1\n  3588: a2 = u8 [a0 + 0x9]\n  3591: a3 = u8 [a0 + 0x8]\n  3594: a4 = u8 [a0 + 0xa]\n  3597: a5 = u8 [a0 + 0xb]\n  3600: a2 = a2 << 0x8\n  3603: a2 = a2 | a3\n  3606: a4 = a4 << 0x10\n  3609: a5 = a5 << 0x18\n  3612: a4 = a4 | a5\n  3615: a2 = a2 | a4\n  3618: a3 = u8 [a0 + 0xd]\n  3621: a4 = u8 [a0 + 0xc]\n  3624: a5 = u8 [a0 + 0xe]\n  3627: a1 = u8 [a0 + 0xf]\n  3630: a3 = a3 << 0x8\n  3633: a3 = a3 | a4\n  3636: a5 = a5 << 0x10\n  3639: a1 = a1 << 0x18\n  3642: a1 = a1 | a5\n  3645: a1 = a1 | a3\n  3648: a1 = a1 << 0x20\n  3651: t1 = a1 | a2\n  3654: a1 = u8 [a0 + 0x11]\n  3657: a3 = u8 [a0 + 0x10]\n  3660: a4 = u8 [a0 + 0x12]\n  3663: a5 = u8 [a0 + 0x13]\n  3666: a1 = a1 << 0x8\n  3669: a1 = a1 | a3\n  3672: a4 = a4 << 0x10\n  3675: a5 = a5 << 0x18\n  3678: a4 = a4 | a5\n  3681: a1 = a1 | a4\n  3684: a3 = u8 [a0 + 0x15]\n  3687: a4 = u8 [a0 + 0x14]\n  3690: a5 = u8 [a0 + 0x16]\n  3693: a2 = u8 [a0 + 0x17]\n  3696: a3 = a3 << 0x8\n  3699: a3 = a3 | a4\n  3702: a5 = a5 << 0x10\n  3705: a2 = a2 << 0x18\n  3708: a2 = a2 | a5\n  3711: a2 = a2 | a3\n  3714: a2 = a2 << 0x20\n  3717: a3 = a2 | a1\n  3720: a1 = u8 [a0 + 0x19]\n  3723: a2 = u8 [a0 + 0x18]\n  3726: a4 = u8 [a0 + 0x1a]\n  3729: a5 = u8 [a0 + 0x1b]\n  3732: a1 = a1 << 0x8\n  3735: a1 = a1 | a2\n  3738: a4 = a4 << 0x10\n  3741: a5 = a5 << 0x18\n  3744: a4 = a4 | a5\n  3747: a1 = a1 | a4\n  3750: a2 = u8 [a0 + 0x1d]\n  3753: a4 = u8 [a0 + 0x1c]\n  3756: a5 = u8 [a0 + 0x1e]\n  3759: a0 = u8 [a0 + 0x1f]\n  3762: a2 = a2 << 0x8\n  3765: a2 = a2 | a4\n  3768: a5 = a5 << 0x10\n  3771: a0 = a0 << 0x18\n  3774: a0 = a0 | a5\n  3777: a0 = a0 | a2\n  3780: a0 = a0 << 0x20\n  3783: a0 = a0 | a1\n  3786: a1 = reverse t0\n  3788: u64 [s1 + 0x458] = a1\n  3792: a1 = reverse t1\n  3794: u64 [s1 + 0x450] = a1\n  3798: a1 = reverse a3\n  3800: u64 [s1 + 0x448] = a1\n  3804: a0 = reverse a0\n  3806: u64 [s1 + 0x440] = a0\n  3810: a0 = u64 [s1 + 0x78]\n  3813: u64 [s1 + 0x438] = a0\n  3817: a0 = u64 [s1 + 0x60]\n  3820: u64 [s1 + 0x430] = a0\n  3824: a0 = u64 [s1 + 0x70]\n  3827: u64 [s1 + 0x428] = a0\n  3831: a0 = u64 [s1 + 0x68]\n  3834: u64 [s1 + 0x420] = a0\n  3838: i32 a1 = s1 + 0x420\n  3842: i32 a3 = s1 + 0x440\n  3846: a2 = 0xffffffffffffffff\n  3849: a4 = 0x20\n  3852: a0 = 0\n  3854: ecalli 9 // 'set_storage'\n  3856: a1 = 0x20\n  3859: a0 = u64 [s1 + 0x30]\n  3862: ra = 50, jump @0\n      : @69 [@dyn 25] (gas: 145)\n  3867: a1 = u8 [a0 + 0x1]\n  3870: a2 = u8 [a0]\n  3872: a3 = u8 [a0 + 0x2]\n  3875: a4 = u8 [a0 + 0x3]\n  3878: a1 = a1 << 0x8\n  3881: a1 = a1 | a2\n  3884: a3 = a3 << 0x10\n  3887: a4 = a4 << 0x18\n  3890: a3 = a3 | a4\n  3893: a1 = a1 | a3\n  3896: a2 = u8 [a0 + 0x5]\n  3899: a3 = u8 [a0 + 0x4]\n  3902: a4 = u8 [a0 + 0x6]\n  3905: a5 = u8 [a0 + 0x7]\n  3908: a2 = a2 << 0x8\n  3911: a2 = a2 | a3\n  3914: a4 = a4 << 0x10\n  3917: a5 = a5 << 0x18\n  3920: a4 = a4 | a5\n  3923: a2 = a2 | a4\n  3926: a2 = a2 << 0x20\n  3929: t0 = a2 | a1\n  3932: a2 = u8 [a0 + 0x9]\n  3935: a3 = u8 [a0 + 0x8]\n  3938: a4 = u8 [a0 + 0xa]\n  3941: a5 = u8 [a0 + 0xb]\n  3944: a2 = a2 << 0x8\n  3947: a2 = a2 | a3\n  3950: a4 = a4 << 0x10\n  3953: a5 = a5 << 0x18\n  3956: a4 = a4 | a5\n  3959: a2 = a2 | a4\n  3962: a3 = u8 [a0 + 0xd]\n  3965: a4 = u8 [a0 + 0xc]\n  3968: a5 = u8 [a0 + 0xe]\n  3971: a1 = u8 [a0 + 0xf]\n  3974: a3 = a3 << 0x8\n  3977: a3 = a3 | a4\n  3980: a5 = a5 << 0x10\n  3983: a1 = a1 << 0x18\n  3986: a1 = a1 | a5\n  3989: a1 = a1 | a3\n  3992: a1 = a1 << 0x20\n  3995: t1 = a1 | a2\n  3998: a1 = u8 [a0 + 0x11]\n  4001: a3 = u8 [a0 + 0x10]\n  4004: a4 = u8 [a0 + 0x12]\n  4007: a5 = u8 [a0 + 0x13]\n  4010: a1 = a1 << 0x8\n  4013: a1 = a1 | a3\n  4016: a4 = a4 << 0x10\n  4019: a5 = a5 << 0x18\n  4022: a4 = a4 | a5\n  4025: a1 = a1 | a4\n  4028: a3 = u8 [a0 + 0x15]\n  4031: a4 = u8 [a0 + 0x14]\n  4034: a5 = u8 [a0 + 0x16]\n  4037: a2 = u8 [a0 + 0x17]\n  4040: a3 = a3 << 0x8\n  4043: a3 = a3 | a4\n  4046: a5 = a5 << 0x10\n  4049: a2 = a2 << 0x18\n  4052: a2 = a2 | a5\n  4055: a2 = a2 | a3\n  4058: a2 = a2 << 0x20\n  4061: t2 = a2 | a1\n  4064: a1 = u8 [a0 + 0x19]\n  4067: a2 = u8 [a0 + 0x18]\n  4070: a4 = u8 [a0 + 0x1a]\n  4073: a5 = u8 [a0 + 0x1b]\n  4076: a1 = a1 << 0x8\n  4079: a1 = a1 | a2\n  4082: a4 = a4 << 0x10\n  4085: a5 = a5 << 0x18\n  4088: a4 = a4 | a5\n  4091: a1 = a1 | a4\n  4094: a2 = u8 [a0 + 0x1d]\n  4097: a4 = u8 [a0 + 0x1c]\n  4100: a5 = u8 [a0 + 0x1e]\n  4103: a0 = u8 [a0 + 0x1f]\n  4106: a2 = a2 << 0x8\n  4109: a2 = a2 | a4\n  4112: a5 = a5 << 0x10\n  4115: a0 = a0 << 0x18\n  4118: a0 = a0 | a5\n  4121: a0 = a0 | a2\n  4124: a0 = a0 << 0x20\n  4127: a0 = a0 | a1\n  4130: a1 = u64 [s1 + 0x68]\n  4133: a1 = a1 + 0x1\n  4136: a2 = a1 <u 0x1\n  4139: a3 = u64 [s1 + 0x70]\n  4142: a2 = a2 + a3\n  4145: a4 = a1 | a2\n  4148: a4 = a4 <u 0x1\n  4151: a3 = u64 [s1 + 0x60]\n  4154: a4 = a4 + a3\n  4157: a5 = a4 <u a3\n  4160: a3 = u64 [s1 + 0x78]\n  4163: a5 = a5 + a3\n  4166: u64 [s1 + 0x438] = a5\n  4170: u64 [s1 + 0x430] = a4\n  4174: u64 [s1 + 0x428] = a2\n  4178: u64 [s1 + 0x420] = a1\n  4182: a1 = reverse t0\n  4184: u64 [s1 + 0x458] = a1\n  4188: a1 = reverse t1\n  4190: u64 [s1 + 0x450] = a1\n  4194: a1 = reverse t2\n  4196: u64 [s1 + 0x448] = a1\n  4200: a0 = reverse a0\n  4202: u64 [s1 + 0x440] = a0\n  4206: i32 a1 = s1 + 0x420\n  4210: i32 a3 = s1 + 0x440\n  4214: a2 = 0xffffffffffffffff\n  4217: a4 = 0x20\n  4220: a0 = 0\n  4222: ecalli 9 // 'set_storage'\n  4224: a0 = u64 [s1 + 0x68]\n  4227: a1 = a0 + 0x2\n  4230: u64 [s1 + 0x58] = a1\n  4233: a0 = a1 <u a0\n  4236: a1 = u64 [s1 + 0x70]\n  4239: a2 = a1 + a0\n  4242: u64 [s1 + 0x68] = a2\n  4245: a1 = a2 <u a1\n  4248: a1 = a0 if a0 == 0\n  4251: a0 = u64 [s1 + 0x60]\n  4254: a1 = a1 + a0\n  4257: u64 [s1 + 0x70] = a1\n  4260: a0 = a1 <u a0\n  4263: a1 = u64 [s1 + 0x78]\n  4266: a0 = a0 + a1\n  4269: u64 [s1 + 0x78] = a0\n  4272: a0 = s1 + 0x2a0\n  4276: a1 = u64 [s1 + 0x50]\n  4279: ra = 0x34\n  4282: sp = sp + 0xfffffffffffffff0\n  4285: u64 [sp + 0x8] = ra\n  4288: u64 [sp] = s0\n  4290: s0 = a0\n  4292: i32 a0 = a1 + 0\n  4294: a1 = 0x20\n  4297: ra = 0x2\n  4300: jump @0\n      : @70 [@dyn 26] (gas: 20)\n  4303: a0 = u64 [s1 + 0x2b0]\n  4307: a1 = u64 [s1 + 0x2b8]\n  4311: a2 = u64 [s1 + 0x2a8]\n  4315: a3 = u64 [s1 + 0x2a0]\n  4319: a1 = a1 | a2\n  4322: a0 = a0 | a3\n  4325: a0 = a0 | a1\n  4328: a0 = a0 >u 0\n  4330: u64 [s1 + 0x60] = a0\n  4333: a0 = u64 [s1 + 0x78]\n  4336: u64 [s1 + 0x278] = a0\n  4340: a0 = u64 [s1 + 0x70]\n  4343: u64 [s1 + 0x270] = a0\n  4347: a0 = u64 [s1 + 0x68]\n  4350: u64 [s1 + 0x268] = a0\n  4354: a0 = s1 + 0x280\n  4358: a2 = s1 + 0x260\n  4362: a1 = u64 [s1 + 0x58]\n  4365: u64 [s1 + 0x260] = a1\n  4369: ra = 54, jump @11\n      : @71 [@dyn 27] (gas: 23)\n  4374: a0 = u64 [s1 + 0x288]\n  4378: a1 = u64 [s1 + 0x280]\n  4382: a2 = u64 [s1 + 0x290]\n  4386: a3 = u64 [s1 + 0x298]\n  4390: a1 = a1 & 0xffffffffffffff00\n  4394: a4 = u64 [s1 + 0x60]\n  4397: a4 = a4 | a1\n  4400: u64 [s1 + 0x238] = a3\n  4404: u64 [s1 + 0x230] = a2\n  4408: u64 [s1 + 0x228] = a0\n  4412: a0 = u64 [s1 + 0x78]\n  4415: u64 [s1 + 0x258] = a0\n  4419: a0 = u64 [s1 + 0x70]\n  4422: u64 [s1 + 0x250] = a0\n  4426: a0 = u64 [s1 + 0x68]\n  4429: u64 [s1 + 0x248] = a0\n  4433: a0 = u64 [s1 + 0x58]\n  4436: u64 [s1 + 0x240] = a0\n  4440: a1 = s1 + 0x240\n  4444: a2 = s1 + 0x220\n  4448: u64 [s1 + 0x220] = a4\n  4452: ra = 0x6c\n  4455: jump @12\n      : @72 (gas: 1)\n  4458: jump @116 if a0 != 3971023157\n      : @73 (gas: 11)\n  4466: a0 = sp + 0xffffffffffffffe0\n  4469: a0 = a0 & 0xffffffffffffffe0\n  4472: u64 [s1 + 0x70] = a0\n  4475: sp = a0\n  4477: u64 [a0 + 24] = 0\n  4480: u64 [a0 + 16] = 0\n  4483: u64 [a0 + 8] = 0\n  4486: u64 [a0 + 0] = 0\n  4488: i32 a0 = a0 + 0\n  4490: ecalli 10 // 'value_transferred'\n  4492: fallthrough\n      : @74 (gas: 9)\n  4493: a3 = u64 [s1 + 0x70]\n  4496: a0 = u64 [a3 + 0x10]\n  4499: a1 = u64 [a3 + 0x18]\n  4502: a2 = u64 [a3 + 0x8]\n  4505: a3 = u64 [a3]\n  4507: a1 = a1 | a2\n  4510: a0 = a0 | a3\n  4513: a0 = a0 | a1\n  4516: jump @116 if a0 != 0\n      : @75 (gas: 3)\n  4520: a0 = u64 [s1 + 0x78]\n  4523: a0 = i32 [a0]\n  4525: jump @116 if a0 <=u 3\n      : @76 (gas: 2)\n  4530: a0 = s1 + 0x200\n  4534: ra = 56, jump @145\n      : @77 [@dyn 28] (gas: 8)\n  4539: a0 = u64 [s1 + 0x218]\n  4543: u64 [s1 + 0x60] = a0\n  4546: a0 = u64 [s1 + 0x210]\n  4550: u64 [s1 + 0x68] = a0\n  4553: a0 = u64 [s1 + 0x208]\n  4557: u64 [s1 + 0x70] = a0\n  4560: a0 = u64 [s1 + 0x200]\n  4564: fallthrough\n      : @78 (gas: 4)\n  4565: u64 [s1 + 0x78] = a0\n  4568: a0 = 0x40\n  4571: a1 = 0x20\n  4574: ra = 58, jump @0\n      : @79 [@dyn 29] (gas: 100)\n  4579: a1 = u8 [a0 + 0x11]\n  4582: a2 = u8 [a0 + 0x10]\n  4585: a3 = u8 [a0 + 0x12]\n  4588: a4 = u8 [a0 + 0x13]\n  4591: a1 = a1 << 0x8\n  4594: a1 = a1 | a2\n  4597: a3 = a3 << 0x10\n  4600: a4 = a4 << 0x18\n  4603: a3 = a3 | a4\n  4606: a1 = a1 | a3\n  4609: a2 = u8 [a0 + 0x15]\n  4612: a3 = u8 [a0 + 0x14]\n  4615: a4 = u8 [a0 + 0x16]\n  4618: a5 = u8 [a0 + 0x17]\n  4621: a2 = a2 << 0x8\n  4624: a2 = a2 | a3\n  4627: a4 = a4 << 0x10\n  4630: a5 = a5 << 0x18\n  4633: a4 = a4 | a5\n  4636: a2 = a2 | a4\n  4639: a2 = a2 << 0x20\n  4642: t0 = a2 | a1\n  4645: a2 = u8 [a0 + 0x1]\n  4648: a3 = u8 [a0]\n  4650: a4 = u8 [a0 + 0x2]\n  4653: a5 = u8 [a0 + 0x3]\n  4656: a2 = a2 << 0x8\n  4659: a2 = a2 | a3\n  4662: a4 = a4 << 0x10\n  4665: a5 = a5 << 0x18\n  4668: a4 = a4 | a5\n  4671: a2 = a2 | a4\n  4674: a3 = u8 [a0 + 0x5]\n  4677: a4 = u8 [a0 + 0x4]\n  4680: a5 = u8 [a0 + 0x6]\n  4683: a1 = u8 [a0 + 0x7]\n  4686: a3 = a3 << 0x8\n  4689: a3 = a3 | a4\n  4692: a5 = a5 << 0x10\n  4695: a1 = a1 << 0x18\n  4698: a1 = a1 | a5\n  4701: a1 = a1 | a3\n  4704: a1 = a1 << 0x20\n  4707: t1 = a1 | a2\n  4710: a1 = u8 [a0 + 0x19]\n  4713: a3 = u8 [a0 + 0x18]\n  4716: a4 = u8 [a0 + 0x1a]\n  4719: a5 = u8 [a0 + 0x1b]\n  4722: a1 = a1 << 0x8\n  4725: a1 = a1 | a3\n  4728: a4 = a4 << 0x10\n  4731: a5 = a5 << 0x18\n  4734: a4 = a4 | a5\n  4737: a1 = a1 | a4\n  4740: a3 = u8 [a0 + 0x1d]\n  4743: a4 = u8 [a0 + 0x1c]\n  4746: a5 = u8 [a0 + 0x1e]\n  4749: a2 = u8 [a0 + 0x1f]\n  4752: a3 = a3 << 0x8\n  4755: a3 = a3 | a4\n  4758: a5 = a5 << 0x10\n  4761: a2 = a2 << 0x18\n  4764: a2 = a2 | a5\n  4767: a2 = a2 | a3\n  4770: a2 = a2 << 0x20\n  4773: a3 = a2 | a1\n  4776: a1 = u8 [a0 + 0x9]\n  4779: a2 = u8 [a0 + 0x8]\n  4782: a4 = u8 [a0 + 0xa]\n  4785: a5 = u8 [a0 + 0xb]\n  4788: a1 = a1 << 0x8\n  4791: a1 = a1 | a2\n  4794: a4 = a4 << 0x10\n  4797: a5 = a5 << 0x18\n  4800: a4 = a4 | a5\n  4803: a1 = a1 | a4\n  4806: a2 = u8 [a0 + 0xd]\n  4809: a4 = u8 [a0 + 0xc]\n  4812: a5 = u8 [a0 + 0xe]\n  4815: a0 = u8 [a0 + 0xf]\n  4818: a2 = a2 << 0x8\n  4821: a2 = a2 | a4\n  4824: a5 = a5 << 0x10\n  4827: a0 = a0 << 0x18\n  4830: a0 = a0 | a5\n  4833: a0 = a0 | a2\n  4836: a0 = a0 << 0x20\n  4839: a0 = a0 | a1\n  4842: a1 = reverse a0\n  4844: a0 = reverse a3\n  4846: a2 = reverse t1\n  4848: a3 = reverse t0\n  4850: a2 = a2 | a3\n  4853: a3 = a0 | a1\n  4856: a3 = a3 | a2\n  4859: a3 = a3 >> 0x20\n  4862: a1 = a1 | a2\n  4865: a1 = a1 << 0x20\n  4868: a1 = a1 | a3\n  4871: jump @109 if a1 == 0\n      : @80 (gas: 1)\n  4875: trap\n      : @81 (gas: 1)\n  4876: jump @112 if a0 != 1806196404\n      : @82 (gas: 11)\n  4884: a0 = sp + 0xffffffffffffffe0\n  4887: a0 = a0 & 0xffffffffffffffe0\n  4890: u64 [s1 + 0x70] = a0\n  4893: sp = a0\n  4895: u64 [a0 + 24] = 0\n  4898: u64 [a0 + 16] = 0\n  4901: u64 [a0 + 8] = 0\n  4904: u64 [a0 + 0] = 0\n  4906: i32 a0 = a0 + 0\n  4908: ecalli 10 // 'value_transferred'\n  4910: fallthrough\n      : @83 (gas: 9)\n  4911: a3 = u64 [s1 + 0x70]\n  4914: a0 = u64 [a3 + 0x10]\n  4917: a1 = u64 [a3 + 0x18]\n  4920: a2 = u64 [a3 + 0x8]\n  4923: a3 = u64 [a3]\n  4925: a1 = a1 | a2\n  4928: a0 = a0 | a3\n  4931: a0 = a0 | a1\n  4934: jump @116 if a0 != 0\n      : @84 (gas: 3)\n  4938: a0 = u64 [s1 + 0x78]\n  4941: a0 = i32 [a0]\n  4943: jump @116 if a0 <=u 35\n      : @85 (gas: 4)\n  4948: i32 a0 = s1 + 0x340\n  4952: a1 = 0x4\n  4955: ecalli 1 // 'call_data_load'\n  4957: fallthrough\n      : @86 (gas: 12)\n  4958: a1 = u64 [s1 + 0x350]\n  4962: a2 = u64 [s1 + 0x358]\n  4966: a0 = 0x100000000\n  4976: a0 = a0 ^ a1\n  4979: a0 = a0 | a2\n  4982: u64 [s1 + 0x78] = a1\n  4985: a1 = a1 >> 0x20\n  4988: a1 = a1 <u 0x1\n  4991: u64 [s1 + 0x70] = a2\n  4994: a1 = 0 if a2 != 0\n  4996: a1 = 0 if a0 == 0\n  4998: jump @118 if a1 == 0\n      : @87 (gas: 7)\n  5002: a0 = u64 [s1 + 0x348]\n  5006: u64 [s1 + 0x60] = a0\n  5009: a0 = u64 [s1 + 0x340]\n  5013: u64 [s1 + 0x68] = a0\n  5016: a1 = 0x20\n  5019: a0 = 0\n  5021: ra = 60, jump @0\n      : @88 [@dyn 30] (gas: 71)\n  5026: a1 = u64 [s1 + 0x70]\n  5029: a1 = reverse a1\n  5031: a2 = u64 [s1 + 0x78]\n  5034: a2 = reverse a2\n  5036: a3 = u64 [s1 + 0x60]\n  5039: a3 = reverse a3\n  5041: a4 = u64 [s1 + 0x68]\n  5044: a4 = reverse a4\n  5046: u8 [a0 + 0x18] = a4\n  5049: a5 = a4 >> 0x38\n  5052: u8 [a0 + 0x1f] = a5\n  5055: a5 = a4 >> 0x30\n  5058: u8 [a0 + 0x1e] = a5\n  5061: a5 = a4 >> 0x28\n  5064: u8 [a0 + 0x1d] = a5\n  5067: a5 = a4 >> 0x20\n  5070: u8 [a0 + 0x1c] = a5\n  5073: a5 = a4 >> 0x18\n  5076: u8 [a0 + 0x1b] = a5\n  5079: a5 = a4 >> 0x10\n  5082: u8 [a0 + 0x1a] = a5\n  5085: a4 = a4 >> 0x8\n  5088: u8 [a0 + 0x19] = a4\n  5091: u8 [a0 + 0x10] = a3\n  5094: a4 = a3 >> 0x38\n  5097: u8 [a0 + 0x17] = a4\n  5100: a4 = a3 >> 0x30\n  5103: u8 [a0 + 0x16] = a4\n  5106: a4 = a3 >> 0x28\n  5109: u8 [a0 + 0x15] = a4\n  5112: a4 = a3 >> 0x20\n  5115: u8 [a0 + 0x14] = a4\n  5118: a4 = a3 >> 0x18\n  5121: u8 [a0 + 0x13] = a4\n  5124: a4 = a3 >> 0x10\n  5127: u8 [a0 + 0x12] = a4\n  5130: a3 = a3 >> 0x8\n  5133: u8 [a0 + 0x11] = a3\n  5136: u8 [a0 + 0x8] = a2\n  5139: a3 = a2 >> 0x38\n  5142: u8 [a0 + 0xf] = a3\n  5145: a3 = a2 >> 0x30\n  5148: u8 [a0 + 0xe] = a3\n  5151: a3 = a2 >> 0x28\n  5154: u8 [a0 + 0xd] = a3\n  5157: a3 = a2 >> 0x20\n  5160: u8 [a0 + 0xc] = a3\n  5163: a3 = a2 >> 0x18\n  5166: u8 [a0 + 0xb] = a3\n  5169: a3 = a2 >> 0x10\n  5172: u8 [a0 + 0xa] = a3\n  5175: a2 = a2 >> 0x8\n  5178: u8 [a0 + 0x9] = a2\n  5181: u8 [a0] = a1\n  5183: a2 = a1 >> 0x38\n  5186: u8 [a0 + 0x7] = a2\n  5189: a2 = a1 >> 0x30\n  5192: u8 [a0 + 0x6] = a2\n  5195: a2 = a1 >> 0x28\n  5198: u8 [a0 + 0x5] = a2\n  5201: a2 = a1 >> 0x20\n  5204: u8 [a0 + 0x4] = a2\n  5207: a2 = a1 >> 0x18\n  5210: u8 [a0 + 0x3] = a2\n  5213: a2 = a1 >> 0x10\n  5216: u8 [a0 + 0x2] = a2\n  5219: a1 = a1 >> 0x8\n  5222: u8 [a0 + 0x1] = a1\n  5225: a0 = 0x20\n  5228: a1 = 0x20\n  5231: ra = 62, jump @0\n      : @89 [@dyn 31] (gas: 35)\n  5236: u8 [a0 + 31] = 0\n  5239: u8 [a0 + 30] = 0\n  5242: u8 [a0 + 29] = 0\n  5245: u8 [a0 + 28] = 0\n  5248: u8 [a0 + 27] = 0\n  5251: u8 [a0 + 26] = 0\n  5254: u8 [a0 + 25] = 0\n  5257: u8 [a0 + 24] = 0\n  5260: u8 [a0 + 23] = 0\n  5263: u8 [a0 + 22] = 0\n  5266: u8 [a0 + 21] = 0\n  5269: u8 [a0 + 20] = 0\n  5272: u8 [a0 + 19] = 0\n  5275: u8 [a0 + 18] = 0\n  5278: u8 [a0 + 17] = 0\n  5281: u8 [a0 + 16] = 0\n  5284: u8 [a0 + 15] = 0\n  5287: u8 [a0 + 14] = 0\n  5290: u8 [a0 + 13] = 0\n  5293: u8 [a0 + 12] = 0\n  5296: u8 [a0 + 11] = 0\n  5299: u8 [a0 + 10] = 0\n  5302: u8 [a0 + 9] = 0\n  5305: u8 [a0 + 8] = 0\n  5308: u8 [a0 + 7] = 0\n  5311: u8 [a0 + 6] = 0\n  5314: u8 [a0 + 5] = 0\n  5317: u8 [a0 + 4] = 0\n  5320: u8 [a0 + 3] = 0\n  5323: u8 [a0 + 2] = 0\n  5326: u8 [a0 + 1] = 0\n  5329: u8 [a0 + 0] = 0\n  5331: a1 = 0x40\n  5334: a0 = 0\n  5336: ra = 64, jump @0\n      : @90 [@dyn 32] (gas: 111)\n  5341: a1 = sp + 0xffffffffffffffe0\n  5344: a1 = a1 & 0xffffffffffffffe0\n  5347: u64 [s1 + 0x78] = a1\n  5350: sp = a1\n  5352: i32 a0 = a0 + 0\n  5354: i32 a2 = a1 + 0\n  5356: a1 = 0x40\n  5359: ecalli 5 // 'hash_keccak_256'\n  5361: a3 = u64 [s1 + 0x78]\n  5364: a0 = u64 [a3 + 0x18]\n  5367: a1 = u64 [a3 + 0x10]\n  5370: a2 = u64 [a3 + 0x8]\n  5373: a3 = u64 [a3]\n  5375: a4 = reverse a0\n  5377: u64 [s1 + 0x68] = a4\n  5380: a1 = reverse a1\n  5382: u64 [s1 + 0x70] = a1\n  5385: a2 = reverse a2\n  5387: u64 [s1 + 0x60] = a2\n  5390: a0 = reverse a3\n  5392: u64 [s1 + 0x78] = a0\n  5395: u64 [s1 + 0x438] = a0\n  5399: u64 [s1 + 0x430] = a2\n  5403: u64 [s1 + 0x428] = a1\n  5407: u64 [s1 + 0x420] = a4\n  5411: u64 [s1 + 1112] = 0\n  5415: u64 [s1 + 1104] = 0\n  5419: u64 [s1 + 1096] = 0\n  5423: u64 [s1 + 1088] = 0\n  5427: u32 [s1 + 1024] = 0x20\n  5432: i32 a1 = s1 + 0x420\n  5436: i32 a3 = s1 + 0x440\n  5440: i32 a4 = s1 + 0x400\n  5444: a2 = 0xffffffffffffffff\n  5447: a0 = 0\n  5449: ecalli 4 // 'get_storage'\n  5451: a0 = u64 [s1 + 0x68]\n  5454: a0 = a0 + 0x1\n  5457: a1 = a0 <u 0x1\n  5460: a2 = u64 [s1 + 0x70]\n  5463: a1 = a1 + a2\n  5466: a2 = a0 | a1\n  5469: a2 = a2 <u 0x1\n  5472: a3 = u64 [s1 + 0x60]\n  5475: a2 = a2 + a3\n  5478: a3 = a2 <u a3\n  5481: a4 = u64 [s1 + 0x78]\n  5484: a3 = a3 + a4\n  5487: u64 [s1 + 0x438] = a3\n  5491: a3 = u64 [s1 + 0x458]\n  5495: u64 [s1 + 0x58] = a3\n  5498: u64 [s1 + 0x430] = a2\n  5502: a2 = u64 [s1 + 0x450]\n  5506: u64 [s1 + 0x50] = a2\n  5509: u64 [s1 + 0x428] = a1\n  5513: a1 = u64 [s1 + 0x448]\n  5517: u64 [s1 + 0x48] = a1\n  5520: u64 [s1 + 0x420] = a0\n  5524: a0 = u64 [s1 + 0x440]\n  5528: u64 [s1 + 0x40] = a0\n  5531: u64 [s1 + 1112] = 0\n  5535: u64 [s1 + 1104] = 0\n  5539: u64 [s1 + 1096] = 0\n  5543: u64 [s1 + 1088] = 0\n  5547: u32 [s1 + 1024] = 0x20\n  5552: i32 a1 = s1 + 0x420\n  5556: i32 a3 = s1 + 0x440\n  5560: i32 a4 = s1 + 0x400\n  5564: a2 = 0xffffffffffffffff\n  5567: a0 = 0\n  5569: ecalli 4 // 'get_storage'\n  5571: a1 = u64 [s1 + 0x68]\n  5574: a0 = a1 + 0x2\n  5577: a1 = a0 <u a1\n  5580: a3 = u64 [s1 + 0x70]\n  5583: a2 = a3 + a1\n  5586: a3 = a2 <u a3\n  5589: a3 = a1 if a1 == 0\n  5592: a1 = u64 [s1 + 0x60]\n  5595: a3 = a3 + a1\n  5598: a1 = a3 <u a1\n  5601: a4 = u64 [s1 + 0x78]\n  5604: a1 = a1 + a4\n  5607: u64 [s1 + 0x438] = a1\n  5611: u64 [s1 + 0x430] = a3\n  5615: a1 = u64 [s1 + 0x458]\n  5619: u64 [s1 + 0x78] = a1\n  5622: u64 [s1 + 0x428] = a2\n  5626: a1 = u64 [s1 + 0x450]\n  5630: u64 [s1 + 0x70] = a1\n  5633: u64 [s1 + 0x420] = a0\n  5637: a0 = u64 [s1 + 0x448]\n  5641: u64 [s1 + 0x68] = a0\n  5644: u32 [s1 + 1024] = 0x20\n  5649: a0 = u64 [s1 + 0x440]\n  5653: u64 [s1 + 0x60] = a0\n  5656: u64 [s1 + 1112] = 0\n  5660: u64 [s1 + 1104] = 0\n  5664: u64 [s1 + 1096] = 0\n  5668: u64 [s1 + 1088] = 0\n  5672: i32 a1 = s1 + 0x420\n  5676: i32 a3 = s1 + 0x440\n  5680: i32 a4 = s1 + 0x400\n  5684: a2 = 0xffffffffffffffff\n  5687: a0 = 0\n  5689: ecalli 4 // 'get_storage'\n  5691: a0 = u64 [s1 + 0x440]\n  5695: u64 [s1 + 0x28] = a0\n  5698: a0 = 0x40\n  5701: a1 = 0x20\n  5704: ra = 66, jump @0\n      : @91 [@dyn 33] (gas: 100)\n  5709: a1 = u8 [a0 + 0x11]\n  5712: a2 = u8 [a0 + 0x10]\n  5715: a3 = u8 [a0 + 0x12]\n  5718: a4 = u8 [a0 + 0x13]\n  5721: a1 = a1 << 0x8\n  5724: a1 = a1 | a2\n  5727: a3 = a3 << 0x10\n  5730: a4 = a4 << 0x18\n  5733: a3 = a3 | a4\n  5736: a1 = a1 | a3\n  5739: a2 = u8 [a0 + 0x15]\n  5742: a3 = u8 [a0 + 0x14]\n  5745: a4 = u8 [a0 + 0x16]\n  5748: a5 = u8 [a0 + 0x17]\n  5751: a2 = a2 << 0x8\n  5754: a2 = a2 | a3\n  5757: a4 = a4 << 0x10\n  5760: a5 = a5 << 0x18\n  5763: a4 = a4 | a5\n  5766: a2 = a2 | a4\n  5769: a2 = a2 << 0x20\n  5772: t0 = a2 | a1\n  5775: a2 = u8 [a0 + 0x1]\n  5778: a3 = u8 [a0]\n  5780: a4 = u8 [a0 + 0x2]\n  5783: a5 = u8 [a0 + 0x3]\n  5786: a2 = a2 << 0x8\n  5789: a2 = a2 | a3\n  5792: a4 = a4 << 0x10\n  5795: a5 = a5 << 0x18\n  5798: a4 = a4 | a5\n  5801: a2 = a2 | a4\n  5804: a3 = u8 [a0 + 0x5]\n  5807: a4 = u8 [a0 + 0x4]\n  5810: a5 = u8 [a0 + 0x6]\n  5813: a1 = u8 [a0 + 0x7]\n  5816: a3 = a3 << 0x8\n  5819: a3 = a3 | a4\n  5822: a5 = a5 << 0x10\n  5825: a1 = a1 << 0x18\n  5828: a1 = a1 | a5\n  5831: a1 = a1 | a3\n  5834: a1 = a1 << 0x20\n  5837: t1 = a1 | a2\n  5840: a1 = u8 [a0 + 0x19]\n  5843: a3 = u8 [a0 + 0x18]\n  5846: a4 = u8 [a0 + 0x1a]\n  5849: a5 = u8 [a0 + 0x1b]\n  5852: a1 = a1 << 0x8\n  5855: a1 = a1 | a3\n  5858: a4 = a4 << 0x10\n  5861: a5 = a5 << 0x18\n  5864: a4 = a4 | a5\n  5867: a1 = a1 | a4\n  5870: a3 = u8 [a0 + 0x1d]\n  5873: a4 = u8 [a0 + 0x1c]\n  5876: a5 = u8 [a0 + 0x1e]\n  5879: a2 = u8 [a0 + 0x1f]\n  5882: a3 = a3 << 0x8\n  5885: a3 = a3 | a4\n  5888: a5 = a5 << 0x10\n  5891: a2 = a2 << 0x18\n  5894: a2 = a2 | a5\n  5897: a2 = a2 | a3\n  5900: a2 = a2 << 0x20\n  5903: a3 = a2 | a1\n  5906: a1 = u8 [a0 + 0x9]\n  5909: a2 = u8 [a0 + 0x8]\n  5912: a4 = u8 [a0 + 0xa]\n  5915: a5 = u8 [a0 + 0xb]\n  5918: a1 = a1 << 0x8\n  5921: a1 = a1 | a2\n  5924: a4 = a4 << 0x10\n  5927: a5 = a5 << 0x18\n  5930: a4 = a4 | a5\n  5933: a1 = a1 | a4\n  5936: a2 = u8 [a0 + 0xd]\n  5939: a4 = u8 [a0 + 0xc]\n  5942: a5 = u8 [a0 + 0xe]\n  5945: a0 = u8 [a0 + 0xf]\n  5948: a2 = a2 << 0x8\n  5951: a2 = a2 | a4\n  5954: a5 = a5 << 0x10\n  5957: a0 = a0 << 0x18\n  5960: a0 = a0 | a5\n  5963: a0 = a0 | a2\n  5966: a0 = a0 << 0x20\n  5969: a0 = a0 | a1\n  5972: a4 = reverse a0\n  5974: a2 = reverse a3\n  5976: a5 = reverse t1\n  5978: a3 = reverse t0\n  5980: a0 = a3 | a5\n  5983: a1 = a2 | a4\n  5986: a1 = a1 | a0\n  5989: a1 = a1 >> 0x20\n  5992: a0 = a0 | a4\n  5995: a0 = a0 << 0x20\n  5998: a0 = a0 | a1\n  6001: jump @80 if a0 != 0\n      : @92 (gas: 8)\n  6005: i32 a0 = a2 + 0\n  6007: a1 = 0x20\n  6010: u64 [s1 + 0x10] = a0\n  6013: u64 [s1 + 0x38] = a2\n  6016: u64 [s1 + 0x30] = a3\n  6019: u64 [s1 + 0x20] = a4\n  6022: u64 [s1 + 0x18] = a5\n  6025: ra = 68, jump @0\n      : @93 [@dyn 34] (gas: 79)\n  6030: a1 = u64 [s1 + 0x58]\n  6033: a1 = reverse a1\n  6035: a2 = u64 [s1 + 0x50]\n  6038: a2 = reverse a2\n  6040: a3 = u64 [s1 + 0x48]\n  6043: a3 = reverse a3\n  6045: a4 = u64 [s1 + 0x40]\n  6048: a4 = reverse a4\n  6050: a5 = a4 >> 0x38\n  6053: u8 [a0 + 0x1f] = a5\n  6056: a5 = a4 >> 0x30\n  6059: u8 [a0 + 0x1e] = a5\n  6062: a5 = a4 >> 0x28\n  6065: u8 [a0 + 0x1d] = a5\n  6068: a5 = a4 >> 0x20\n  6071: u8 [a0 + 0x1c] = a5\n  6074: a5 = a4 >> 0x18\n  6077: u8 [a0 + 0x1b] = a5\n  6080: a5 = a4 >> 0x10\n  6083: u8 [a0 + 0x1a] = a5\n  6086: a5 = a4 >> 0x8\n  6089: u8 [a0 + 0x19] = a5\n  6092: u8 [a0 + 0x18] = a4\n  6095: u8 [a0 + 0x10] = a3\n  6098: a4 = a3 >> 0x38\n  6101: u8 [a0 + 0x17] = a4\n  6104: a4 = a3 >> 0x30\n  6107: u8 [a0 + 0x16] = a4\n  6110: a4 = a3 >> 0x28\n  6113: u8 [a0 + 0x15] = a4\n  6116: a4 = a3 >> 0x20\n  6119: u8 [a0 + 0x14] = a4\n  6122: a4 = a3 >> 0x18\n  6125: u8 [a0 + 0x13] = a4\n  6128: a4 = a3 >> 0x10\n  6131: u8 [a0 + 0x12] = a4\n  6134: a3 = a3 >> 0x8\n  6137: u8 [a0 + 0x11] = a3\n  6140: u8 [a0 + 0x8] = a2\n  6143: a3 = a2 >> 0x38\n  6146: u8 [a0 + 0xf] = a3\n  6149: a3 = a2 >> 0x30\n  6152: u8 [a0 + 0xe] = a3\n  6155: a3 = a2 >> 0x28\n  6158: u8 [a0 + 0xd] = a3\n  6161: a3 = a2 >> 0x20\n  6164: u8 [a0 + 0xc] = a3\n  6167: a3 = a2 >> 0x18\n  6170: u8 [a0 + 0xb] = a3\n  6173: a3 = a2 >> 0x10\n  6176: u8 [a0 + 0xa] = a3\n  6179: t0 = u64 [s1 + 0x30]\n  6182: a2 = a2 >> 0x8\n  6185: u8 [a0 + 0x9] = a2\n  6188: u8 [a0] = a1\n  6190: a2 = a1 >> 0x38\n  6193: u8 [a0 + 0x7] = a2\n  6196: a2 = a1 >> 0x30\n  6199: u8 [a0 + 0x6] = a2\n  6202: a2 = a1 >> 0x28\n  6205: u8 [a0 + 0x5] = a2\n  6208: a2 = a1 >> 0x20\n  6211: u8 [a0 + 0x4] = a2\n  6214: a2 = a1 >> 0x18\n  6217: u8 [a0 + 0x3] = a2\n  6220: a2 = a1 >> 0x10\n  6223: u8 [a0 + 0x2] = a2\n  6226: a1 = a1 >> 0x8\n  6229: a2 = u64 [s1 + 0x20]\n  6232: a4 = u64 [s1 + 0x18]\n  6235: a4 = a4 | a2\n  6238: a5 = 0x100000000\n  6248: a2 = 0xffffffe0\n  6258: a3 = u64 [s1 + 0x38]\n  6261: a2 = a3 <u a2\n  6264: a2 = 0 if t0 != 0\n  6266: a2 = 0 if a4 != 0\n  6268: u8 [a0 + 0x1] = a1\n  6271: jump @80 if a2 == 0\n      : @94 (gas: 6)\n  6275: a0 = u64 [s1 + 0x10]\n  6278: i32 a0 = a0 + 0x20\n  6281: a1 = 0x20\n  6284: u64 [s1 + 0x58] = a4\n  6287: u64 [s1 + 0x50] = a5\n  6290: ra = 70, jump @0\n      : @95 [@dyn 35] (gas: 77)\n  6295: a1 = u64 [s1 + 0x78]\n  6298: a1 = reverse a1\n  6300: a2 = u64 [s1 + 0x70]\n  6303: a2 = reverse a2\n  6305: a3 = u64 [s1 + 0x68]\n  6308: a3 = reverse a3\n  6310: a4 = u64 [s1 + 0x60]\n  6313: a4 = reverse a4\n  6315: a5 = a4 >> 0x38\n  6318: u8 [a0 + 0x1f] = a5\n  6321: a5 = a4 >> 0x30\n  6324: u8 [a0 + 0x1e] = a5\n  6327: a5 = a4 >> 0x28\n  6330: u8 [a0 + 0x1d] = a5\n  6333: a5 = a4 >> 0x20\n  6336: u8 [a0 + 0x1c] = a5\n  6339: a5 = a4 >> 0x18\n  6342: u8 [a0 + 0x1b] = a5\n  6345: a5 = a4 >> 0x10\n  6348: u8 [a0 + 0x1a] = a5\n  6351: a5 = a4 >> 0x8\n  6354: u8 [a0 + 0x19] = a5\n  6357: u8 [a0 + 0x18] = a4\n  6360: u8 [a0 + 0x10] = a3\n  6363: a4 = a3 >> 0x38\n  6366: u8 [a0 + 0x17] = a4\n  6369: a4 = a3 >> 0x30\n  6372: u8 [a0 + 0x16] = a4\n  6375: a4 = a3 >> 0x28\n  6378: u8 [a0 + 0x15] = a4\n  6381: a4 = a3 >> 0x20\n  6384: u8 [a0 + 0x14] = a4\n  6387: a4 = a3 >> 0x18\n  6390: u8 [a0 + 0x13] = a4\n  6393: a4 = a3 >> 0x10\n  6396: u8 [a0 + 0x12] = a4\n  6399: a3 = a3 >> 0x8\n  6402: u8 [a0 + 0x11] = a3\n  6405: u8 [a0 + 0x8] = a2\n  6408: a3 = a2 >> 0x38\n  6411: u8 [a0 + 0xf] = a3\n  6414: a3 = a2 >> 0x30\n  6417: u8 [a0 + 0xe] = a3\n  6420: a3 = a2 >> 0x28\n  6423: u8 [a0 + 0xd] = a3\n  6426: a3 = a2 >> 0x20\n  6429: u8 [a0 + 0xc] = a3\n  6432: a3 = a2 >> 0x18\n  6435: u8 [a0 + 0xb] = a3\n  6438: a3 = a2 >> 0x10\n  6441: u8 [a0 + 0xa] = a3\n  6444: a2 = a2 >> 0x8\n  6447: u8 [a0 + 0x9] = a2\n  6450: u8 [a0] = a1\n  6452: a2 = a1 >> 0x38\n  6455: u8 [a0 + 0x7] = a2\n  6458: a2 = a1 >> 0x30\n  6461: u8 [a0 + 0x6] = a2\n  6464: a2 = a1 >> 0x28\n  6467: u8 [a0 + 0x5] = a2\n  6470: a2 = a1 >> 0x20\n  6473: u8 [a0 + 0x4] = a2\n  6476: a2 = a1 >> 0x18\n  6479: u8 [a0 + 0x3] = a2\n  6482: a2 = a1 >> 0x10\n  6485: u8 [a0 + 0x2] = a2\n  6488: a1 = a1 >> 0x8\n  6491: a2 = u64 [s1 + 0x50]\n  6494: a2 = a2 + 0xffffffffffffffc0\n  6497: a3 = u64 [s1 + 0x38]\n  6500: a2 = a3 <u a2\n  6503: a3 = u64 [s1 + 0x30]\n  6506: a2 = 0 if a3 != 0\n  6508: a3 = u64 [s1 + 0x58]\n  6511: a2 = 0 if a3 != 0\n  6513: u8 [a0 + 0x1] = a1\n  6516: jump @80 if a2 == 0\n      : @96 (gas: 7)\n  6520: a0 = u8 [s1 + 0x28]\n  6523: a0 = a0 >u 0\n  6525: u64 [s1 + 0x78] = a0\n  6528: a0 = u64 [s1 + 0x10]\n  6531: i32 a0 = a0 + 0x40\n  6534: a1 = 0x20\n  6537: ra = 72, jump @0\n      : @97 [@dyn 36] (gas: 36)\n  6542: a1 = u64 [s1 + 0x78]\n  6545: u8 [a0 + 0x1f] = a1\n  6548: u8 [a0 + 30] = 0\n  6551: u8 [a0 + 29] = 0\n  6554: u8 [a0 + 28] = 0\n  6557: u8 [a0 + 27] = 0\n  6560: u8 [a0 + 26] = 0\n  6563: u8 [a0 + 25] = 0\n  6566: u8 [a0 + 24] = 0\n  6569: u8 [a0 + 23] = 0\n  6572: u8 [a0 + 22] = 0\n  6575: u8 [a0 + 21] = 0\n  6578: u8 [a0 + 20] = 0\n  6581: u8 [a0 + 19] = 0\n  6584: u8 [a0 + 18] = 0\n  6587: u8 [a0 + 17] = 0\n  6590: u8 [a0 + 16] = 0\n  6593: u8 [a0 + 15] = 0\n  6596: u8 [a0 + 14] = 0\n  6599: u8 [a0 + 13] = 0\n  6602: u8 [a0 + 12] = 0\n  6605: u8 [a0 + 11] = 0\n  6608: u8 [a0 + 10] = 0\n  6611: u8 [a0 + 9] = 0\n  6614: u8 [a0 + 8] = 0\n  6617: u8 [a0 + 7] = 0\n  6620: u8 [a0 + 6] = 0\n  6623: u8 [a0 + 5] = 0\n  6626: u8 [a0 + 4] = 0\n  6629: u8 [a0 + 3] = 0\n  6632: u8 [a0 + 2] = 0\n  6635: u8 [a0 + 1] = 0\n  6638: u8 [a0 + 0] = 0\n  6640: a1 = 0x60\n  6643: a0 = u64 [s1 + 0x10]\n  6646: ra = 74, jump @0\n      : @98 [@dyn 37] (gas: 5)\n  6651: i32 a1 = a0 + 0\n  6653: a2 = 0x60\n  6656: a0 = 0\n  6658: ecalli 7 // 'seal_return'\n  6660: fallthrough\n      : @99 (gas: 3)\n  6661: a0 = 0x40\n  6664: a1 = 0x20\n  6667: ra = 76, jump @0\n      : @100 [@dyn 38] (gas: 100)\n  6672: a1 = u8 [a0 + 0x11]\n  6675: a2 = u8 [a0 + 0x10]\n  6678: a3 = u8 [a0 + 0x12]\n  6681: a4 = u8 [a0 + 0x13]\n  6684: a1 = a1 << 0x8\n  6687: a1 = a1 | a2\n  6690: a3 = a3 << 0x10\n  6693: a4 = a4 << 0x18\n  6696: a3 = a3 | a4\n  6699: a1 = a1 | a3\n  6702: a2 = u8 [a0 + 0x15]\n  6705: a3 = u8 [a0 + 0x14]\n  6708: a4 = u8 [a0 + 0x16]\n  6711: a5 = u8 [a0 + 0x17]\n  6714: a2 = a2 << 0x8\n  6717: a2 = a2 | a3\n  6720: a4 = a4 << 0x10\n  6723: a5 = a5 << 0x18\n  6726: a4 = a4 | a5\n  6729: a2 = a2 | a4\n  6732: a2 = a2 << 0x20\n  6735: t0 = a2 | a1\n  6738: a2 = u8 [a0 + 0x1]\n  6741: a3 = u8 [a0]\n  6743: a4 = u8 [a0 + 0x2]\n  6746: a5 = u8 [a0 + 0x3]\n  6749: a2 = a2 << 0x8\n  6752: a2 = a2 | a3\n  6755: a4 = a4 << 0x10\n  6758: a5 = a5 << 0x18\n  6761: a4 = a4 | a5\n  6764: a2 = a2 | a4\n  6767: a3 = u8 [a0 + 0x5]\n  6770: a4 = u8 [a0 + 0x4]\n  6773: a5 = u8 [a0 + 0x6]\n  6776: a1 = u8 [a0 + 0x7]\n  6779: a3 = a3 << 0x8\n  6782: a3 = a3 | a4\n  6785: a5 = a5 << 0x10\n  6788: a1 = a1 << 0x18\n  6791: a1 = a1 | a5\n  6794: a1 = a1 | a3\n  6797: a1 = a1 << 0x20\n  6800: t1 = a1 | a2\n  6803: a1 = u8 [a0 + 0x19]\n  6806: a3 = u8 [a0 + 0x18]\n  6809: a4 = u8 [a0 + 0x1a]\n  6812: a5 = u8 [a0 + 0x1b]\n  6815: a1 = a1 << 0x8\n  6818: a1 = a1 | a3\n  6821: a4 = a4 << 0x10\n  6824: a5 = a5 << 0x18\n  6827: a4 = a4 | a5\n  6830: a1 = a1 | a4\n  6833: a3 = u8 [a0 + 0x1d]\n  6836: a4 = u8 [a0 + 0x1c]\n  6839: a5 = u8 [a0 + 0x1e]\n  6842: a2 = u8 [a0 + 0x1f]\n  6845: a3 = a3 << 0x8\n  6848: a3 = a3 | a4\n  6851: a5 = a5 << 0x10\n  6854: a2 = a2 << 0x18\n  6857: a2 = a2 | a5\n  6860: a2 = a2 | a3\n  6863: a2 = a2 << 0x20\n  6866: a3 = a2 | a1\n  6869: a1 = u8 [a0 + 0x9]\n  6872: a2 = u8 [a0 + 0x8]\n  6875: a4 = u8 [a0 + 0xa]\n  6878: a5 = u8 [a0 + 0xb]\n  6881: a1 = a1 << 0x8\n  6884: a1 = a1 | a2\n  6887: a4 = a4 << 0x10\n  6890: a5 = a5 << 0x18\n  6893: a4 = a4 | a5\n  6896: a1 = a1 | a4\n  6899: a2 = u8 [a0 + 0xd]\n  6902: a4 = u8 [a0 + 0xc]\n  6905: a5 = u8 [a0 + 0xe]\n  6908: a0 = u8 [a0 + 0xf]\n  6911: a2 = a2 << 0x8\n  6914: a2 = a2 | a4\n  6917: a5 = a5 << 0x10\n  6920: a0 = a0 << 0x18\n  6923: a0 = a0 | a5\n  6926: a0 = a0 | a2\n  6929: a0 = a0 << 0x20\n  6932: a0 = a0 | a1\n  6935: a4 = reverse a0\n  6937: a2 = reverse a3\n  6939: a5 = reverse t1\n  6941: a3 = reverse t0\n  6943: a0 = a3 | a5\n  6946: a1 = a2 | a4\n  6949: a1 = a1 | a0\n  6952: a1 = a1 >> 0x20\n  6955: a0 = a0 | a4\n  6958: a0 = a0 << 0x20\n  6961: a0 = a0 | a1\n  6964: jump @80 if a0 != 0\n      : @101 (gas: 8)\n  6968: i32 a0 = a2 + 0\n  6970: a1 = 0x20\n  6973: u64 [s1 + 0x58] = a0\n  6976: u64 [s1 + 0x78] = a2\n  6979: u64 [s1 + 0x70] = a3\n  6982: u64 [s1 + 0x68] = a4\n  6985: u64 [s1 + 0x60] = a5\n  6988: ra = 78, jump @0\n      : @102 [@dyn 39] (gas: 43)\n  6993: u8 [a0 + 31] = 0\n  6996: u8 [a0 + 30] = 0\n  6999: u8 [a0 + 29] = 0\n  7002: u8 [a0 + 28] = 0\n  7005: u8 [a0 + 27] = 0\n  7008: u8 [a0 + 26] = 0\n  7011: u8 [a0 + 25] = 0\n  7014: u8 [a0 + 24] = 0\n  7017: u8 [a0 + 23] = 0\n  7020: u8 [a0 + 22] = 0\n  7023: u8 [a0 + 21] = 0\n  7026: u8 [a0 + 20] = 0\n  7029: u8 [a0 + 19] = 0\n  7032: u8 [a0 + 18] = 0\n  7035: u8 [a0 + 17] = 0\n  7038: u8 [a0 + 16] = 0\n  7041: u8 [a0 + 15] = 0\n  7044: u8 [a0 + 14] = 0\n  7047: u8 [a0 + 13] = 0\n  7050: u8 [a0 + 12] = 0\n  7053: u8 [a0 + 11] = 0\n  7056: u8 [a0 + 10] = 0\n  7059: u8 [a0 + 9] = 0\n  7062: u8 [a0 + 8] = 0\n  7065: u8 [a0 + 7] = 0\n  7068: u8 [a0 + 6] = 0\n  7071: u8 [a0 + 5] = 0\n  7074: u8 [a0 + 3] = 0xa0\n  7079: u8 [a0 + 2] = 0x79\n  7083: u8 [a0 + 1] = 0xc3\n  7088: u8 [a0 + 0] = 0x8\n  7091: a1 = u64 [s1 + 0x68]\n  7094: a3 = u64 [s1 + 0x60]\n  7097: a3 = a3 | a1\n  7100: a4 = 0x100000000\n  7110: a1 = 0xfffffffc\n  7120: a2 = u64 [s1 + 0x78]\n  7123: a1 = a2 <u a1\n  7126: a2 = u64 [s1 + 0x70]\n  7129: a1 = 0 if a2 != 0\n  7131: a1 = 0 if a3 != 0\n  7133: u8 [a0 + 4] = 0\n  7136: jump @80 if a1 == 0\n      : @103 (gas: 6)\n  7140: a0 = u64 [s1 + 0x58]\n  7143: i32 a0 = a0 + 0x4\n  7146: a1 = 0x20\n  7149: u64 [s1 + 0x68] = a3\n  7152: u64 [s1 + 0x60] = a4\n  7155: ra = 80, jump @0\n      : @104 [@dyn 40] (gas: 41)\n  7160: a4 = u64 [s1 + 0x68]\n  7163: a3 = u64 [s1 + 0x70]\n  7166: a2 = u64 [s1 + 0x78]\n  7169: u8 [a0 + 31] = 0x20\n  7173: u8 [a0 + 30] = 0\n  7176: u8 [a0 + 29] = 0\n  7179: u8 [a0 + 28] = 0\n  7182: u8 [a0 + 27] = 0\n  7185: u8 [a0 + 26] = 0\n  7188: u8 [a0 + 25] = 0\n  7191: u8 [a0 + 24] = 0\n  7194: u8 [a0 + 23] = 0\n  7197: u8 [a0 + 22] = 0\n  7200: u8 [a0 + 21] = 0\n  7203: u8 [a0 + 20] = 0\n  7206: u8 [a0 + 19] = 0\n  7209: u8 [a0 + 18] = 0\n  7212: u8 [a0 + 17] = 0\n  7215: u8 [a0 + 16] = 0\n  7218: u8 [a0 + 15] = 0\n  7221: u8 [a0 + 14] = 0\n  7224: u8 [a0 + 13] = 0\n  7227: u8 [a0 + 12] = 0\n  7230: u8 [a0 + 11] = 0\n  7233: u8 [a0 + 10] = 0\n  7236: u8 [a0 + 9] = 0\n  7239: u8 [a0 + 8] = 0\n  7242: u8 [a0 + 7] = 0\n  7245: u8 [a0 + 6] = 0\n  7248: u8 [a0 + 5] = 0\n  7251: u8 [a0 + 4] = 0\n  7254: u8 [a0 + 3] = 0\n  7257: u8 [a0 + 2] = 0\n  7260: u8 [a0 + 1] = 0\n  7263: a1 = u64 [s1 + 0x60]\n  7266: a1 = a1 + 0xffffffffffffffdc\n  7269: a1 = a2 <u a1\n  7272: a1 = 0 if a3 != 0\n  7274: a1 = 0 if a4 != 0\n  7276: u8 [a0 + 0] = 0\n  7278: jump @80 if a1 == 0\n      : @105 (gas: 4)\n  7282: a0 = u64 [s1 + 0x58]\n  7285: i32 a0 = a0 + 0x24\n  7288: a1 = 0x20\n  7291: ra = 82, jump @0\n      : @106 [@dyn 41] (gas: 40)\n  7296: u8 [a0 + 31] = 0xf\n  7300: u8 [a0 + 30] = 0\n  7303: u8 [a0 + 29] = 0\n  7306: u8 [a0 + 28] = 0\n  7309: u8 [a0 + 27] = 0\n  7312: u8 [a0 + 26] = 0\n  7315: u8 [a0 + 25] = 0\n  7318: u8 [a0 + 24] = 0\n  7321: u8 [a0 + 23] = 0\n  7324: u8 [a0 + 22] = 0\n  7327: u8 [a0 + 21] = 0\n  7330: u8 [a0 + 20] = 0\n  7333: u8 [a0 + 19] = 0\n  7336: u8 [a0 + 18] = 0\n  7339: u8 [a0 + 17] = 0\n  7342: u8 [a0 + 16] = 0\n  7345: u8 [a0 + 15] = 0\n  7348: u8 [a0 + 14] = 0\n  7351: u8 [a0 + 13] = 0\n  7354: u8 [a0 + 12] = 0\n  7357: u8 [a0 + 11] = 0\n  7360: u8 [a0 + 10] = 0\n  7363: u8 [a0 + 9] = 0\n  7366: u8 [a0 + 8] = 0\n  7369: u8 [a0 + 7] = 0\n  7372: u8 [a0 + 6] = 0\n  7375: u8 [a0 + 5] = 0\n  7378: u8 [a0 + 4] = 0\n  7381: u8 [a0 + 3] = 0\n  7384: u8 [a0 + 2] = 0\n  7387: u8 [a0 + 1] = 0\n  7390: a1 = 0xffffffbc\n  7400: a2 = u64 [s1 + 0x78]\n  7403: a1 = a2 <u a1\n  7406: a2 = u64 [s1 + 0x70]\n  7409: a1 = 0 if a2 != 0\n  7411: a2 = u64 [s1 + 0x68]\n  7414: a1 = 0 if a2 != 0\n  7416: u8 [a0 + 0] = 0\n  7418: jump @80 if a1 == 0\n      : @107 (gas: 4)\n  7422: a0 = u64 [s1 + 0x58]\n  7425: i32 a0 = a0 + 0x44\n  7428: a1 = 0x20\n  7431: ra = 84, jump @0\n      : @108 [@dyn 42] (gas: 36)\n  7436: u8 [a0 + 31] = 0\n  7439: u8 [a0 + 30] = 0\n  7442: u8 [a0 + 29] = 0\n  7445: u8 [a0 + 28] = 0\n  7448: u8 [a0 + 27] = 0\n  7451: u8 [a0 + 26] = 0\n  7454: u8 [a0 + 25] = 0\n  7457: u8 [a0 + 24] = 0\n  7460: u8 [a0 + 23] = 0\n  7463: u8 [a0 + 22] = 0\n  7466: u8 [a0 + 21] = 0\n  7469: u8 [a0 + 20] = 0\n  7472: u8 [a0 + 19] = 0\n  7475: u8 [a0 + 18] = 0\n  7478: u8 [a0 + 17] = 0\n  7481: u8 [a0 + 16] = 0\n  7484: u8 [a0 + 15] = 0\n  7487: u8 [a0 + 14] = 0x67\n  7491: u8 [a0 + 13] = 0x6e\n  7495: u8 [a0 + 12] = 0x69\n  7499: u8 [a0 + 11] = 0x74\n  7503: u8 [a0 + 10] = 0x6e\n  7507: u8 [a0 + 9] = 0x65\n  7511: u8 [a0 + 8] = 0x72\n  7515: u8 [a0 + 7] = 0x20\n  7519: u8 [a0 + 6] = 0x79\n  7523: u8 [a0 + 5] = 0x64\n  7527: u8 [a0 + 4] = 0x61\n  7531: u8 [a0 + 3] = 0x65\n  7535: u8 [a0 + 2] = 0x72\n  7539: u8 [a0 + 1] = 0x6c\n  7543: u8 [a0 + 0] = 0x41\n  7546: a1 = 0x64\n  7549: a0 = u64 [s1 + 0x58]\n  7552: ra = 0x78\n  7555: jump @0\n      : @109 (gas: 4)\n  7558: i32 a0 = a0 + 0\n  7560: u64 [s1 + 0x58] = a0\n  7563: a1 = 0x20\n  7566: ra = 86, jump @0\n      : @110 [@dyn 43] (gas: 71)\n  7571: a1 = u64 [s1 + 0x60]\n  7574: a1 = reverse a1\n  7576: a2 = u64 [s1 + 0x68]\n  7579: a2 = reverse a2\n  7581: a3 = u64 [s1 + 0x70]\n  7584: a3 = reverse a3\n  7586: a4 = u64 [s1 + 0x78]\n  7589: a4 = reverse a4\n  7591: a5 = a4 >> 0x38\n  7594: u8 [a0 + 0x1f] = a5\n  7597: a5 = a4 >> 0x30\n  7600: u8 [a0 + 0x1e] = a5\n  7603: a5 = a4 >> 0x28\n  7606: u8 [a0 + 0x1d] = a5\n  7609: a5 = a4 >> 0x20\n  7612: u8 [a0 + 0x1c] = a5\n  7615: a5 = a4 >> 0x18\n  7618: u8 [a0 + 0x1b] = a5\n  7621: a5 = a4 >> 0x10\n  7624: u8 [a0 + 0x1a] = a5\n  7627: a5 = a4 >> 0x8\n  7630: u8 [a0 + 0x19] = a5\n  7633: u8 [a0 + 0x18] = a4\n  7636: u8 [a0 + 0x10] = a3\n  7639: a4 = a3 >> 0x38\n  7642: u8 [a0 + 0x17] = a4\n  7645: a4 = a3 >> 0x30\n  7648: u8 [a0 + 0x16] = a4\n  7651: a4 = a3 >> 0x28\n  7654: u8 [a0 + 0x15] = a4\n  7657: a4 = a3 >> 0x20\n  7660: u8 [a0 + 0x14] = a4\n  7663: a4 = a3 >> 0x18\n  7666: u8 [a0 + 0x13] = a4\n  7669: a4 = a3 >> 0x10\n  7672: u8 [a0 + 0x12] = a4\n  7675: a3 = a3 >> 0x8\n  7678: u8 [a0 + 0x11] = a3\n  7681: u8 [a0 + 0x8] = a2\n  7684: a3 = a2 >> 0x38\n  7687: u8 [a0 + 0xf] = a3\n  7690: a3 = a2 >> 0x30\n  7693: u8 [a0 + 0xe] = a3\n  7696: a3 = a2 >> 0x28\n  7699: u8 [a0 + 0xd] = a3\n  7702: a3 = a2 >> 0x20\n  7705: u8 [a0 + 0xc] = a3\n  7708: a3 = a2 >> 0x18\n  7711: u8 [a0 + 0xb] = a3\n  7714: a3 = a2 >> 0x10\n  7717: u8 [a0 + 0xa] = a3\n  7720: a2 = a2 >> 0x8\n  7723: u8 [a0 + 0x9] = a2\n  7726: u8 [a0] = a1\n  7728: a2 = a1 >> 0x38\n  7731: u8 [a0 + 0x7] = a2\n  7734: a2 = a1 >> 0x30\n  7737: u8 [a0 + 0x6] = a2\n  7740: a2 = a1 >> 0x28\n  7743: u8 [a0 + 0x5] = a2\n  7746: a2 = a1 >> 0x20\n  7749: u8 [a0 + 0x4] = a2\n  7752: a2 = a1 >> 0x18\n  7755: u8 [a0 + 0x3] = a2\n  7758: a2 = a1 >> 0x10\n  7761: u8 [a0 + 0x2] = a2\n  7764: a1 = a1 >> 0x8\n  7767: u8 [a0 + 0x1] = a1\n  7770: a1 = 0x20\n  7773: a0 = u64 [s1 + 0x58]\n  7776: ra = 88, jump @0\n      : @111 [@dyn 44] (gas: 5)\n  7781: i32 a1 = a0 + 0\n  7783: a2 = 0x20\n  7786: a0 = 0\n  7788: ecalli 7 // 'seal_return'\n  7790: fallthrough\n      : @112 (gas: 1)\n  7791: jump @116 if a0 != 788774967\n      : @113 (gas: 11)\n  7798: a0 = sp + 0xffffffffffffffe0\n  7801: a0 = a0 & 0xffffffffffffffe0\n  7804: u64 [s1 + 0x70] = a0\n  7807: sp = a0\n  7809: u64 [a0 + 24] = 0\n  7812: u64 [a0 + 16] = 0\n  7815: u64 [a0 + 8] = 0\n  7818: u64 [a0 + 0] = 0\n  7820: i32 a0 = a0 + 0\n  7822: ecalli 10 // 'value_transferred'\n  7824: fallthrough\n      : @114 (gas: 9)\n  7825: a3 = u64 [s1 + 0x70]\n  7828: a0 = u64 [a3 + 0x10]\n  7831: a1 = u64 [a3 + 0x18]\n  7834: a2 = u64 [a3 + 0x8]\n  7837: a3 = u64 [a3]\n  7839: a1 = a1 | a2\n  7842: a0 = a0 | a3\n  7845: a0 = a0 | a1\n  7848: jump @116 if a0 != 0\n      : @115 (gas: 3)\n  7851: a0 = u64 [s1 + 0x78]\n  7854: a0 = i32 [a0]\n  7856: jump @119 if a0 >u 3\n      : @116 (gas: 3)\n  7860: a0 = 0\n  7862: a1 = 0\n  7864: ra = 90, jump @0\n      : @117 [@dyn 45] (gas: 7)\n  7869: i32 a1 = a0 + 0\n  7871: a0 = 0x1\n  7874: a2 = 0\n  7876: ecalli 7 // 'seal_return'\n  7878: a0 = 0\n  7880: ra = 0x5a\n  7883: jump @0\n      : @118 (gas: 3)\n  7886: a0 = 0\n  7888: ra = 0x5a\n  7891: jump @0\n      : @119 (gas: 20)\n  7894: i32 a0 = s1 + 0x300\n  7898: ecalli 3 // 'caller'\n  7900: a0 = u64 [s1 + 0x308]\n  7904: a1 = i32 [s1 + 0x310]\n  7908: a3 = u64 [s1 + 0x300]\n  7912: u64 [s1 + 0x70] = a3\n  7915: a0 = reverse a0\n  7917: a2 = a0 << 0x20\n  7920: a1 = reverse a1\n  7922: a1 = a1 >> 0x20\n  7925: a1 = a1 | a2\n  7928: u64 [s1 + 0x78] = a1\n  7931: a0 = a0 >> 0x20\n  7934: a1 = reverse a3\n  7936: a1 = a1 << 0x20\n  7939: a0 = a0 | a1\n  7942: u64 [s1 + 0x68] = a0\n  7945: a1 = 0x20\n  7948: a0 = 0\n  7950: ra = 92, jump @0\n      : @120 [@dyn 46] (gas: 57)\n  7955: a1 = u64 [s1 + 0x68]\n  7958: a1 = reverse a1\n  7960: a2 = u64 [s1 + 0x78]\n  7963: a2 = reverse a2\n  7965: a4 = u64 [s1 + 0x70]\n  7968: a3 = a4 >> 0x18\n  7971: u8 [a0 + 0xf] = a3\n  7974: a3 = a4 >> 0x10\n  7977: u8 [a0 + 0xe] = a3\n  7980: a3 = a4 >> 0x8\n  7983: u8 [a0 + 0xd] = a3\n  7986: u8 [a0 + 0xc] = a4\n  7989: u8 [a0 + 11] = 0\n  7992: u8 [a0 + 10] = 0\n  7995: u8 [a0 + 9] = 0\n  7998: u8 [a0 + 8] = 0\n  8001: u8 [a0 + 7] = 0\n  8004: u8 [a0 + 6] = 0\n  8007: u8 [a0 + 5] = 0\n  8010: u8 [a0 + 4] = 0\n  8013: u8 [a0 + 3] = 0\n  8016: u8 [a0 + 2] = 0\n  8019: u8 [a0 + 1] = 0\n  8022: u8 [a0 + 0] = 0\n  8024: u8 [a0 + 0x18] = a2\n  8027: u8 [a0 + 0x10] = a1\n  8030: a3 = a2 >> 0x38\n  8033: u8 [a0 + 0x1f] = a3\n  8036: a3 = a2 >> 0x30\n  8039: u8 [a0 + 0x1e] = a3\n  8042: a3 = a2 >> 0x28\n  8045: u8 [a0 + 0x1d] = a3\n  8048: a3 = a2 >> 0x20\n  8051: u8 [a0 + 0x1c] = a3\n  8054: a3 = a2 >> 0x18\n  8057: u8 [a0 + 0x1b] = a3\n  8060: a3 = a2 >> 0x10\n  8063: u8 [a0 + 0x1a] = a3\n  8066: a2 = a2 >> 0x8\n  8069: u8 [a0 + 0x19] = a2\n  8072: a2 = a1 >> 0x38\n  8075: u8 [a0 + 0x17] = a2\n  8078: a2 = a1 >> 0x30\n  8081: u8 [a0 + 0x16] = a2\n  8084: a2 = a1 >> 0x28\n  8087: u8 [a0 + 0x15] = a2\n  8090: a2 = a1 >> 0x20\n  8093: u8 [a0 + 0x14] = a2\n  8096: a2 = a1 >> 0x18\n  8099: u8 [a0 + 0x13] = a2\n  8102: a2 = a1 >> 0x10\n  8105: u8 [a0 + 0x12] = a2\n  8108: a1 = a1 >> 0x8\n  8111: u8 [a0 + 0x11] = a1\n  8114: a0 = 0x20\n  8117: a1 = 0x20\n  8120: ra = 94, jump @0\n      : @121 [@dyn 47] (gas: 35)\n  8125: u8 [a0 + 31] = 0\n  8128: u8 [a0 + 30] = 0\n  8131: u8 [a0 + 29] = 0\n  8134: u8 [a0 + 28] = 0\n  8137: u8 [a0 + 27] = 0\n  8140: u8 [a0 + 26] = 0\n  8143: u8 [a0 + 25] = 0\n  8146: u8 [a0 + 24] = 0\n  8149: u8 [a0 + 23] = 0\n  8152: u8 [a0 + 22] = 0\n  8155: u8 [a0 + 21] = 0\n  8158: u8 [a0 + 20] = 0\n  8161: u8 [a0 + 19] = 0\n  8164: u8 [a0 + 18] = 0\n  8167: u8 [a0 + 17] = 0\n  8170: u8 [a0 + 16] = 0\n  8173: u8 [a0 + 15] = 0\n  8176: u8 [a0 + 14] = 0\n  8179: u8 [a0 + 13] = 0\n  8182: u8 [a0 + 12] = 0\n  8185: u8 [a0 + 11] = 0\n  8188: u8 [a0 + 10] = 0\n  8191: u8 [a0 + 9] = 0\n  8194: u8 [a0 + 8] = 0\n  8197: u8 [a0 + 7] = 0\n  8200: u8 [a0 + 6] = 0\n  8203: u8 [a0 + 5] = 0\n  8206: u8 [a0 + 4] = 0\n  8209: u8 [a0 + 3] = 0\n  8212: u8 [a0 + 2] = 0\n  8215: u8 [a0 + 1] = 0\n  8218: u8 [a0 + 0] = 0\n  8220: a1 = 0x40\n  8223: a0 = 0\n  8225: ra = 96, jump @0\n      : @122 [@dyn 48] (gas: 32)\n  8230: a1 = sp + 0xffffffffffffffe0\n  8233: a1 = a1 & 0xffffffffffffffe0\n  8236: u64 [s1 + 0x78] = a1\n  8239: sp = a1\n  8241: i32 a0 = a0 + 0\n  8243: i32 a2 = a1 + 0\n  8245: a1 = 0x40\n  8248: ecalli 5 // 'hash_keccak_256'\n  8250: a3 = u64 [s1 + 0x78]\n  8253: a0 = u64 [a3]\n  8255: a1 = u64 [a3 + 0x8]\n  8258: a2 = u64 [a3 + 0x10]\n  8261: a3 = u64 [a3 + 0x18]\n  8264: a0 = reverse a0\n  8266: a1 = reverse a1\n  8268: a2 = reverse a2\n  8270: a3 = reverse a3\n  8272: a4 = a3 + 0x2\n  8275: a3 = a4 <u a3\n  8278: a5 = a2 + a3\n  8281: a2 = a5 <u a2\n  8284: a2 = a3 if a3 == 0\n  8287: a2 = a2 + a1\n  8290: a1 = a2 <u a1\n  8293: a1 = a1 + a0\n  8296: u64 [s1 + 0x1c0] = a4\n  8300: u64 [s1 + 0x1c8] = a5\n  8304: u64 [s1 + 0x1d0] = a2\n  8308: a0 = s1 + 0x1e0\n  8312: a2 = s1 + 0x1c0\n  8316: u64 [s1 + 0x1d8] = a1\n  8320: ra = 98, jump @11\n      : @123 [@dyn 49] (gas: 2)\n  8325: a0 = u8 [s1 + 0x1e0]\n  8329: jump @131 if a0 == 0\n      : @124 (gas: 22)\n  8333: i32 a0 = s1 + 0x320\n  8337: ecalli 3 // 'caller'\n  8339: a0 = u64 [s1 + 0x328]\n  8343: a1 = i32 [s1 + 0x330]\n  8347: a2 = u64 [s1 + 0x320]\n  8351: a0 = reverse a0\n  8353: a3 = a0 << 0x20\n  8356: a1 = reverse a1\n  8358: a1 = a1 >> 0x20\n  8361: a3 = a3 | a1\n  8364: a0 = a0 >> 0x20\n  8367: a1 = reverse a2\n  8369: a2 = a1 << 0x20\n  8372: a0 = a0 | a2\n  8375: a1 = a1 >> 0x20\n  8378: u64 [s1 + 440] = 0\n  8382: u64 [s1 + 0x1b0] = a1\n  8386: u64 [s1 + 0x1a8] = a0\n  8390: a1 = s1 + 0x1a0\n  8394: u64 [s1 + 0x1a0] = a3\n  8398: a0 = 0\n  8400: ra = 100, jump @9\n      : @125 [@dyn 50] (gas: 7)\n  8405: u64 [s1 + 408] = 0\n  8409: u64 [s1 + 400] = 0\n  8413: u64 [s1 + 392] = 0\n  8417: a0 = 0x20\n  8420: a1 = s1 + 0x180\n  8424: u64 [s1 + 384] = 0\n  8428: ra = 102, jump @9\n      : @126 [@dyn 51] (gas: 3)\n  8433: a1 = 0x40\n  8436: a0 = 0\n  8438: ra = 104, jump @0\n      : @127 [@dyn 52] (gas: 36)\n  8443: a1 = sp + 0xffffffffffffffe0\n  8446: a1 = a1 & 0xffffffffffffffe0\n  8449: u64 [s1 + 0x78] = a1\n  8452: sp = a1\n  8454: i32 a0 = a0 + 0\n  8456: i32 a2 = a1 + 0\n  8458: a1 = 0x40\n  8461: ecalli 5 // 'hash_keccak_256'\n  8463: a3 = u64 [s1 + 0x78]\n  8466: a0 = u64 [a3]\n  8468: a1 = u64 [a3 + 0x8]\n  8471: a2 = u64 [a3 + 0x10]\n  8474: a3 = u64 [a3 + 0x18]\n  8477: a0 = reverse a0\n  8479: a1 = reverse a1\n  8481: a2 = reverse a2\n  8483: a3 = reverse a3\n  8485: a4 = a3 + 0x2\n  8488: u64 [s1 + 0x78] = a4\n  8491: a3 = a4 <u a3\n  8494: a5 = a2 + a3\n  8497: u64 [s1 + 0x70] = a5\n  8500: a2 = a5 <u a2\n  8503: a2 = a3 if a3 == 0\n  8506: a2 = a2 + a1\n  8509: u64 [s1 + 0x68] = a2\n  8512: a1 = a2 <u a1\n  8515: a1 = a1 + a0\n  8518: u64 [s1 + 0x60] = a1\n  8521: u64 [s1 + 0x140] = a4\n  8525: u64 [s1 + 0x148] = a5\n  8529: u64 [s1 + 0x150] = a2\n  8533: a0 = s1 + 0x160\n  8537: a2 = s1 + 0x140\n  8541: u64 [s1 + 0x158] = a1\n  8545: ra = 106, jump @11\n      : @128 [@dyn 53] (gas: 20)\n  8550: a0 = u64 [s1 + 0x168]\n  8554: a1 = u64 [s1 + 0x170]\n  8558: a2 = u64 [s1 + 0x160]\n  8562: a3 = u64 [s1 + 0x178]\n  8566: a2 = a2 & 0xffffffffffffff00\n  8570: u64 [s1 + 0x118] = a3\n  8574: u64 [s1 + 0x110] = a1\n  8578: u64 [s1 + 0x108] = a0\n  8582: u64 [s1 + 0x100] = a2\n  8586: a0 = u64 [s1 + 0x60]\n  8589: u64 [s1 + 0x138] = a0\n  8593: a0 = u64 [s1 + 0x68]\n  8596: u64 [s1 + 0x130] = a0\n  8600: a0 = u64 [s1 + 0x70]\n  8603: u64 [s1 + 0x128] = a0\n  8607: a1 = s1 + 0x120\n  8611: a2 = s1 + 0x100\n  8615: a0 = u64 [s1 + 0x78]\n  8618: u64 [s1 + 0x120] = a0\n  8622: ra = 108, jump @12\n      : @129 [@dyn 54] (gas: 3)\n  8627: a0 = 0\n  8629: a1 = 0\n  8631: ra = 110, jump @0\n      : @130 [@dyn 55] (gas: 5)\n  8636: i32 a1 = a0 + 0\n  8638: a0 = 0\n  8640: a2 = 0\n  8642: ecalli 7 // 'seal_return'\n  8644: fallthrough\n      : @131 (gas: 8)\n  8645: u64 [s1 + 240] = 0\n  8649: u64 [s1 + 232] = 0\n  8653: a0 = 0x8c379a000000000\n  8663: u64 [s1 + 0xf8] = a0\n  8667: a0 = 0x80\n  8671: a1 = s1 + 0xe0\n  8675: u64 [s1 + 224] = 0\n  8679: ra = 112, jump @9\n      : @132 [@dyn 56] (gas: 7)\n  8684: u64 [s1 + 216] = 0\n  8688: u64 [s1 + 208] = 0\n  8692: u64 [s1 + 192] = 0x20\n  8697: a0 = 0x84\n  8701: a1 = s1 + 0xc0\n  8705: u64 [s1 + 200] = 0\n  8709: ra = 114, jump @9\n      : @133 [@dyn 57] (gas: 7)\n  8714: u64 [s1 + 184] = 0\n  8718: u64 [s1 + 176] = 0\n  8722: u64 [s1 + 160] = 0x10\n  8727: a0 = 0xa4\n  8731: a1 = s1 + 0xa0\n  8735: u64 [s1 + 168] = 0\n  8739: ra = 116, jump @9\n      : @134 [@dyn 58] (gas: 9)\n  8744: a0 = u64 [0x20000]\n  8749: a1 = u64 [0x20008]\n  8754: u64 [s1 + 0x98] = a0\n  8758: u64 [s1 + 0x90] = a1\n  8762: u64 [s1 + 136] = 0\n  8766: a0 = 0xc4\n  8770: a1 = s1 + 0x80\n  8774: u64 [s1 + 128] = 0\n  8778: ra = 118, jump @9\n      : @135 [@dyn 59] (gas: 3)\n  8783: a0 = 0x80\n  8787: a1 = 0x64\n  8790: ra = 120, jump @0\n      : @136 [@dyn 60] (gas: 6)\n  8795: i32 a1 = a0 + 0\n  8797: a0 = 0x1\n  8800: a2 = 0x64\n  8803: ra = 0x7a\n  8806: ecalli 7 // 'seal_return'\n  8808: fallthrough\n      : @137 [@dyn 61] (gas: 10)\n  8809: sp = sp + 0xffffffffffffff60\n  8813: u64 [sp + 0x98] = ra\n  8817: u64 [sp + 0x90] = s0\n  8821: u64 [sp + 0x88] = s1\n  8825: s0 = sp + 0xa0\n  8829: sp = sp & 0xfffffffffffffff0\n  8832: u64 [sp + 0x38] = a0\n  8835: a0 = 0x40\n  8838: a1 = 0x20\n  8841: ra = 124, jump @0\n      : @138 [@dyn 62] (gas: 97)\n  8846: a1 = u8 [a0 + 0x9]\n  8849: a2 = u8 [a0 + 0x8]\n  8852: a3 = u8 [a0 + 0xa]\n  8855: a4 = u8 [a0 + 0xb]\n  8858: a1 = a1 << 0x8\n  8861: a1 = a1 | a2\n  8864: a3 = a3 << 0x10\n  8867: a4 = a4 << 0x18\n  8870: a3 = a3 | a4\n  8873: a1 = a1 | a3\n  8876: a2 = u8 [a0 + 0xd]\n  8879: a3 = u8 [a0 + 0xc]\n  8882: a4 = u8 [a0 + 0xe]\n  8885: a5 = u8 [a0 + 0xf]\n  8888: a2 = a2 << 0x8\n  8891: a2 = a2 | a3\n  8894: a4 = a4 << 0x10\n  8897: a5 = a5 << 0x18\n  8900: a4 = a4 | a5\n  8903: a2 = a2 | a4\n  8906: a2 = a2 << 0x20\n  8909: t0 = a2 | a1\n  8912: a2 = u8 [a0 + 0x1]\n  8915: a3 = u8 [a0]\n  8917: a4 = u8 [a0 + 0x2]\n  8920: a5 = u8 [a0 + 0x3]\n  8923: a2 = a2 << 0x8\n  8926: a2 = a2 | a3\n  8929: a4 = a4 << 0x10\n  8932: a5 = a5 << 0x18\n  8935: a4 = a4 | a5\n  8938: a2 = a2 | a4\n  8941: a3 = u8 [a0 + 0x5]\n  8944: a4 = u8 [a0 + 0x4]\n  8947: a5 = u8 [a0 + 0x6]\n  8950: s1 = u8 [a0 + 0x7]\n  8953: a3 = a3 << 0x8\n  8956: a3 = a3 | a4\n  8959: a5 = a5 << 0x10\n  8962: s1 = s1 << 0x18\n  8965: a5 = a5 | s1\n  8968: a3 = a3 | a5\n  8971: a3 = a3 << 0x20\n  8974: a2 = a2 | a3\n  8977: a3 = u8 [a0 + 0x19]\n  8980: a4 = u8 [a0 + 0x18]\n  8983: a5 = u8 [a0 + 0x1a]\n  8986: s1 = u8 [a0 + 0x1b]\n  8989: a3 = a3 << 0x8\n  8992: a3 = a3 | a4\n  8995: a5 = a5 << 0x10\n  8998: s1 = s1 << 0x18\n  9001: a5 = a5 | s1\n  9004: a3 = a3 | a5\n  9007: a4 = u8 [a0 + 0x1d]\n  9010: a5 = u8 [a0 + 0x1c]\n  9013: s1 = u8 [a0 + 0x1e]\n  9016: a1 = u8 [a0 + 0x1f]\n  9019: a4 = a4 << 0x8\n  9022: a4 = a4 | a5\n  9025: s1 = s1 << 0x10\n  9028: a1 = a1 << 0x18\n  9031: a1 = a1 | s1\n  9034: a1 = a1 | a4\n  9037: a1 = a1 << 0x20\n  9040: a3 = a3 | a1\n  9043: a1 = u8 [a0 + 0x11]\n  9046: a4 = u8 [a0 + 0x10]\n  9049: a5 = u8 [a0 + 0x12]\n  9052: s1 = u8 [a0 + 0x13]\n  9055: a1 = a1 << 0x8\n  9058: a1 = a1 | a4\n  9061: a5 = a5 << 0x10\n  9064: s1 = s1 << 0x18\n  9067: a5 = a5 | s1\n  9070: a1 = a1 | a5\n  9073: a4 = u8 [a0 + 0x15]\n  9076: a5 = u8 [a0 + 0x14]\n  9079: s1 = u8 [a0 + 0x16]\n  9082: a0 = u8 [a0 + 0x17]\n  9085: a4 = a4 << 0x8\n  9088: a4 = a4 | a5\n  9091: s1 = s1 << 0x10\n  9094: a0 = a0 << 0x18\n  9097: a0 = a0 | s1\n  9100: a0 = a0 | a4\n  9103: a0 = a0 << 0x20\n  9106: a0 = a0 | a1\n  9109: a4 = reverse a0\n  9111: a3 = reverse a3\n  9113: a5 = reverse a2\n  9115: a2 = reverse t0\n  9117: a0 = a2 | a5\n  9120: a1 = a3 <u 0xffffffffffffffa0\n  9123: a1 = 0 if a4 != 0\n  9125: a1 = 0 if a0 != 0\n  9127: jump @141 if a1 == 0\n      : @139 (gas: 18)\n  9131: a0 = a3 + 0x60\n  9134: u64 [sp + 0x10] = a0\n  9137: s1 = a0 <u a3\n  9140: a0 = a4 + s1\n  9143: u64 [sp + 0x8] = a0\n  9146: a1 = a0 <u a4\n  9149: a1 = s1 if s1 == 0\n  9152: u64 [sp + 0x30] = a2\n  9155: s1 = a2 + a1\n  9158: a0 = s1 <u a2\n  9161: a0 = a0 + a5\n  9164: u64 [sp] = a0\n  9166: a0 = 0x40\n  9169: a1 = 0x20\n  9172: u64 [sp + 0x28] = a4\n  9175: u64 [sp + 0x18] = a3\n  9178: u64 [sp + 0x20] = a5\n  9181: ra = 126, jump @0\n      : @140 [@dyn 63] (gas: 82)\n  9186: a1 = u64 [sp]\n  9188: a1 = reverse a1\n  9190: a2 = reverse s1\n  9192: a3 = u64 [sp + 0x8]\n  9195: a3 = reverse a3\n  9197: a4 = u64 [sp + 0x10]\n  9200: a4 = reverse a4\n  9202: u8 [a0 + 0x18] = a4\n  9205: a5 = a4 >> 0x38\n  9208: u8 [a0 + 0x1f] = a5\n  9211: a5 = a4 >> 0x30\n  9214: u8 [a0 + 0x1e] = a5\n  9217: a5 = a4 >> 0x28\n  9220: u8 [a0 + 0x1d] = a5\n  9223: a5 = a4 >> 0x20\n  9226: u8 [a0 + 0x1c] = a5\n  9229: a5 = a4 >> 0x18\n  9232: u8 [a0 + 0x1b] = a5\n  9235: a5 = a4 >> 0x10\n  9238: u8 [a0 + 0x1a] = a5\n  9241: a4 = a4 >> 0x8\n  9244: u8 [a0 + 0x19] = a4\n  9247: u8 [a0 + 0x10] = a3\n  9250: a4 = a3 >> 0x38\n  9253: u8 [a0 + 0x17] = a4\n  9256: a4 = a3 >> 0x30\n  9259: u8 [a0 + 0x16] = a4\n  9262: a4 = a3 >> 0x28\n  9265: u8 [a0 + 0x15] = a4\n  9268: a4 = a3 >> 0x20\n  9271: u8 [a0 + 0x14] = a4\n  9274: a4 = a3 >> 0x18\n  9277: u8 [a0 + 0x13] = a4\n  9280: a4 = a3 >> 0x10\n  9283: u8 [a0 + 0x12] = a4\n  9286: a3 = a3 >> 0x8\n  9289: u8 [a0 + 0x11] = a3\n  9292: u8 [a0 + 0x8] = a2\n  9295: a3 = a2 >> 0x38\n  9298: u8 [a0 + 0xf] = a3\n  9301: a3 = a2 >> 0x30\n  9304: u8 [a0 + 0xe] = a3\n  9307: a3 = a2 >> 0x28\n  9310: u8 [a0 + 0xd] = a3\n  9313: a3 = a2 >> 0x20\n  9316: u8 [a0 + 0xc] = a3\n  9319: a3 = a2 >> 0x18\n  9322: u8 [a0 + 0xb] = a3\n  9325: a3 = a2 >> 0x10\n  9328: u8 [a0 + 0xa] = a3\n  9331: a2 = a2 >> 0x8\n  9334: u8 [a0 + 0x9] = a2\n  9337: u8 [a0] = a1\n  9339: a2 = a1 >> 0x38\n  9342: u8 [a0 + 0x7] = a2\n  9345: a2 = a1 >> 0x30\n  9348: u8 [a0 + 0x6] = a2\n  9351: a2 = a1 >> 0x28\n  9354: u8 [a0 + 0x5] = a2\n  9357: a2 = a1 >> 0x20\n  9360: u8 [a0 + 0x4] = a2\n  9363: a2 = a1 >> 0x18\n  9366: u8 [a0 + 0x3] = a2\n  9369: a2 = a1 >> 0x10\n  9372: u8 [a0 + 0x2] = a2\n  9375: a1 = a1 >> 0x8\n  9378: u8 [a0 + 0x1] = a1\n  9381: a0 = u64 [sp + 0x38]\n  9384: a1 = u64 [sp + 0x18]\n  9387: u64 [a0] = a1\n  9389: a1 = u64 [sp + 0x20]\n  9392: u64 [a0 + 0x18] = a1\n  9395: a1 = u64 [sp + 0x28]\n  9398: u64 [a0 + 0x8] = a1\n  9401: a1 = u64 [sp + 0x30]\n  9404: u64 [a0 + 0x10] = a1\n  9407: sp = s0 + 0xffffffffffffff60\n  9411: ra = u64 [sp + 0x98]\n  9415: s0 = u64 [sp + 0x90]\n  9419: s1 = u64 [sp + 0x88]\n  9423: sp = sp + 0xa0\n  9427: ret\n      : @141 (gas: 8)\n  9429: u64 [sp + 112] = 0\n  9432: u64 [sp + 104] = 0\n  9435: u64 [sp + 96] = 0\n  9438: a0 = 0x4e487b7100000000\n  9448: a1 = sp + 0x60\n  9451: u64 [sp + 0x78] = a0\n  9454: a0 = 0\n  9456: ra = 128, jump @9\n      : @142 [@dyn 64] (gas: 7)\n  9462: u64 [sp + 88] = 0\n  9465: u64 [sp + 80] = 0\n  9468: u64 [sp + 64] = 0x41\n  9472: a0 = 0x4\n  9475: a1 = sp + 0x40\n  9478: u64 [sp + 72] = 0\n  9481: ra = 130, jump @9\n      : @143 [@dyn 65] (gas: 3)\n  9487: a1 = 0x24\n  9490: a0 = 0\n  9492: ra = 132, jump @0\n      : @144 [@dyn 66] (gas: 6)\n  9498: i32 a1 = a0 + 0\n  9500: a0 = 0x1\n  9503: a2 = 0x24\n  9506: ra = 0x86\n  9510: ecalli 7 // 'seal_return'\n  9512: fallthrough\n      : @145 [@dyn 67] (gas: 26)\n  9513: sp = sp + 0xfffffffffffffea0\n  9517: u64 [sp + 0x158] = ra\n  9521: u64 [sp + 0x150] = s0\n  9525: u64 [sp + 0x148] = s1\n  9529: s0 = sp + 0x160\n  9533: sp = sp & 0xffffffffffffffe0\n  9536: u64 [sp + 0x38] = a0\n  9539: i32 a0 = sp + 0xe0\n  9543: ecalli 3 // 'caller'\n  9545: a0 = u64 [sp + 0xe8]\n  9549: a1 = i32 [sp + 0xf0]\n  9553: s1 = u64 [sp + 0xe0]\n  9557: a0 = reverse a0\n  9559: a2 = a0 << 0x20\n  9562: a1 = reverse a1\n  9564: a1 = a1 >> 0x20\n  9567: a1 = a1 | a2\n  9570: u64 [sp + 0x98] = a1\n  9574: a0 = a0 >> 0x20\n  9577: a1 = reverse s1\n  9579: a1 = a1 << 0x20\n  9582: a0 = a0 | a1\n  9585: u64 [sp + 0x90] = a0\n  9589: a1 = 0x20\n  9592: a0 = 0\n  9594: ra = 136, jump @0\n      : @146 [@dyn 68] (gas: 56)\n  9600: a1 = u64 [sp + 0x90]\n  9604: a1 = reverse a1\n  9606: a2 = u64 [sp + 0x98]\n  9610: a2 = reverse a2\n  9612: a3 = s1 >> 0x18\n  9615: u8 [a0 + 0xf] = a3\n  9618: a3 = s1 >> 0x10\n  9621: u8 [a0 + 0xe] = a3\n  9624: a3 = s1 >> 0x8\n  9627: u8 [a0 + 0xd] = a3\n  9630: u8 [a0 + 0xc] = s1\n  9633: u8 [a0 + 11] = 0\n  9636: u8 [a0 + 10] = 0\n  9639: u8 [a0 + 9] = 0\n  9642: u8 [a0 + 8] = 0\n  9645: u8 [a0 + 7] = 0\n  9648: u8 [a0 + 6] = 0\n  9651: u8 [a0 + 5] = 0\n  9654: u8 [a0 + 4] = 0\n  9657: u8 [a0 + 3] = 0\n  9660: u8 [a0 + 2] = 0\n  9663: u8 [a0 + 1] = 0\n  9666: u8 [a0 + 0] = 0\n  9668: u8 [a0 + 0x18] = a2\n  9671: u8 [a0 + 0x10] = a1\n  9674: a3 = a2 >> 0x38\n  9677: u8 [a0 + 0x1f] = a3\n  9680: a3 = a2 >> 0x30\n  9683: u8 [a0 + 0x1e] = a3\n  9686: a3 = a2 >> 0x28\n  9689: u8 [a0 + 0x1d] = a3\n  9692: a3 = a2 >> 0x20\n  9695: u8 [a0 + 0x1c] = a3\n  9698: a3 = a2 >> 0x18\n  9701: u8 [a0 + 0x1b] = a3\n  9704: a3 = a2 >> 0x10\n  9707: u8 [a0 + 0x1a] = a3\n  9710: a2 = a2 >> 0x8\n  9713: u8 [a0 + 0x19] = a2\n  9716: a2 = a1 >> 0x38\n  9719: u8 [a0 + 0x17] = a2\n  9722: a2 = a1 >> 0x30\n  9725: u8 [a0 + 0x16] = a2\n  9728: a2 = a1 >> 0x28\n  9731: u8 [a0 + 0x15] = a2\n  9734: a2 = a1 >> 0x20\n  9737: u8 [a0 + 0x14] = a2\n  9740: a2 = a1 >> 0x18\n  9743: u8 [a0 + 0x13] = a2\n  9746: a2 = a1 >> 0x10\n  9749: u8 [a0 + 0x12] = a2\n  9752: a1 = a1 >> 0x8\n  9755: u8 [a0 + 0x11] = a1\n  9758: a0 = 0x20\n  9761: a1 = 0x20\n  9764: ra = 138, jump @0\n      : @147 [@dyn 69] (gas: 35)\n  9770: u8 [a0 + 31] = 0\n  9773: u8 [a0 + 30] = 0\n  9776: u8 [a0 + 29] = 0\n  9779: u8 [a0 + 28] = 0\n  9782: u8 [a0 + 27] = 0\n  9785: u8 [a0 + 26] = 0\n  9788: u8 [a0 + 25] = 0\n  9791: u8 [a0 + 24] = 0\n  9794: u8 [a0 + 23] = 0\n  9797: u8 [a0 + 22] = 0\n  9800: u8 [a0 + 21] = 0\n  9803: u8 [a0 + 20] = 0\n  9806: u8 [a0 + 19] = 0\n  9809: u8 [a0 + 18] = 0\n  9812: u8 [a0 + 17] = 0\n  9815: u8 [a0 + 16] = 0\n  9818: u8 [a0 + 15] = 0\n  9821: u8 [a0 + 14] = 0\n  9824: u8 [a0 + 13] = 0\n  9827: u8 [a0 + 12] = 0\n  9830: u8 [a0 + 11] = 0\n  9833: u8 [a0 + 10] = 0\n  9836: u8 [a0 + 9] = 0\n  9839: u8 [a0 + 8] = 0\n  9842: u8 [a0 + 7] = 0\n  9845: u8 [a0 + 6] = 0\n  9848: u8 [a0 + 5] = 0\n  9851: u8 [a0 + 4] = 0\n  9854: u8 [a0 + 3] = 0\n  9857: u8 [a0 + 2] = 0\n  9860: u8 [a0 + 1] = 0\n  9863: u8 [a0 + 0] = 0\n  9865: a1 = 0x40\n  9868: a0 = 0\n  9870: ra = 140, jump @0\n      : @148 [@dyn 70] (gas: 17)\n  9876: i32 a0 = a0 + 0\n  9878: i32 a2 = sp + 0xc0\n  9882: a1 = 0x40\n  9885: ecalli 5 // 'hash_keccak_256'\n  9887: a0 = u64 [sp + 0xd8]\n  9891: a1 = u64 [sp + 0xd0]\n  9895: a2 = u64 [sp + 0xc8]\n  9899: a3 = u64 [sp + 0xc0]\n  9903: a0 = reverse a0\n  9905: u64 [sp + 0x78] = a0\n  9908: a0 = reverse a1\n  9910: u64 [sp + 0x80] = a0\n  9914: a0 = reverse a2\n  9916: u64 [sp + 0x88] = a0\n  9920: s1 = reverse a3\n  9922: a0 = sp + 0xa0\n  9926: ra = 142, jump @137\n      : @149 [@dyn 71] (gas: 28)\n  9932: a0 = u64 [sp + 0xb8]\n  9936: u64 [sp + 0x70] = a0\n  9939: a0 = u64 [sp + 0xb0]\n  9943: u64 [sp + 0x68] = a0\n  9946: a0 = u64 [sp + 0xa8]\n  9950: u64 [sp + 0x90] = a0\n  9954: a0 = u64 [sp + 0xa0]\n  9958: u64 [sp + 0x98] = a0\n  9962: u64 [sp + 0x60] = s1\n  9965: u64 [sp + 0x118] = s1\n  9969: a0 = u64 [sp + 0x88]\n  9973: u64 [sp + 0x110] = a0\n  9977: a0 = u64 [sp + 0x80]\n  9981: u64 [sp + 0x108] = a0\n  9985: a0 = u64 [sp + 0x78]\n  9988: u64 [sp + 0x100] = a0\n  9992: u64 [sp + 312] = 0\n  9996: u64 [sp + 304] = 0\n 10000: u64 [sp + 296] = 0\n 10004: u64 [sp + 288] = 0\n 10008: u32 [sp + 320] = 0x20\n 10013: i32 a1 = sp + 0x100\n 10017: i32 a3 = sp + 0x120\n 10021: i32 a4 = sp + 0x140\n 10025: a2 = 0xffffffffffffffff\n 10028: a0 = 0\n 10030: ecalli 4 // 'get_storage'\n 10032: fallthrough\n      : @150 (gas: 12)\n 10033: a0 = u64 [sp + 0x70]\n 10036: a1 = u64 [sp + 0x90]\n 10040: a0 = a0 | a1\n 10043: a2 = u64 [sp + 0x68]\n 10046: a1 = u64 [sp + 0x98]\n 10050: a1 = a1 | a2\n 10053: a1 = a1 | a0\n 10056: a1 = a1 >> 0x20\n 10059: a0 = a0 | a2\n 10062: a0 = a0 << 0x20\n 10065: a0 = a0 | a1\n 10068: jump @159 if a0 != 0\n      : @151 (gas: 11)\n 10072: s1 = u64 [sp + 0x138]\n 10076: a0 = u64 [sp + 0x130]\n 10080: u64 [sp + 0x58] = a0\n 10083: a0 = u64 [sp + 0x128]\n 10087: u64 [sp + 0x50] = a0\n 10090: a0 = u64 [sp + 0x120]\n 10094: u64 [sp + 0x48] = a0\n 10097: a0 = i32 [sp + 0x98]\n 10101: a1 = 0x20\n 10104: u64 [sp + 0x40] = a0\n 10107: ra = 144, jump @0\n      : @152 [@dyn 72] (gas: 96)\n 10113: u64 [sp + 0x30] = s1\n 10116: a1 = reverse s1\n 10118: a2 = u64 [sp + 0x48]\n 10121: a2 = reverse a2\n 10123: a3 = a2 >> 0x38\n 10126: u8 [a0 + 0x1f] = a3\n 10129: a3 = a2 >> 0x30\n 10132: u8 [a0 + 0x1e] = a3\n 10135: a3 = a2 >> 0x28\n 10138: u8 [a0 + 0x1d] = a3\n 10141: a3 = a2 >> 0x20\n 10144: u8 [a0 + 0x1c] = a3\n 10147: a3 = a2 >> 0x18\n 10150: u8 [a0 + 0x1b] = a3\n 10153: a3 = a2 >> 0x10\n 10156: u8 [a0 + 0x1a] = a3\n 10159: a3 = a2 >> 0x8\n 10162: u8 [a0 + 0x19] = a3\n 10165: a3 = u64 [sp + 0x50]\n 10168: a3 = reverse a3\n 10170: u8 [a0 + 0x18] = a2\n 10173: a2 = a3 >> 0x38\n 10176: u8 [a0 + 0x17] = a2\n 10179: a2 = a3 >> 0x30\n 10182: u8 [a0 + 0x16] = a2\n 10185: a2 = a3 >> 0x28\n 10188: u8 [a0 + 0x15] = a2\n 10191: a2 = a3 >> 0x20\n 10194: u8 [a0 + 0x14] = a2\n 10197: a2 = a3 >> 0x18\n 10200: u8 [a0 + 0x13] = a2\n 10203: a2 = a3 >> 0x10\n 10206: u8 [a0 + 0x12] = a2\n 10209: a2 = u64 [sp + 0x58]\n 10212: a2 = reverse a2\n 10214: u8 [a0 + 0x10] = a3\n 10217: a3 = a3 >> 0x8\n 10220: u8 [a0 + 0x11] = a3\n 10223: u8 [a0 + 0x8] = a2\n 10226: a3 = a2 >> 0x38\n 10229: u8 [a0 + 0xf] = a3\n 10232: a3 = a2 >> 0x30\n 10235: u8 [a0 + 0xe] = a3\n 10238: a3 = a2 >> 0x28\n 10241: u8 [a0 + 0xd] = a3\n 10244: a3 = a2 >> 0x20\n 10247: u8 [a0 + 0xc] = a3\n 10250: a3 = a2 >> 0x18\n 10253: u8 [a0 + 0xb] = a3\n 10256: a3 = a2 >> 0x10\n 10259: u8 [a0 + 0xa] = a3\n 10262: a2 = a2 >> 0x8\n 10265: u8 [a0 + 0x9] = a2\n 10268: u8 [a0] = a1\n 10270: a2 = a1 >> 0x38\n 10273: u8 [a0 + 0x7] = a2\n 10276: a2 = a1 >> 0x30\n 10279: u8 [a0 + 0x6] = a2\n 10282: a2 = a1 >> 0x28\n 10285: u8 [a0 + 0x5] = a2\n 10288: a2 = a1 >> 0x20\n 10291: u8 [a0 + 0x4] = a2\n 10294: a2 = a1 >> 0x18\n 10297: u8 [a0 + 0x3] = a2\n 10300: a2 = a1 >> 0x10\n 10303: u8 [a0 + 0x2] = a2\n 10306: a1 = a1 >> 0x8\n 10309: u8 [a0 + 0x1] = a1\n 10312: a0 = u64 [sp + 0x78]\n 10315: a0 = a0 + 0x1\n 10318: a1 = a0 <u 0x1\n 10321: a2 = u64 [sp + 0x80]\n 10325: a1 = a1 + a2\n 10328: a2 = a0 | a1\n 10331: a2 = a2 <u 0x1\n 10334: a3 = u64 [sp + 0x88]\n 10338: a2 = a2 + a3\n 10341: a3 = a2 <u a3\n 10344: a4 = u64 [sp + 0x60]\n 10347: a3 = a3 + a4\n 10350: u64 [sp + 0x118] = a3\n 10354: u64 [sp + 0x110] = a2\n 10358: u64 [sp + 0x108] = a1\n 10362: u64 [sp + 0x100] = a0\n 10366: u32 [sp + 320] = 0x20\n 10371: u64 [sp + 312] = 0\n 10375: u64 [sp + 304] = 0\n 10379: u64 [sp + 296] = 0\n 10383: u64 [sp + 288] = 0\n 10387: i32 a1 = sp + 0x100\n 10391: i32 a3 = sp + 0x120\n 10395: i32 a4 = sp + 0x140\n 10399: a2 = 0xffffffffffffffff\n 10402: a0 = 0\n 10404: ecalli 4 // 'get_storage'\n 10406: fallthrough\n      : @153 (gas: 13)\n 10407: a0 = u64 [sp + 0x70]\n 10410: a1 = u64 [sp + 0x68]\n 10413: a2 = a1 | a0\n 10416: a0 = 0x100000000\n 10426: u64 [sp + 0x68] = a0\n 10429: a0 = 0xffffffe0\n 10439: a1 = u64 [sp + 0x98]\n 10443: a0 = a1 <u a0\n 10446: a1 = u64 [sp + 0x90]\n 10450: a0 = 0 if a1 != 0\n 10452: u64 [sp + 0x70] = a2\n 10455: a0 = 0 if a2 != 0\n 10457: jump @159 if a0 == 0\n      : @154 (gas: 11)\n 10461: s1 = u64 [sp + 0x138]\n 10465: a0 = u64 [sp + 0x130]\n 10469: u64 [sp + 0x18] = a0\n 10472: a0 = u64 [sp + 0x128]\n 10476: u64 [sp + 0x20] = a0\n 10479: a0 = u64 [sp + 0x120]\n 10483: u64 [sp + 0x28] = a0\n 10486: a0 = u64 [sp + 0x40]\n 10489: i32 a0 = a0 + 0x20\n 10492: a1 = 0x20\n 10495: ra = 146, jump @0\n      : @155 [@dyn 73] (gas: 95)\n 10501: a1 = reverse s1\n 10503: a2 = u64 [sp + 0x18]\n 10506: a2 = reverse a2\n 10508: a3 = u64 [sp + 0x20]\n 10511: a3 = reverse a3\n 10513: a4 = u64 [sp + 0x28]\n 10516: a4 = reverse a4\n 10518: a5 = a4 >> 0x38\n 10521: u8 [a0 + 0x1f] = a5\n 10524: a5 = a4 >> 0x30\n 10527: u8 [a0 + 0x1e] = a5\n 10530: a5 = a4 >> 0x28\n 10533: u8 [a0 + 0x1d] = a5\n 10536: a5 = a4 >> 0x20\n 10539: u8 [a0 + 0x1c] = a5\n 10542: a5 = a4 >> 0x18\n 10545: u8 [a0 + 0x1b] = a5\n 10548: a5 = a4 >> 0x10\n 10551: u8 [a0 + 0x1a] = a5\n 10554: a5 = a4 >> 0x8\n 10557: u8 [a0 + 0x19] = a5\n 10560: u8 [a0 + 0x18] = a4\n 10563: u8 [a0 + 0x10] = a3\n 10566: a4 = a3 >> 0x38\n 10569: u8 [a0 + 0x17] = a4\n 10572: a4 = a3 >> 0x30\n 10575: u8 [a0 + 0x16] = a4\n 10578: a4 = a3 >> 0x28\n 10581: u8 [a0 + 0x15] = a4\n 10584: a4 = a3 >> 0x20\n 10587: u8 [a0 + 0x14] = a4\n 10590: a4 = a3 >> 0x18\n 10593: u8 [a0 + 0x13] = a4\n 10596: a4 = a3 >> 0x10\n 10599: u8 [a0 + 0x12] = a4\n 10602: a3 = a3 >> 0x8\n 10605: u8 [a0 + 0x11] = a3\n 10608: u8 [a0 + 0x8] = a2\n 10611: a3 = a2 >> 0x38\n 10614: u8 [a0 + 0xf] = a3\n 10617: a3 = a2 >> 0x30\n 10620: u8 [a0 + 0xe] = a3\n 10623: a3 = a2 >> 0x28\n 10626: u8 [a0 + 0xd] = a3\n 10629: a3 = a2 >> 0x20\n 10632: u8 [a0 + 0xc] = a3\n 10635: a3 = a2 >> 0x18\n 10638: u8 [a0 + 0xb] = a3\n 10641: a3 = a2 >> 0x10\n 10644: u8 [a0 + 0xa] = a3\n 10647: a2 = a2 >> 0x8\n 10650: u8 [a0 + 0x9] = a2\n 10653: u8 [a0] = a1\n 10655: a2 = a1 >> 0x38\n 10658: u8 [a0 + 0x7] = a2\n 10661: a2 = a1 >> 0x30\n 10664: u8 [a0 + 0x6] = a2\n 10667: a2 = a1 >> 0x28\n 10670: u8 [a0 + 0x5] = a2\n 10673: a2 = a1 >> 0x20\n 10676: u8 [a0 + 0x4] = a2\n 10679: a2 = a1 >> 0x18\n 10682: u8 [a0 + 0x3] = a2\n 10685: a2 = a1 >> 0x10\n 10688: u8 [a0 + 0x2] = a2\n 10691: a1 = a1 >> 0x8\n 10694: u8 [a0 + 0x1] = a1\n 10697: a1 = u64 [sp + 0x78]\n 10700: a0 = a1 + 0x2\n 10703: a1 = a0 <u a1\n 10706: a3 = u64 [sp + 0x80]\n 10710: a2 = a3 + a1\n 10713: a3 = a2 <u a3\n 10716: a3 = a1 if a1 == 0\n 10719: a1 = u64 [sp + 0x88]\n 10723: a3 = a3 + a1\n 10726: a1 = a3 <u a1\n 10729: a4 = u64 [sp + 0x60]\n 10732: a1 = a1 + a4\n 10735: u64 [sp + 0x118] = a1\n 10739: u64 [sp + 0x110] = a3\n 10743: u64 [sp + 0x108] = a2\n 10747: u64 [sp + 0x100] = a0\n 10751: u64 [sp + 312] = 0\n 10755: u64 [sp + 304] = 0\n 10759: u64 [sp + 296] = 0\n 10763: u64 [sp + 288] = 0\n 10767: u32 [sp + 320] = 0x20\n 10772: i32 a1 = sp + 0x100\n 10776: i32 a3 = sp + 0x120\n 10780: i32 a4 = sp + 0x140\n 10784: a2 = 0xffffffffffffffff\n 10787: a0 = 0\n 10789: ecalli 4 // 'get_storage'\n 10791: fallthrough\n      : @156 (gas: 9)\n 10792: a0 = u64 [sp + 0x68]\n 10795: a0 = a0 + 0xffffffffffffffc0\n 10798: a1 = u64 [sp + 0x98]\n 10802: a0 = a1 <u a0\n 10805: a1 = u64 [sp + 0x90]\n 10809: a0 = 0 if a1 != 0\n 10811: a1 = u64 [sp + 0x70]\n 10814: a0 = 0 if a1 != 0\n 10816: jump @159 if a0 == 0\n      : @157 (gas: 8)\n 10820: a0 = u64 [sp + 0x120]\n 10824: s1 = a0 & 0xff\n 10828: a0 = s1 >u 0\n 10830: u64 [sp + 0x98] = a0\n 10834: a0 = u64 [sp + 0x40]\n 10837: i32 a0 = a0 + 0x40\n 10840: a1 = 0x20\n 10843: ra = 148, jump @0\n      : @158 [@dyn 74] (gas: 52)\n 10849: a1 = u64 [sp + 0x98]\n 10853: u8 [a0 + 0x1f] = a1\n 10856: u8 [a0 + 30] = 0\n 10859: u8 [a0 + 29] = 0\n 10862: u8 [a0 + 28] = 0\n 10865: u8 [a0 + 27] = 0\n 10868: u8 [a0 + 26] = 0\n 10871: u8 [a0 + 25] = 0\n 10874: u8 [a0 + 24] = 0\n 10877: u8 [a0 + 23] = 0\n 10880: u8 [a0 + 22] = 0\n 10883: u8 [a0 + 21] = 0\n 10886: u8 [a0 + 20] = 0\n 10889: u8 [a0 + 19] = 0\n 10892: u8 [a0 + 18] = 0\n 10895: u8 [a0 + 17] = 0\n 10898: u8 [a0 + 16] = 0\n 10901: u8 [a0 + 15] = 0\n 10904: u8 [a0 + 14] = 0\n 10907: u8 [a0 + 13] = 0\n 10910: u8 [a0 + 12] = 0\n 10913: u8 [a0 + 11] = 0\n 10916: u8 [a0 + 10] = 0\n 10919: u8 [a0 + 9] = 0\n 10922: u8 [a0 + 8] = 0\n 10925: u8 [a0 + 7] = 0\n 10928: u8 [a0 + 6] = 0\n 10931: u8 [a0 + 5] = 0\n 10934: u8 [a0 + 4] = 0\n 10937: u8 [a0 + 3] = 0\n 10940: u8 [a0 + 2] = 0\n 10943: u8 [a0 + 1] = 0\n 10946: u8 [a0 + 0] = 0\n 10948: a1 = u64 [sp + 0x58]\n 10951: a1 = 0 if s1 == 0\n 10953: a3 = u64 [sp + 0x50]\n 10956: a3 = 0 if s1 == 0\n 10958: a2 = u64 [sp + 0x30]\n 10961: a2 = 0 if s1 == 0\n 10963: a4 = u64 [sp + 0x48]\n 10966: a4 = 0 if s1 == 0\n 10968: a0 = u64 [sp + 0x38]\n 10971: u64 [a0] = a4\n 10973: u64 [a0 + 0x18] = a2\n 10976: u64 [a0 + 0x8] = a3\n 10979: u64 [a0 + 0x10] = a1\n 10982: sp = s0 + 0xfffffffffffffea0\n 10986: ra = u64 [sp + 0x158]\n 10990: s0 = u64 [sp + 0x150]\n 10994: s1 = u64 [sp + 0x148]\n 10998: sp = sp + 0x160\n 11002: ret\n      : @159 (gas: 1)\n 11004: trap\n      : @160 [export #0: 'call'] (gas: 2)\n 11005: a0 = 0\n 11007: ra = 150, jump @13\n      : @161 [@dyn 75] [export #1: 'deploy'] (gas: 2)\n 11013: a0 = 0x1\n 11016: ra = 152, jump @13\n      : @162 [@dyn 76] (gas: 1)\n 11022: trap\n",
				"bytecode": {
					"object": "50564d00000232000000000000010700c12000c0004003107669746361206f4e6c61746e657220650480b30b000000000e0000001c0000002a000000300000003b0000004a0000004d000000580000006a0000007500000063616c6c5f646174615f636f707963616c6c5f646174615f6c6f616463616c6c5f646174615f73697a6563616c6c65726765745f73746f72616765686173685f6b656363616b5f3235366e6f777365616c5f72657475726e7365745f696d6d757461626c655f646174617365745f73746f7261676576616c75655f7472616e73666572726564051102aafd0463616c6cab05066465706c6f7906b10d4c02ab0f40008a013c0341035b03ec030104260432045604690513067c069b074508ae083c09b109e00ad20b6f0c190d820dc30d1b0fcf101611bb11e311a2137414dd144d168e1797188e19fb19101a511bf81b801c0c1d931d651ebd1e131fbd1f26208520d520f120fb206621b321bc21ec210a2228224f225b2269228e22e223f6240f251a25292580252a269426cc2681270529612a052b0e2b8b791052093b3309010001ae9833c8780883881f8488e0553801000128390a100002ae8a123d081000023308200002c8870732003308200002c88707320000007c78017c797c7a027c7b03978808d4980897aa1097bb18d4ba0ad4a8087c79057c7a047c7b067c7c07979908d4a90997bb1097cc18d4cb0bd4b909979920d489027c79097c7a087c7b0a7c7c0b979908d4a90997bb1097cc18d4cb0bd4b9097c7a0d7c7b0c7c7c0e7c780f97aa08d4ba0a97cc10978818d4c808d4a808978820d498037c78117c7a107c7b127c7c13978808d4a80897bb1097cc18d4cb0bd4b8087c7a157c7b147c7c167c791797aa08d4ba0a97cc10979918d4c909d4a909979920d4890a7c78197c79187c7b1a7c7c1b978808d4980897bb1097cc18d4cb0bd4b8087c791d7c7b1c7c7c1e7c771f979908d4b90997cc10977718d4c707d49707977720d487076f776fa86f396f2a7b5a187b59107b58087b57821008821595111032009511d87b10207b15187b161082897b19088289087b1982851082861883773308205010047bfe6f686f59821a6faa821b086fbb787b18787a10787908787898bc38787c1f98bc30787c1e98bc28787c1d98bc20787c1c98bc18787c1b98bc10787c1a98bb08787b1998ab38787b1798ab30787b1698ab28787b1598ab20787b1498ab18787b1398ab10787b1298aa08787a11989a38787a0f989a30787a0e989a28787a0d989a20787a0c989a18787a0b989a10787a0a98990878790998893878790798893078790698892878790598892078790498891878790398891078790298880878780182102082151882161095112832009511a07b10587b15507b16489515608411e06476829718829a10829b0882997b17187b1a107b1b087b194911384911304911284911204811402033078318831a20831b403309ff0a04821738821830821928821a207b67187b68107b69087b6a9551a082105882155082164895116032009511a07b10587b15509515608411e08292829308829410829918828a18828b10828c0882887b1a187b1b107b1c087b187b19387b14307b13287b122033078318831a203309ff330b200a099551a082105882155095116032009511f07b10087b158475010a02013d0714000251050750100609501008f6009511c07b10387b15309515408411e033074033082050100aaafc46171f800046171e46171d46171c46171b46171a46171946171846171746171646171546171446171346171246171146171046170f46170e46170d46170c46170b46170a4617094617084617074617064617054617044617034617024617014607491118490149110849111083170a0a01821710821818821908821ad49808d4a707d487075107163307330850100c19fc837833070133090a070133078000330850100e04fc8377330833090a01390818000251080d330720000383770a0801330780003308501010dffb8378330733093300120a0701951180fb7b1078047b1570047b166804951580048411e06416330740330820501014affb46171f800046171e46171d46171c46171b46171a46171946171846171746171646171546171446171346171246171146171046170f46170e46170d46170c46170b46170a461709461708461707461703330814000246170246170146077b687839081400024617064617054617045518040728ec198367e00233080a01018167fc025a47710913f33a0252472a559ed58a0c9517e08477e07b67706471491718491710491708490783770a0a01826a7082a71082a81882a90882aad49808d4a707d48707510706289719826778817756170307288b19836760030a038267680381687003826a60037b6a706f779779206f88988820d498087b68789877206fa8978820d487077b676833082033075010169cfa8268686f888269786f99826b7098ba18787a0f98ba10787a0e98ba08787a0d787b0c46170b46170a4617094617084617074617064617054617044617034617024617014607787918787810989a38787a1f989a30787a1e989a28787a1d989a20787a1c989a18787a1b989a10787a1a989908787919988938787917988930787916988928787915988920787914988918787913988910787912988808787811330720330820501018f2f946171f46171e46171d46171c46171b46171a46171946171846171746171646171546171446171346171246171146171046170f46170e46170d46170c46170b46170a4617094617084617074617064617054617044617034617024617014607330840330750101a89f99518e08488e07b68786481837783893308400a05826a7882a782a80882a91082aa186f776f886f996faa95aa0188ab01c8b909d49a0b88bb01c88b0bd88b08c887077b6a20047b6928047b6b30047b67380449265804492650044926480449264004482600042083682004836a4004836b00043309ff33070a04826758047b6760826750047b6768826748047b67708267400428c60a5247720913f3fa0b9517e08477e07b67706471491718491710491708490783770a0a01826a7082a71082a81882a90882aad49808d4a707d48707510706286517826778817756172307285917836780030a038267880381689003826a80037b6a706f779779206f88988820d498087b68789877206fa8978820d487077b6768330820330750101c6af88268686f888269786f99826b7098ba18787a0f98ba10787a0e98ba08787a0d787b0c46170b46170a4617094617084617074617064617054617044617034617024617014607787918787810989a38787a1f989a30787a1e989a28787a1d989a20787a1c989a18787a1b989a10787a1a98990878791998893878791798893078791698892878791598892078791498891878791398891078791298880878781133072033082050101ec0f746171f46171e46171d46171c46171b46171a46171946171846171746171646171546171446171346171246171146171046170f46170e46170d46170c46170b46170a4617094617084617074617064617054617044617034617024617014607330840330750102057f79518e08488e07b68786481837783893308400a05826a7882a782a80882a91082aa186f776f886f996faa95ab02d8ab0ac8a90cd89c09daaa09c88909d88908c887077b6b20047b6c28047b6930047b67380449265804492650044926480449264004482600042083682004836a4004836b00043309ff33070a04017c67400451070628d5109567c00250102232198267d8027b67688267d0027b67608267c8027b67708267c0027b67788367a0033308040a0101826768826870d48707826960826878d49808d47808988820d49707977720d48707520788098267a0037b67588267a8037b67508267b0037b67488267b8037b67408167783308207b673850102454f68268406f888269486f99826a506faa826b586fbb98bc38787c1f98bc30787c1e98bc28787c1d98bc20787c1c98bc18787c1b98bc10787c1a98bc08787c19787b1898ab38787b1798ab30787b1698ab28787b1598ab20787b1498ab18787b1398ab10787b1298ab08787b11787a10989a38787a0f989a30787a0e989a28787a0d989a20787a0c989a18787a0b989a10787a0a989a08787a0978790898893878790798893078790698892878790598892078790498891878790398891078790298890878790178788367c0030a0601826768826860d47809140a00000000010000001407e0ffffff00000000826878d8780782687094879497510762088267c0037b67588267c8037b67508267d0037b67488267d8037b67408267388377203308207b67307b69687b6a6050102625f58268406f888269486f99826a506faa826b586fbb98bc38787c1f98bc30787c1e98bc28787c1d98bc20787c1c98bc18787c1b98bc10787c1a98bc08787c19787b1898ab38787b1798ab30787b1698ab28787b1598ab20787b1498ab18787b1398ab10787b1298ab08787b11787a10989a38787a0f989a30787a0e989a28787a0d989a20787a0c989a18787a0b989a10787a0a989a08787a097879089889387879079889307879069889287879059889207879049889187879039889107879029889087879018269609599c0826a78d89a09826a7094a9826a6894a9787851094e078267388377407b675033082050102833f446171f0146171e46171d46171c46171b46171a46171946171846171746171646171546171446171346171246171146171046170f46170e46170d46170c46170b46170a46170946170846170746170646170546170446170346170246170146078367e0030a038267e8038168f003826ae0037b6a706f779779206f88988820d498087b68789877206fa8978820d487077b6768330820330750102a96f38268686f888269786f99826b7098ba18787a0f98ba10787a0e98ba08787a0d787b0c46170b46170a4617094617084617074617064617054617044617034617024617014607787918787810989a38787a1f989a30787a1e989a28787a1d989a20787a1c989a18787a1b989a10787a1a98990878791998893878791798893078791698892878791598892078791498891878791398891078791298880878781133072033082050102cecf246171f46171e46171d46171c46171b46171a46171946171846171746171646171546171446171346171246171146171046170f46170e46170d46170c46170b46170a4617094617084617074617064617054617044617034617024617014607330840330750102e83f29518e08488e07b68786481837783893308400a05826a7882a71882a81082a90882aa6f777b67686f877b67706f977b67606fa77b677833082082673850103042f27c78017c797c7a027c7b03978808d4980897aa1097bb18d4ba0ad4a8087c79057c7a047c7b067c7c07979908d4a90997bb1097cc18d4cb0bd4b909979920d489027c79097c7a087c7b0a7c7c0b979908d4a90997bb1097cc18d4cb0bd4b9097c7a0d7c7b0c7c7c0e7c780f97aa08d4ba0a97cc10978818d4c808d4a808978820d498037c78117c7a107c7b127c7c13978808d4a80897bb1097cc18d4cb0bd4b8087c7a157c7b147c7c167c791797aa08d4ba0a97cc10979918d4c909d4a909979920d4890a7c78197c79187c7b1a7c7c1b978808d4980897bb1097cc18d4cb0bd4b8087c791d7c7b1c7c7c1e7c771f979908d4b90997cc10977718d4c707d49707977720d487076f287b6858046f387b6850046fa87b6848046f777b6740048267787b6738048267607b6730048267707b6728048267687b67200483682004836a40043309ff330b2033070a09330820826730501032eaf07c78017c797c7a027c7b03978808d4980897aa1097bb18d4ba0ad4a8087c79057c7a047c7b067c7c07979908d4a90997bb1097cc18d4cb0bd4b909979920d489027c79097c7a087c7b0a7c7c0b979908d4a90997bb1097cc18d4cb0bd4b9097c7a0d7c7b0c7c7c0e7c780f97aa08d4ba0a97cc10978818d4c808d4a808978820d498037c78117c7a107c7b127c7c13978808d4a80897bb1097cc18d4cb0bd4b8087c7a157c7b147c7c167c791797aa08d4ba0a97cc10979918d4c909d4a909979920d489047c78197c79187c7b1a7c7c1b978808d4980897bb1097cc18d4cb0bd4b8087c791d7c7b1c7c7c1e7c771f979908d4b90997cc10977718d4c707d49707977720d48707826868958801888901826a70c8a909d4980b88bb01826a60c8ab0bd8ab0c826a78c8ac0c7b6c38047b6b30047b6928047b6820046f287b6858046f387b6850046f487b6848046f777b67400483682004836a40043309ff330b2033070a098267689578027b6858d87807826870c878097b6968d88908da7708826760c878087b6870d87807826878c887077b67789567a0028268503300349511f07b10087b15647583873308203300022834ef8267b0028268b8028269a802826aa002d49808d4a707d487078e777b67608267787b6778028267707b6770028267687b67680295678002956960028268587b68600250103647f1826788028268800282699002826a9802848800ff826b60d48b0b7b6a38027b6930027b6728028267787b6758028267707b6750028267687b6748028267587b67400295684002956920027b6b200233006c2862f152473501b1ec4a0d9517e08477e07b67706471491718491710491708490783770a0a01826a7082a71082a81882a90882aad49808d4a707d487075207100d8267788177541703070d956700025010387313826718027b6760826710027b6768826708027b677082670002017b677833074033082050103a22ee7c78117c79107c7a127c7b13978808d4980897aa1097bb18d4ba0ad4a8087c79157c7a147c7b167c7c17979908d4a90997bb1097cc18d4cb0bd4b909979920d489027c79017c7a7c7b027c7c03979908d4a90997bb1097cc18d4cb0bd4b9097c7a057c7b047c7c067c780797aa08d4ba0a97cc10978818d4c808d4a808978820d498037c78197c7a187c7b1a7c7c1b978808d4a80897bb1097cc18d4cb0bd4b8087c7a1d7c7b1c7c7c1e7c791f97aa08d4ba0a97cc10979918d4c909d4a909979920d4890a7c78097c79087c7b0a7c7c0b978808d4980897bb1097cc18d4cb0bd4b8087c790d7c7b0c7c7c0e7c770f979908d4b90997cc10977718d4c707d49707977720d487076f786fa76f396f2ad4a909d4870ad49a0a98aa20d49808978820d4a80851087f0a005247b45ea86b630b9517e08477e07b67706471491718491710491708490783770a0a01826a7082a71082a81882a90882aad49808d4a707d4870752076e0b8267788177541723650b836740033308040a0101826850038269580314070000000001000000d38707d497077b68789888208888017b6970949893785108480b826748037b6760826740037b6768330820330750103c63ec8268706f888269786f99826a606faa826b686fbb787b1898bc38787c1f98bc30787c1e98bc28787c1d98bc20787c1c98bc18787c1b98bc10787c1a98bb08787b19787a1098ab38787b1798ab30787b1698ab28787b1598ab20787b1498ab18787b1398ab10787b1298aa08787a11787908989a38787a0f989a30787a0e989a28787a0d989a20787a0c989a18787a0b989a10787a0a989908787909787898893878790798893078790698892878790598892078790498891878790398891078790298880878780133072033082050103e91eb46171f46171e46171d46171c46171b46171a46171946171846171746171646171546171446171346171246171146171046170f46170e46170d46170c46170b46170a4617094617084617074617064617054617044617034617024617014607330840330750104028eb9518e08488e07b68786481837783893308400a05826a7882a71882a81082a90882aa6f7b7b6b686f887b68706f997b69606fa77b67787b6738047b6930047b6828047b6b200449265804492650044926480449264004482600042083682004836a4004836b00043309ff33070a04826768957701887801826970c89808d48709889901826a60c8a909d8a90a826b78c8ba0a7b6a3804826a58047b6a587b693004826950047b69507b682804826848047b68487b672004826740047b674049265804492650044926480449264004482600042083682004836a4004836b00043309ff33070a04826868958702d88708826a70c88a09d8a90ada880a826860c88a0ad88a08826b78c8b8087b6838047b6a3004826858047b68787b692804826850047b68707b672004826748047b67684826000420826740047b67604926580449265004492648044926400483682004836a4004836b00043309ff33070a04826740047b6728330740330820501042b8e97c78117c79107c7a127c7b13978808d4980897aa1097bb18d4ba0ad4a8087c79157c7a147c7b167c7c17979908d4a90997bb1097cc18d4cb0bd4b909979920d489027c79017c7a7c7b027c7c03979908d4a90997bb1097cc18d4cb0bd4b9097c7a057c7b047c7c067c780797aa08d4ba0a97cc10978818d4c808d4a808978820d498037c78197c7a187c7b1a7c7c1b978808d4a80897bb1097cc18d4cb0bd4b8087c7a1d7c7b1c7c7c1e7c791f97aa08d4ba0a97cc10979918d4c909d4a909979920d4890a7c78097c79087c7b0a7c7c0b978808d4980897bb1097cc18d4cb0bd4b8087c790d7c7b0c7c7c0e7c770f979908d4b90997cc10977718d4c707d49707977720d487076f7b6fa96f3c6f2ad4ca07d4b908d47808988820d4b707977720d4870752079afb83973308207b67107b69387b6a307b6b207b6c1850104477e88268586f888269506f99826a486faa826b406fbb98bc38787c1f98bc30787c1e98bc28787c1d98bc20787c1c98bc18787c1b98bc10787c1a98bc08787c19787b18787a1098ab38787b1798ab30787b1698ab28787b1598ab20787b1498ab18787b1398ab10787b1298aa08787a11787908989a38787a0f989a30787a0e989a28787a0d989a20787a0c989a18787a0b989a10787a0a8262309899087879097878988938787907988930787906988928787905988920787904988918787903988910787902988808826920826b18d49b0b140c00000000010000001409e0ffffff00000000826a38d89a09942994b978780151098cfa8267108377203308207b6b587b6c505010466ee78268786f888269706f99826a686faa826b606fbb98bc38787c1f98bc30787c1e98bc28787c1d98bc20787c1c98bc18787c1b98bc10787c1a98bc08787c19787b18787a1098ab38787b1798ab30787b1698ab28787b1598ab20787b1498ab18787b1398ab10787b1298aa08787a11787908989a38787a0f989a30787a0e989a28787a0d989a20787a0c989a18787a0b989a10787a0a98990878790978789889387879079889307879069889287879059889207879049889187879039889107879029888088269509599c0826a38d89a09826a3094a9826a5894a9787801510997f97c67288e777b677882671083774033082050104877e682687878781f46171e46171d46171c46171b46171a46171946171846171746171646171546171446171346171246171146171046170f46170e46170d46170c46170b46170a461709461708461707461706461705461704461703461702461701460733086082671050104a0ae6837833096033070a070133074033082050104cf5e57c78117c79107c7a127c7b13978808d4980897aa1097bb18d4ba0ad4a8087c79157c7a147c7b167c7c17979908d4a90997bb1097cc18d4cb0bd4b909979920d489027c79017c7a7c7b027c7c03979908d4a90997bb1097cc18d4cb0bd4b9097c7a057c7b047c7c067c780797aa08d4ba0a97cc10978818d4c808d4a808978820d498037c78197c7a187c7b1a7c7c1b978808d4a80897bb1097cc18d4cb0bd4b8087c7a1d7c7b1c7c7c1e7c791f97aa08d4ba0a97cc10979918d4c909d4a909979920d4890a7c78097c79087c7b0a7c7c0b978808d4980897bb1097cc18d4cb0bd4b8087c790d7c7b0c7c7c0e7c770f979908d4b90997cc10977718d4c707d49707977720d487076f7b6fa96f3c6f2ad4ca07d4b908d47808988820d4b707977720d487075207d7f783973308207b67587b69787b6a707b6b687b6c6050104eb4e446171f46171e46171d46171c46171b46171a46171946171846171746171646171546171446171346171246171146171046170f46170e46170d46170c46170b46170a461709461708461707461706461705461703a00046170279461701c300460708826868826a60d48a0a140b00000000010000001408fcffffff00000000826978d88908826970949894a846170451082bf78267588377043308207b6a687b6b605010500de4826b68826a7082697846171f2046171e46171d46171c46171b46171a46171946171846171746171646171546171446171346171246171146171046170f46170e46170d46170c46170b46170a4617094617084617074617064617054617044617034617024617018268609588dcd8890894a894b8460751089df682675883772433082050105285e346171f0f46171e46171d46171c46171b46171a46171946171846171746171646171546171446171346171246171146171046170f46170e46170d46170c46170b46170a4617094617084617074617064617054617044617034617024617011408bcffffff00000000826978d88908826970949882696894984607510811f6826758837744330820501054f9e246171f46171e46171d46171c46171b46171a46171946171846171746171646171546171446171346171246171146171046170f46170e6746170d6e46170c6946170b7446170a6e46170965461708724617072046170679461705644617046146170365461702724617016c460741330864826758330078287de283777b675833082050105672e28268606f888269686f99826a706faa826b786fbb98bc38787c1f98bc30787c1e98bc28787c1d98bc20787c1c98bc18787c1b98bc10787c1a98bc08787c19787b18787a1098ab38787b1798ab30787b1698ab28787b1598ab20787b1498ab18787b1398ab10787b1298aa08787a11787908989a38787a0f989a30787a0e989a28787a0d989a20787a0c989a18787a0b989a10787a0a9899087879097878988938787907988930787906988928787905988920787904988918787903988910787902988808787801330820826758501058a0e1837833092033070a0701524737c0032f459517e08477e07b67706471491718491710491708490783770a0a01826a7082a71082a81882a90882aad49808d4a707d4870752070c8267788177561703263307330850105a48e1837833070133090a07330733005a2835e1330733005a282de1836700030a038267080381681003826a00037b6a706f779779206f88988820d498087b68789877206fa8978820d487077b6768330820330750105cf2e08268686f888269786f99826b7098ba18787a0f98ba10787a0e98ba08787a0d787b0c46170b46170a4617094617084617074617064617054617044617034617024617014607787918787810989a38787a1f989a30787a1e989a28787a1d989a20787a1c989a18787a1b989a10787a1a98990878791998893878791798893078791698892878791598892078791498891878791398891078791298880878781133072033082050105e48e046171f46171e46171d46171c46171b46171a46171946171846171746171646171546171446171346171246171146171046170f46170e46170d46170c46170b46170a46170946170846170746170646170546170446170346170246170146073308403307501060dfdf9518e08488e07b68786481837783893308400a05826a7882a782a80882a91082aa186f776f886f996faa95ab02d8ab0ac8a90cd89c09daaa09c88909d88908c878087b6bc0017b6cc8017b69d0019567e0019569c0017b68d801501062d8e17c67e00151073c01836720030a038267280381683003826920036f77977a206f88988820d48a0a9877206f98978920d497079888204926b8017b68b0017b67a8019568a0017b6aa001330750106494e0492698014926900149268801330720956880014926800150106678e033084033075010680adf9518e08488e07b68786481837783893308400a05826a7882a782a80882a91082aa186f776f886f996faa95ab027b6b78d8ab0ac8a90c7b6c70d89c09daaa09c889097b6968d88908c878087b68607b6b40017b6c48017b69500195676001956940017b68580150106af7e0826768018268700182696001826a7801849900ff7b6a18017b6810017b6708017b6900018267607b6738018267687b6730018267707b67280195682001956900018267787b67200150106c1be13307330850106e49de8378330733090a07014926f0004926e800140700000000a079c3087b67f800330780009568e0004926e0005010707ddf4926d8004926d0004926c00020330784009568c0004926c8005010725fdf4926b8004926b0004926a000103307a4009568a0004926a80050107441df3a070000023a080800027b6798007b689000492688003307c40095688000492680005010761adf33078000330864501078aadd837833070133096433007a0a0701951160ff7b1098007b1590007b1688009515a0008411f07b173833074033082050107c77dd7c78097c79087c7a0a7c7b0b978808d4980897aa1097bb18d4ba0ad4a8087c790d7c7a0c7c7b0e7c7c0f979908d4a90997bb1097cc18d4cb0bd4b909979920d489027c79017c7a7c7b027c7c03979908d4a90997bb1097cc18d4cb0bd4b9097c7a057c7b047c7c067c760797aa08d4ba0a97cc10976618d46c0cd4ca0a97aa20d4a9097c7a197c7b187c7c1a7c761b97aa08d4ba0a97cc10976618d46c0cd4ca0a7c7b1d7c7c1c7c761e7c781f97bb08d4cb0b976610978818d46808d4b808978820d48a0a7c78117c7b107c7c127c7613978808d4b80897cc10976618d46c0cd4c8087c7b157c7c147c76167c771797bb08d4cb0b976610977718d46707d4b707977720d487076f7b6faa6f9c6f29d4c90788a8a094b8947851082e0195a7607b1710d8a706c86b077b1708d8b708da66087b1930c88906d89607c8c7077b173307403308207b1b287b1a187b1c2050107e23dc82186f886f69821a086faa821b106fbb787b1898bc38787c1f98bc30787c1e98bc28787c1d98bc20787c1c98bc18787c1b98bc10787c1a98bb08787b19787a1098ab38787b1798ab30787b1698ab28787b1598ab20787b1498ab18787b1398ab10787b1298aa08787a11787908989a38787a0f989a30787a0e989a28787a0d989a20787a0c989a18787a0b989a10787a0a98990878790978789889387879079889307879069889287879059889207879049889187879039889107879029888087878018217388218187b788218207b78188218287b78088218307b7810955160ff8210980082159000821688009511a0003200491170491168491160140700000000717b484e9518607b177833075020800074dc49115849115049114041330704951840491148502082005bdc330824330750208400ecda8378330701330924330086000a07019511a0fe7b1058017b1550017b164801951560018411e07b17388317e0000a038217e8008118f0008216e0006f779779206f88988820d498087b1898009877206f68978820d487077b17900033082033075020880086da821890006f88821998006f99986a18787a0f986a10787a0e986a08787a0d78760c46170b46170a4617094617084617074617064617054617044617034617024617014607787918787810989a38787a1f989a30787a1e989a28787a1d989a20787a1c989a18787a1b989a10787a1a98990878791998893878791798893078791698892878791598892078791498891878791398891078791298880878781133072033082050208a00dcd946171f46171e46171d46171c46171b46171a46171946171846171746171646171546171446171346171246171146171046170f46170e46170d46170c46170b46170a4617094617084617074617064617054617044617034617024617014607330840330750208c0072d983778319c0003308400a058217d8008218d0008219c800821ac0006f777b17786f877b1780006f977b1788006fa69517a00050208e00a3fb8217b8007b17708217b0007b17688217a8007b1790008217a0007b1798007b16607b161801821788007b171001821780007b1708018217787b17000149213801492130014921280149212001482140012083180001831a2001831b40013309ff33070a040182177082189000d4870782196882189800d49808d47808988820d49707977720d487075207a80382163801821730017b1758821728017b1750821720017b1748811798003308207b17405020900085d87b16306f688219486f99989a38787a1f989a30787a1e989a28787a1d989a20787a1c989a18787a1b989a10787a1a989a08787a19821a506faa78791898a93878791798a93078791698a92878791598a92078791498a91878791398a9107879128219586f99787a1098aa08787a11787908989a38787a0f989a30787a0e989a28787a0d989a20787a0c989a18787a0b989a10787a0a989908787909787898893878790798893078790698892878790598892078790498891878790398891078790298880878780182177895770188780182198000c89808d48709889901821a8800c8a909d8a90a821b60c8ba0a7b1a18017b1910017b1808017b17000148214001204921380149213001492128014921200183180001831a2001831b40013309ff33070a0401821770821868d47809140700000000010000007b17681407e0ffffff0000000082189800d878078218900094877b197094975107230282163801821730017b1718821728017b1720821720017b17288217408377203308205020920001d76f688219186f99821a206faa821b286fbb98bc38787c1f98bc30787c1e98bc28787c1d98bc20787c1c98bc18787c1b98bc10787c1a98bc08787c19787b18787a1098ab38787b1798ab30787b1698ab28787b1598ab20787b1498ab18787b1398ab10787b1298aa08787a11787908989a38787a0f989a30787a0e989a28787a0d989a20787a0c989a18787a0b989a10787a0a9899087879097878988938787907988930787906988928787905988920787904988918787903988910787902988808787801821878958702d88708821a8000c88a09d8a90ada880a82188800c88a0ad88a08821b60c8b8087b1818017b1a10017b1908017b17000149213801492130014921280149212001482140012083180001831a2001831b40013309ff33070a04018217689577c082189800d8780782189000948782187094875107bc00821720018476ff008e677b17980082174083774033082050209400a5d58218980078781f46171e46171d46171c46171b46171a46171946171846171746171646171546171446171346171246171146171046170f46170e46170d46170c46170b46170a46170946170846170746170646170546170446170346170246170146078218589368821a50936a8219309369821b48936b8217387b7b7b79187b7a087b78109551a0fe8210580182155001821648019511600132000033075020960023d8330701502098001ad80049489220248414d2294992244992244992244992244992244992244992244992244992244992244992aa24a5942425252554a5242549922449922449922449922449922449922449922449499294a42425495492922449499292242549529292a492942425a5211192244908499224499224499224499294929aa424a9506a14aa43428d42954644444a4248922449922449922449484a4812891a0101494a524d929224291245444a49529214524a92244992244952922449922449922449922449489224499224499224499224a590a44a294955922449444444448888542412890424294935494a92a448141129254949524829499224499224494992244992244992244992242149922449922449922449929442922aa52455499224111111112122522389108944229126499224894824124912524a2949922449922449922449922449922449922449922449d124010490a42212894492240929a5942449922449922449922449922449922449922449922449522a922444922449922449922449922445119152929424859492244992244992942449922449922449922449129224499224499224499224492924a95292544a29494849922449922449922449922449922449922449922449922449922449922449921445512412894444524948499224499224499224499224499224499224499224499224499224499224499224499224494444511445445249922449922491245592888824259148442442444424119148241211910424294935494a1229448844223149489224499224499224254992244992244992244992244992244992244992244992542549921890a424d5242949a410694400499254442229a4945292244992244992244992244992244992a42449922449929024499224499224499224494a21499592a4524a898888880811914a92244992884424221189880811914a92244992884844221222111111918a2421499224499224499294244992244992244992244992244992244992244992244952952449a22449424a292549922449922449922449922449922449529224499224490001249548928494524a92244992244992244992244992244992942449922449929412294942922449922449922449922449492835094992244992244992a4244992244992244992244992244992244992244992244992aa24491225491292244992244992244992840849124000492a912409492249922449922449922449922455240991244992244992244992244900494a459290244992244992888888888888882449494829a52449922449922449922449922449922449499224499224a1d44092925493a4244951a1544949141129254949524829499224499224494992244992244992244992242149922449922449922449929442922aa5245549922411111121228a8852929244444421221211524852a594a42a4992244922222242444444442412898844a85035228088881011222244848808214444448448284923222249429224499224499224294992244992244992244992244992244992244992244992a42aa948922449529224542925499224499224499224499224499224494a9224499224294992888828490049411249821494442322228922a294444a22055194244992244992942449922449922449922449122449922449922449922449925250a488885214451089444424222212111121225213492449121189442209524a92244992242549922449529224499224495292244992244922492449444488888888d42401248048942222914892a0945292244992244992244992244992244992a424499224499244924892888888881011a949244a1151240922499224499224499224499294524a29494444b4204100"
				},
				"methodIdentifiers": {
					"checkAccess()": "ecb10135",
					"endRental()": "2f03c037",
					"getUserStartTime()": "d59e552a",
					"rentGame(uint256)": "f3130972",
					"rentals(address)": "6ba85eb4"
				}
			},
			"hash": "d8eea36eac26dc98a40511b19efdd1e40e91f2a7430c438cfe0cb2a9ec46da79",
			"factoryDependencies": {}
		}
	}
}